{
  "_format": "hh-sol-artifact-1",
  "contractName": "AgreedPrice",
  "sourceName": "contracts/access-control/AgreedPrice.sol",
  "abi": [
    {
      "inputs": [
        {
          "internalType": "uint256",
          "name": "_price",
          "type": "uint256"
        }
      ],
      "stateMutability": "nonpayable",
      "type": "constructor"
    },
    {
      "anonymous": false,
      "inputs": [
        {
          "indexed": true,
          "internalType": "address",
          "name": "previousOwner",
          "type": "address"
        },
        {
          "indexed": true,
          "internalType": "address",
          "name": "newOwner",
          "type": "address"
        }
      ],
      "name": "OwnershipTransferred",
      "type": "event"
    },
    {
      "inputs": [],
      "name": "owner",
      "outputs": [
        {
          "internalType": "address",
          "name": "",
          "type": "address"
        }
      ],
      "stateMutability": "view",
      "type": "function"
    },
    {
      "inputs": [],
      "name": "price",
      "outputs": [
        {
          "internalType": "uint256",
          "name": "",
          "type": "uint256"
        }
      ],
      "stateMutability": "view",
      "type": "function"
    },
    {
      "inputs": [],
      "name": "renounceOwnership",
      "outputs": [],
      "stateMutability": "nonpayable",
      "type": "function"
    },
    {
      "inputs": [
        {
          "internalType": "address",
          "name": "newOwner",
          "type": "address"
        }
      ],
      "name": "transferOwnership",
      "outputs": [],
      "stateMutability": "nonpayable",
      "type": "function"
    },
    {
      "inputs": [
        {
          "internalType": "uint256",
          "name": "_price",
          "type": "uint256"
        }
      ],
      "name": "updatePrice",
      "outputs": [],
      "stateMutability": "nonpayable",
      "type": "function"
    }
  ],
  "bytecode": "0x608060405234801561001057600080fd5b5060405161080538038061080583398181016040528101906100329190610162565b61004e61004361005b60201b60201c565b61006360201b60201c565b806001819055505061018f565b600033905090565b60008060009054906101000a900473ffffffffffffffffffffffffffffffffffffffff169050816000806101000a81548173ffffffffffffffffffffffffffffffffffffffff021916908373ffffffffffffffffffffffffffffffffffffffff1602179055508173ffffffffffffffffffffffffffffffffffffffff168173ffffffffffffffffffffffffffffffffffffffff167f8be0079c531659141344cd1fd0a4f28419497f9722a3daafe3b4186f6b6457e060405160405180910390a35050565b600080fd5b6000819050919050565b61013f8161012c565b811461014a57600080fd5b50565b60008151905061015c81610136565b92915050565b60006020828403121561017857610177610127565b5b60006101868482850161014d565b91505092915050565b6106678061019e6000396000f3fe608060405234801561001057600080fd5b50600436106100575760003560e01c8063715018a61461005c5780638d6cc56d146100665780638da5cb5b14610082578063a035b1fe146100a0578063f2fde38b146100be575b600080fd5b6100646100da565b005b610080600480360381019061007b9190610416565b610162565b005b61008a6101e8565b6040516100979190610484565b60405180910390f35b6100a8610211565b6040516100b591906104ae565b60405180910390f35b6100d860048036038101906100d391906104f5565b610217565b005b6100e261030f565b73ffffffffffffffffffffffffffffffffffffffff166101006101e8565b73ffffffffffffffffffffffffffffffffffffffff1614610156576040517f08c379a000000000000000000000000000000000000000000000000000000000815260040161014d9061057f565b60405180910390fd5b6101606000610317565b565b61016a61030f565b73ffffffffffffffffffffffffffffffffffffffff166101886101e8565b73ffffffffffffffffffffffffffffffffffffffff16146101de576040517f08c379a00000000000000000000000000000000000000000000000000000000081526004016101d59061057f565b60405180910390fd5b8060018190555050565b60008060009054906101000a900473ffffffffffffffffffffffffffffffffffffffff16905090565b60015481565b61021f61030f565b73ffffffffffffffffffffffffffffffffffffffff1661023d6101e8565b73ffffffffffffffffffffffffffffffffffffffff1614610293576040517f08c379a000000000000000000000000000000000000000000000000000000000815260040161028a9061057f565b60405180910390fd5b600073ffffffffffffffffffffffffffffffffffffffff168173ffffffffffffffffffffffffffffffffffffffff161415610303576040517f08c379a00000000000000000000000000000000000000000000000000000000081526004016102fa90610611565b60405180910390fd5b61030c81610317565b50565b600033905090565b60008060009054906101000a900473ffffffffffffffffffffffffffffffffffffffff169050816000806101000a81548173ffffffffffffffffffffffffffffffffffffffff021916908373ffffffffffffffffffffffffffffffffffffffff1602179055508173ffffffffffffffffffffffffffffffffffffffff168173ffffffffffffffffffffffffffffffffffffffff167f8be0079c531659141344cd1fd0a4f28419497f9722a3daafe3b4186f6b6457e060405160405180910390a35050565b600080fd5b6000819050919050565b6103f3816103e0565b81146103fe57600080fd5b50565b600081359050610410816103ea565b92915050565b60006020828403121561042c5761042b6103db565b5b600061043a84828501610401565b91505092915050565b600073ffffffffffffffffffffffffffffffffffffffff82169050919050565b600061046e82610443565b9050919050565b61047e81610463565b82525050565b60006020820190506104996000830184610475565b92915050565b6104a8816103e0565b82525050565b60006020820190506104c3600083018461049f565b92915050565b6104d281610463565b81146104dd57600080fd5b50565b6000813590506104ef816104c9565b92915050565b60006020828403121561050b5761050a6103db565b5b6000610519848285016104e0565b91505092915050565b600082825260208201905092915050565b7f4f776e61626c653a2063616c6c6572206973206e6f7420746865206f776e6572600082015250565b6000610569602083610522565b915061057482610533565b602082019050919050565b600060208201905081810360008301526105988161055c565b9050919050565b7f4f776e61626c653a206e6577206f776e657220697320746865207a65726f206160008201527f6464726573730000000000000000000000000000000000000000000000000000602082015250565b60006105fb602683610522565b91506106068261059f565b604082019050919050565b6000602082019050818103600083015261062a816105ee565b905091905056fea2646970667358221220c76eaf040facb543508717c85251485279b18b0a42602e87c7356134c3e6326164736f6c63430008090033",
  "linkReferences": {},
  "deployedLinkReferences": {}
}