{
  "_format": "hh-sol-artifact-1",
  "contractName": "LogicV2",
  "sourceName": "contracts/upgradeability/LogicV2.sol",
  "abi": [
    {
      "inputs": [],
      "name": "increaseX",
      "outputs": [],
      "stateMutability": "nonpayable",
      "type": "function"
    },
    {
      "inputs": [],
      "name": "logicContract",
      "outputs": [
        {
          "internalType": "address",
          "name": "",
          "type": "address"
        }
      ],
      "stateMutability": "view",
      "type": "function"
    },
    {
      "inputs": [],
      "name": "owner",
      "outputs": [
        {
          "internalType": "address",
          "name": "",
          "type": "address"
        }
      ],
      "stateMutability": "view",
      "type": "function"
    },
    {
      "inputs": [
        {
          "internalType": "uint256",
          "name": "_y",
          "type": "uint256"
        }
      ],
      "name": "setY",
      "outputs": [],
      "stateMutability": "nonpayable",
      "type": "function"
    },
    {
      "inputs": [],
      "name": "x",
      "outputs": [
        {
          "internalType": "uint256",
          "name": "",
          "type": "uint256"
        }
      ],
      "stateMutability": "view",
      "type": "function"
    },
    {
      "inputs": [],
      "name": "y",
      "outputs": [
        {
          "internalType": "uint256",
          "name": "",
          "type": "uint256"
        }
      ],
      "stateMutability": "view",
      "type": "function"
    }
  ],
  "bytecode": "0x608060405234801561001057600080fd5b5061032b806100206000396000f3fe608060405234801561001057600080fd5b50600436106100625760003560e01c80630c55699c14610067578063309803c71461008557806368d466b81461008f5780638da5cb5b146100ab578063a56dfe4a146100c9578063cc0e97c9146100e7575b600080fd5b61006f610105565b60405161007c919061019b565b60405180910390f35b61008d61010b565b005b6100a960048036038101906100a491906101e7565b610126565b005b6100b3610130565b6040516100c09190610255565b60405180910390f35b6100d1610156565b6040516100de919061019b565b60405180910390f35b6100ef61015c565b6040516100fc9190610255565b60405180910390f35b60005481565b600260008082825461011d919061029f565b92505081905550565b8060038190555050565b600160009054906101000a900473ffffffffffffffffffffffffffffffffffffffff1681565b60035481565b600260009054906101000a900473ffffffffffffffffffffffffffffffffffffffff1681565b6000819050919050565b61019581610182565b82525050565b60006020820190506101b0600083018461018c565b92915050565b600080fd5b6101c481610182565b81146101cf57600080fd5b50565b6000813590506101e1816101bb565b92915050565b6000602082840312156101fd576101fc6101b6565b5b600061020b848285016101d2565b91505092915050565b600073ffffffffffffffffffffffffffffffffffffffff82169050919050565b600061023f82610214565b9050919050565b61024f81610234565b82525050565b600060208201905061026a6000830184610246565b92915050565b7f4e487b7100000000000000000000000000000000000000000000000000000000600052601160045260246000fd5b60006102aa82610182565b91506102b583610182565b9250827fffffffffffffffffffffffffffffffffffffffffffffffffffffffffffffffff038211156102ea576102e9610270565b5b82820190509291505056fea264697066735822122012488ddb577407555e0b6e92854d910dcfd004433172e697ad9216c470bda71a64736f6c63430008090033",
  "linkReferences": {},
  "deployedLinkReferences": {}
}