{
  "_format": "hh-sol-artifact-1",
  "contractName": "LotteryV2",
  "sourceName": "contracts/weak-randomness/LotteryV2.sol",
  "abi": [
    {
      "inputs": [],
      "stateMutability": "nonpayable",
      "type": "constructor"
    },
    {
      "inputs": [
        {
          "internalType": "address",
          "name": "have",
          "type": "address"
        },
        {
          "internalType": "address",
          "name": "want",
          "type": "address"
        }
      ],
      "name": "OnlyCoordinatorCanFulfill",
      "type": "error"
    },
    {
      "anonymous": false,
      "inputs": [
        {
          "indexed": true,
          "internalType": "address",
          "name": "previousOwner",
          "type": "address"
        },
        {
          "indexed": true,
          "internalType": "address",
          "name": "newOwner",
          "type": "address"
        }
      ],
      "name": "OwnershipTransferred",
      "type": "event"
    },
    {
      "inputs": [
        {
          "internalType": "address",
          "name": "",
          "type": "address"
        }
      ],
      "name": "bets",
      "outputs": [
        {
          "internalType": "uint8",
          "name": "",
          "type": "uint8"
        }
      ],
      "stateMutability": "view",
      "type": "function"
    },
    {
      "inputs": [],
      "name": "betsClosed",
      "outputs": [
        {
          "internalType": "bool",
          "name": "",
          "type": "bool"
        }
      ],
      "stateMutability": "view",
      "type": "function"
    },
    {
      "inputs": [],
      "name": "endLottery",
      "outputs": [],
      "stateMutability": "nonpayable",
      "type": "function"
    },
    {
      "inputs": [],
      "name": "owner",
      "outputs": [
        {
          "internalType": "address",
          "name": "",
          "type": "address"
        }
      ],
      "stateMutability": "view",
      "type": "function"
    },
    {
      "inputs": [
        {
          "internalType": "uint8",
          "name": "_number",
          "type": "uint8"
        }
      ],
      "name": "placeBet",
      "outputs": [],
      "stateMutability": "payable",
      "type": "function"
    },
    {
      "inputs": [],
      "name": "prizeTaken",
      "outputs": [
        {
          "internalType": "bool",
          "name": "",
          "type": "bool"
        }
      ],
      "stateMutability": "view",
      "type": "function"
    },
    {
      "inputs": [
        {
          "internalType": "uint256",
          "name": "requestId",
          "type": "uint256"
        },
        {
          "internalType": "uint256[]",
          "name": "randomWords",
          "type": "uint256[]"
        }
      ],
      "name": "rawFulfillRandomWords",
      "outputs": [],
      "stateMutability": "nonpayable",
      "type": "function"
    },
    {
      "inputs": [],
      "name": "renounceOwnership",
      "outputs": [],
      "stateMutability": "nonpayable",
      "type": "function"
    },
    {
      "inputs": [],
      "name": "requestRandomWords",
      "outputs": [],
      "stateMutability": "nonpayable",
      "type": "function"
    },
    {
      "inputs": [
        {
          "internalType": "uint256",
          "name": "",
          "type": "uint256"
        }
      ],
      "name": "s_randomWords",
      "outputs": [
        {
          "internalType": "uint256",
          "name": "",
          "type": "uint256"
        }
      ],
      "stateMutability": "view",
      "type": "function"
    },
    {
      "inputs": [],
      "name": "s_requestId",
      "outputs": [
        {
          "internalType": "uint256",
          "name": "",
          "type": "uint256"
        }
      ],
      "stateMutability": "view",
      "type": "function"
    },
    {
      "inputs": [
        {
          "internalType": "address",
          "name": "newOwner",
          "type": "address"
        }
      ],
      "name": "transferOwnership",
      "outputs": [],
      "stateMutability": "nonpayable",
      "type": "function"
    },
    {
      "inputs": [],
      "name": "winningNumber",
      "outputs": [
        {
          "internalType": "uint8",
          "name": "",
          "type": "uint8"
        }
      ],
      "stateMutability": "view",
      "type": "function"
    },
    {
      "inputs": [],
      "name": "withdrawPrize",
      "outputs": [],
      "stateMutability": "nonpayable",
      "type": "function"
    }
  ],
  "bytecode": "0x60a0604052736168499c0cffcacd319c818142124b7a15e857ab6004600b6101000a81548173ffffffffffffffffffffffffffffffffffffffff021916908373ffffffffffffffffffffffffffffffffffffffff1602179055507301be23585060835e02b77ef475b0cc51aa1e0709600560006101000a81548173ffffffffffffffffffffffffffffffffffffffff021916908373ffffffffffffffffffffffffffffffffffffffff1602179055507fd89b2bf150e3b9e13446986e571fb9cab24b13cea0a43ea20a6049a85cc807cc60001b600655620186a0600760006101000a81548163ffffffff021916908363ffffffff1602179055506003600760046101000a81548161ffff021916908361ffff1602179055506001600760066101000a81548163ffffffff021916908363ffffffff16021790555034801561014557600080fd5b506004600b9054906101000a900473ffffffffffffffffffffffffffffffffffffffff168073ffffffffffffffffffffffffffffffffffffffff1660808173ffffffffffffffffffffffffffffffffffffffff1681525050506101ba6101af6102b060201b60201c565b6102b860201b60201c565b6004600b9054906101000a900473ffffffffffffffffffffffffffffffffffffffff16600160006101000a81548173ffffffffffffffffffffffffffffffffffffffff021916908373ffffffffffffffffffffffffffffffffffffffff160217905550600560009054906101000a900473ffffffffffffffffffffffffffffffffffffffff16600260006101000a81548173ffffffffffffffffffffffffffffffffffffffff021916908373ffffffffffffffffffffffffffffffffffffffff1602179055506119d7600460036101000a81548167ffffffffffffffff021916908367ffffffffffffffff16021790555061037c565b600033905090565b60008060009054906101000a900473ffffffffffffffffffffffffffffffffffffffff169050816000806101000a81548173ffffffffffffffffffffffffffffffffffffffff021916908373ffffffffffffffffffffffffffffffffffffffff1602179055508173ffffffffffffffffffffffffffffffffffffffff168173ffffffffffffffffffffffffffffffffffffffff167f8be0079c531659141344cd1fd0a4f28419497f9722a3daafe3b4186f6b6457e060405160405180910390a35050565b608051611b2761039e600039600081816103f201526104460152611b276000f3fe6080604052600436106100dd5760003560e01c806389a78f1a1161007f578063e0c8628911610059578063e0c8628914610255578063e89e106a1461026c578063f2fde38b14610297578063f6eaffc8146102c0576100dd565b806389a78f1a146101c25780638da5cb5b146101ff578063bfb44bce1461022a576100dd565b80634664611e116100bb5780634664611e1461013e57806348d37a581461016957806361ae01f714610180578063715018a6146101ab576100dd565b80631593a8c7146100e25780631fe543e3146100f95780634304684414610122575b600080fd5b3480156100ee57600080fd5b506100f76102fd565b005b34801561010557600080fd5b50610120600480360381019061011b91906110c6565b6103f0565b005b61013c6004803603810190610137919061115b565b6104b0565b005b34801561014a57600080fd5b50610153610693565b6040516101609190611197565b60405180910390f35b34801561017557600080fd5b5061017e6106a6565b005b34801561018c57600080fd5b5061019561083b565b6040516101a291906111cd565b60405180910390f35b3480156101b757600080fd5b506101c061084e565b005b3480156101ce57600080fd5b506101e960048036038101906101e49190611246565b6108d6565b6040516101f69190611197565b60405180910390f35b34801561020b57600080fd5b506102146108f6565b6040516102219190611282565b60405180910390f35b34801561023657600080fd5b5061023f61091f565b60405161024c91906111cd565b60405180910390f35b34801561026157600080fd5b5061026a610932565b005b34801561027857600080fd5b50610281610bbc565b60405161028e91906112ac565b60405180910390f35b3480156102a357600080fd5b506102be60048036038101906102b99190611246565b610bc2565b005b3480156102cc57600080fd5b506102e760048036038101906102e291906112c7565b610cba565b6040516102f491906112ac565b60405180910390f35b610305610cde565b73ffffffffffffffffffffffffffffffffffffffff166103236108f6565b73ffffffffffffffffffffffffffffffffffffffff1614610379576040517f08c379a000000000000000000000000000000000000000000000000000000000815260040161037090611351565b60405180910390fd5b6001600460006101000a81548160ff02191690831515021790555061039c610932565b600160fe60086000815481106103b5576103b4611371565b5b90600052602060002001546103ca91906113cf565b6103d4919061142f565b600460026101000a81548160ff021916908360ff160217905550565b7f000000000000000000000000000000000000000000000000000000000000000073ffffffffffffffffffffffffffffffffffffffff163373ffffffffffffffffffffffffffffffffffffffff16146104a257337f00000000000000000000000000000000000000000000000000000000000000006040517f1cf993f4000000000000000000000000000000000000000000000000000000008152600401610499929190611485565b60405180910390fd5b6104ac8282610ce6565b5050565b6000600360003373ffffffffffffffffffffffffffffffffffffffff1673ffffffffffffffffffffffffffffffffffffffff16815260200190815260200160002060009054906101000a900460ff1660ff1614610542576040517f08c379a0000000000000000000000000000000000000000000000000000000008152600401610539906114fa565b60405180910390fd5b670de0b6b3a7640000341461058c576040517f08c379a000000000000000000000000000000000000000000000000000000000815260040161058390611566565b60405180910390fd5b60001515600460009054906101000a900460ff161515146105e2576040517f08c379a00000000000000000000000000000000000000000000000000000000081526004016105d9906115d2565b60405180910390fd5b60008160ff161180156105f9575060ff8160ff1611155b610638576040517f08c379a000000000000000000000000000000000000000000000000000000000815260040161062f9061163e565b60405180910390fd5b80600360003373ffffffffffffffffffffffffffffffffffffffff1673ffffffffffffffffffffffffffffffffffffffff16815260200190815260200160002060006101000a81548160ff021916908360ff16021790555050565b600460029054906101000a900460ff1681565b60011515600460009054906101000a900460ff161515146106fc576040517f08c379a00000000000000000000000000000000000000000000000000000000081526004016106f3906116aa565b60405180910390fd5b60001515600460019054906101000a900460ff16151514610752576040517f08c379a000000000000000000000000000000000000000000000000000000000815260040161074990611716565b60405180910390fd5b600460029054906101000a900460ff1660ff16600360003373ffffffffffffffffffffffffffffffffffffffff1673ffffffffffffffffffffffffffffffffffffffff16815260200190815260200160002060009054906101000a900460ff1660ff16146107f5576040517f08c379a00000000000000000000000000000000000000000000000000000000081526004016107ec90611782565b60405180910390fd5b6001600460016101000a81548160ff021916908315150217905550610839473373ffffffffffffffffffffffffffffffffffffffff16610d0190919063ffffffff16565b565b600460019054906101000a900460ff1681565b610856610cde565b73ffffffffffffffffffffffffffffffffffffffff166108746108f6565b73ffffffffffffffffffffffffffffffffffffffff16146108ca576040517f08c379a00000000000000000000000000000000000000000000000000000000081526004016108c190611351565b60405180910390fd5b6108d46000610df5565b565b60036020528060005260406000206000915054906101000a900460ff1681565b60008060009054906101000a900473ffffffffffffffffffffffffffffffffffffffff16905090565b600460009054906101000a900460ff1681565b61093a610cde565b73ffffffffffffffffffffffffffffffffffffffff166109586108f6565b73ffffffffffffffffffffffffffffffffffffffff16146109ae576040517f08c379a00000000000000000000000000000000000000000000000000000000081526004016109a590611351565b60405180910390fd5b600760009054906101000a900463ffffffff1663ffffffff16600260009054906101000a900473ffffffffffffffffffffffffffffffffffffffff1673ffffffffffffffffffffffffffffffffffffffff166370a08231306040518263ffffffff1660e01b8152600401610a229190611282565b60206040518083038186803b158015610a3a57600080fd5b505afa158015610a4e573d6000803e3d6000fd5b505050506040513d601f19601f82011682018060405250810190610a7291906117b7565b1015610ab3576040517f08c379a0000000000000000000000000000000000000000000000000000000008152600401610aaa90611830565b60405180910390fd5b600160009054906101000a900473ffffffffffffffffffffffffffffffffffffffff1673ffffffffffffffffffffffffffffffffffffffff16635d3b1d30600654600460039054906101000a900467ffffffffffffffff16600760049054906101000a900461ffff16600760009054906101000a900463ffffffff16600760069054906101000a900463ffffffff166040518663ffffffff1660e01b8152600401610b629594939291906118c8565b602060405180830381600087803b158015610b7c57600080fd5b505af1158015610b90573d6000803e3d6000fd5b505050506040513d601f19601f82011682018060405250810190610bb491906117b7565b600981905550565b60095481565b610bca610cde565b73ffffffffffffffffffffffffffffffffffffffff16610be86108f6565b73ffffffffffffffffffffffffffffffffffffffff1614610c3e576040517f08c379a0000000000000000000000000000000000000000000000000000000008152600401610c3590611351565b60405180910390fd5b600073ffffffffffffffffffffffffffffffffffffffff168173ffffffffffffffffffffffffffffffffffffffff161415610cae576040517f08c379a0000000000000000000000000000000000000000000000000000000008152600401610ca59061198d565b60405180910390fd5b610cb781610df5565b50565b60088181548110610cca57600080fd5b906000526020600020016000915090505481565b600033905090565b8060089080519060200190610cfc929190610eb9565b505050565b80471015610d44576040517f08c379a0000000000000000000000000000000000000000000000000000000008152600401610d3b906119f9565b60405180910390fd5b60008273ffffffffffffffffffffffffffffffffffffffff1682604051610d6a90611a4a565b60006040518083038185875af1925050503d8060008114610da7576040519150601f19603f3d011682016040523d82523d6000602084013e610dac565b606091505b5050905080610df0576040517f08c379a0000000000000000000000000000000000000000000000000000000008152600401610de790611ad1565b60405180910390fd5b505050565b60008060009054906101000a900473ffffffffffffffffffffffffffffffffffffffff169050816000806101000a81548173ffffffffffffffffffffffffffffffffffffffff021916908373ffffffffffffffffffffffffffffffffffffffff1602179055508173ffffffffffffffffffffffffffffffffffffffff168173ffffffffffffffffffffffffffffffffffffffff167f8be0079c531659141344cd1fd0a4f28419497f9722a3daafe3b4186f6b6457e060405160405180910390a35050565b828054828255906000526020600020908101928215610ef5579160200282015b82811115610ef4578251825591602001919060010190610ed9565b5b509050610f029190610f06565b5090565b5b80821115610f1f576000816000905550600101610f07565b5090565b6000604051905090565b600080fd5b600080fd5b6000819050919050565b610f4a81610f37565b8114610f5557600080fd5b50565b600081359050610f6781610f41565b92915050565b600080fd5b6000601f19601f8301169050919050565b7f4e487b7100000000000000000000000000000000000000000000000000000000600052604160045260246000fd5b610fbb82610f72565b810181811067ffffffffffffffff82111715610fda57610fd9610f83565b5b80604052505050565b6000610fed610f23565b9050610ff98282610fb2565b919050565b600067ffffffffffffffff82111561101957611018610f83565b5b602082029050602081019050919050565b600080fd5b600061104261103d84610ffe565b610fe3565b905080838252602082019050602084028301858111156110655761106461102a565b5b835b8181101561108e578061107a8882610f58565b845260208401935050602081019050611067565b5050509392505050565b600082601f8301126110ad576110ac610f6d565b5b81356110bd84826020860161102f565b91505092915050565b600080604083850312156110dd576110dc610f2d565b5b60006110eb85828601610f58565b925050602083013567ffffffffffffffff81111561110c5761110b610f32565b5b61111885828601611098565b9150509250929050565b600060ff82169050919050565b61113881611122565b811461114357600080fd5b50565b6000813590506111558161112f565b92915050565b60006020828403121561117157611170610f2d565b5b600061117f84828501611146565b91505092915050565b61119181611122565b82525050565b60006020820190506111ac6000830184611188565b92915050565b60008115159050919050565b6111c7816111b2565b82525050565b60006020820190506111e260008301846111be565b92915050565b600073ffffffffffffffffffffffffffffffffffffffff82169050919050565b6000611213826111e8565b9050919050565b61122381611208565b811461122e57600080fd5b50565b6000813590506112408161121a565b92915050565b60006020828403121561125c5761125b610f2d565b5b600061126a84828501611231565b91505092915050565b61127c81611208565b82525050565b60006020820190506112976000830184611273565b92915050565b6112a681610f37565b82525050565b60006020820190506112c1600083018461129d565b92915050565b6000602082840312156112dd576112dc610f2d565b5b60006112eb84828501610f58565b91505092915050565b600082825260208201905092915050565b7f4f776e61626c653a2063616c6c6572206973206e6f7420746865206f776e6572600082015250565b600061133b6020836112f4565b915061134682611305565b602082019050919050565b6000602082019050818103600083015261136a8161132e565b9050919050565b7f4e487b7100000000000000000000000000000000000000000000000000000000600052603260045260246000fd5b7f4e487b7100000000000000000000000000000000000000000000000000000000600052601260045260246000fd5b60006113da82610f37565b91506113e583610f37565b9250826113f5576113f46113a0565b5b828206905092915050565b7f4e487b7100000000000000000000000000000000000000000000000000000000600052601160045260246000fd5b600061143a82610f37565b915061144583610f37565b9250827fffffffffffffffffffffffffffffffffffffffffffffffffffffffffffffffff0382111561147a57611479611400565b5b828201905092915050565b600060408201905061149a6000830185611273565b6114a76020830184611273565b9392505050565b7f4f6e6c792031206265742070657220706c617965720000000000000000000000600082015250565b60006114e46015836112f4565b91506114ef826114ae565b602082019050919050565b60006020820190508181036000830152611513816114d7565b9050919050565b7f42657420636f73743a2031206574686572000000000000000000000000000000600082015250565b60006115506011836112f4565b915061155b8261151a565b602082019050919050565b6000602082019050818103600083015261157f81611543565b9050919050565b7f426574732061726520636c6f7365640000000000000000000000000000000000600082015250565b60006115bc600f836112f4565b91506115c782611586565b602082019050919050565b600060208201905081810360008301526115eb816115af565b9050919050565b7f4d7573742062652061206e756d6265722066726f6d203120746f203235350000600082015250565b6000611628601e836112f4565b9150611633826115f2565b602082019050919050565b600060208201905081810360008301526116578161161b565b9050919050565b7f4265747320617265207374696c6c206f70656e00000000000000000000000000600082015250565b60006116946013836112f4565b915061169f8261165e565b602082019050919050565b600060208201905081810360008301526116c381611687565b9050919050565b7f5072697a6520616c72656164792074616b656e00000000000000000000000000600082015250565b60006117006013836112f4565b915061170b826116ca565b602082019050919050565b6000602082019050818103600083015261172f816116f3565b9050919050565b7f596f75206172656e2774207468652077696e6e65720000000000000000000000600082015250565b600061176c6015836112f4565b915061177782611736565b602082019050919050565b6000602082019050818103600083015261179b8161175f565b9050919050565b6000815190506117b181610f41565b92915050565b6000602082840312156117cd576117cc610f2d565b5b60006117db848285016117a2565b91505092915050565b7f4e6f7420656e6f756768204c494e4b2000000000000000000000000000000000600082015250565b600061181a6010836112f4565b9150611825826117e4565b602082019050919050565b600060208201905081810360008301526118498161180d565b9050919050565b6000819050919050565b61186381611850565b82525050565b600067ffffffffffffffff82169050919050565b61188681611869565b82525050565b600061ffff82169050919050565b6118a38161188c565b82525050565b600063ffffffff82169050919050565b6118c2816118a9565b82525050565b600060a0820190506118dd600083018861185a565b6118ea602083018761187d565b6118f7604083018661189a565b61190460608301856118b9565b61191160808301846118b9565b9695505050505050565b7f4f776e61626c653a206e6577206f776e657220697320746865207a65726f206160008201527f6464726573730000000000000000000000000000000000000000000000000000602082015250565b60006119776026836112f4565b91506119828261191b565b604082019050919050565b600060208201905081810360008301526119a68161196a565b9050919050565b7f416464726573733a20696e73756666696369656e742062616c616e6365000000600082015250565b60006119e3601d836112f4565b91506119ee826119ad565b602082019050919050565b60006020820190508181036000830152611a12816119d6565b9050919050565b600081905092915050565b50565b6000611a34600083611a19565b9150611a3f82611a24565b600082019050919050565b6000611a5582611a27565b9150819050919050565b7f416464726573733a20756e61626c6520746f2073656e642076616c75652c207260008201527f6563697069656e74206d61792068617665207265766572746564000000000000602082015250565b6000611abb603a836112f4565b9150611ac682611a5f565b604082019050919050565b60006020820190508181036000830152611aea81611aae565b905091905056fea2646970667358221220a9c723340105621ea07c395bbca9872944aec5b90dc85de93af6349e08f5411164736f6c63430008090033",
  "linkReferences": {},
  "deployedLinkReferences": {}
}