{
  "_format": "hh-sol-artifact-1",
  "contractName": "SmallWallet",
  "sourceName": "contracts/tx.origin/SmallWallet.sol",
  "abi": [
    {
      "inputs": [],
      "stateMutability": "nonpayable",
      "type": "constructor"
    },
    {
      "inputs": [],
      "name": "owner",
      "outputs": [
        {
          "internalType": "address",
          "name": "",
          "type": "address"
        }
      ],
      "stateMutability": "view",
      "type": "function"
    },
    {
      "inputs": [
        {
          "internalType": "address",
          "name": "_recipient",
          "type": "address"
        }
      ],
      "name": "withdrawAll",
      "outputs": [],
      "stateMutability": "nonpayable",
      "type": "function"
    },
    {
      "stateMutability": "payable",
      "type": "receive"
    }
  ],
  "bytecode": "0x608060405234801561001057600080fd5b50326000806101000a81548173ffffffffffffffffffffffffffffffffffffffff021916908373ffffffffffffffffffffffffffffffffffffffff1602179055506102f6806100606000396000f3fe60806040526004361061002d5760003560e01c80638da5cb5b14610039578063fa09e6301461006457610034565b3661003457005b600080fd5b34801561004557600080fd5b5061004e61008d565b60405161005b91906101ca565b60405180910390f35b34801561007057600080fd5b5061008b60048036038101906100869190610216565b6100b1565b005b60008054906101000a900473ffffffffffffffffffffffffffffffffffffffff1681565b60008054906101000a900473ffffffffffffffffffffffffffffffffffffffff1673ffffffffffffffffffffffffffffffffffffffff163373ffffffffffffffffffffffffffffffffffffffff161461013f576040517f08c379a0000000000000000000000000000000000000000000000000000000008152600401610136906102a0565b60405180910390fd5b8073ffffffffffffffffffffffffffffffffffffffff166108fc479081150290604051600060405180830381858888f19350505050158015610185573d6000803e3d6000fd5b5050565b600073ffffffffffffffffffffffffffffffffffffffff82169050919050565b60006101b482610189565b9050919050565b6101c4816101a9565b82525050565b60006020820190506101df60008301846101bb565b92915050565b600080fd5b6101f3816101a9565b81146101fe57600080fd5b50565b600081359050610210816101ea565b92915050565b60006020828403121561022c5761022b6101e5565b5b600061023a84828501610201565b91505092915050565b600082825260208201905092915050565b7f43616c6c6572206e6f7420617574686f72697a65640000000000000000000000600082015250565b600061028a601583610243565b915061029582610254565b602082019050919050565b600060208201905081810360008301526102b98161027d565b905091905056fea2646970667358221220d8c12d17cf3551c43d198da66833c350763bf194c585790728f8d8c7f484160064736f6c63430008090033",
  "linkReferences": {},
  "deployedLinkReferences": {}
}