{
  "_format": "hh-sol-artifact-1",
  "contractName": "Vault",
  "sourceName": "contracts/unencrypted data/Vault.sol",
  "abi": [
    {
      "inputs": [
        {
          "internalType": "bytes32",
          "name": "_password",
          "type": "bytes32"
        }
      ],
      "stateMutability": "nonpayable",
      "type": "constructor"
    },
    {
      "anonymous": false,
      "inputs": [
        {
          "indexed": true,
          "internalType": "address",
          "name": "previousOwner",
          "type": "address"
        },
        {
          "indexed": true,
          "internalType": "address",
          "name": "newOwner",
          "type": "address"
        }
      ],
      "name": "OwnershipTransferred",
      "type": "event"
    },
    {
      "inputs": [],
      "name": "deposit",
      "outputs": [],
      "stateMutability": "payable",
      "type": "function"
    },
    {
      "inputs": [],
      "name": "owner",
      "outputs": [
        {
          "internalType": "address",
          "name": "",
          "type": "address"
        }
      ],
      "stateMutability": "view",
      "type": "function"
    },
    {
      "inputs": [],
      "name": "renounceOwnership",
      "outputs": [],
      "stateMutability": "nonpayable",
      "type": "function"
    },
    {
      "inputs": [
        {
          "internalType": "address",
          "name": "newOwner",
          "type": "address"
        }
      ],
      "name": "transferOwnership",
      "outputs": [],
      "stateMutability": "nonpayable",
      "type": "function"
    },
    {
      "inputs": [
        {
          "internalType": "bytes32",
          "name": "_password",
          "type": "bytes32"
        }
      ],
      "name": "withdraw",
      "outputs": [],
      "stateMutability": "nonpayable",
      "type": "function"
    }
  ],
  "bytecode": "0x608060405234801561001057600080fd5b506040516109a03803806109a083398181016040528101906100329190610188565b61004e61004361008160201b60201c565b61008960201b60201c565b8060405160200161005f91906101d6565b60405160208183030381529060405280519060200120600181905550506101f1565b600033905090565b60008060009054906101000a900473ffffffffffffffffffffffffffffffffffffffff169050816000806101000a81548173ffffffffffffffffffffffffffffffffffffffff021916908373ffffffffffffffffffffffffffffffffffffffff1602179055508173ffffffffffffffffffffffffffffffffffffffff168173ffffffffffffffffffffffffffffffffffffffff167f8be0079c531659141344cd1fd0a4f28419497f9722a3daafe3b4186f6b6457e060405160405180910390a35050565b600080fd5b6000819050919050565b61016581610152565b811461017057600080fd5b50565b6000815190506101828161015c565b92915050565b60006020828403121561019e5761019d61014d565b5b60006101ac84828501610173565b91505092915050565b6000819050919050565b6101d06101cb82610152565b6101b5565b82525050565b60006101e282846101bf565b60208201915081905092915050565b6107a0806102006000396000f3fe60806040526004361061004a5760003560e01c8063715018a61461004f5780638da5cb5b146100665780638e19899e14610091578063d0e30db0146100ba578063f2fde38b146100c4575b600080fd5b34801561005b57600080fd5b506100646100ed565b005b34801561007257600080fd5b5061007b610175565b60405161008891906104d7565b60405180910390f35b34801561009d57600080fd5b506100b860048036038101906100b3919061052d565b61019e565b005b6100c2610254565b005b3480156100d057600080fd5b506100eb60048036038101906100e69190610586565b6102d2565b005b6100f56103ca565b73ffffffffffffffffffffffffffffffffffffffff16610113610175565b73ffffffffffffffffffffffffffffffffffffffff1614610169576040517f08c379a000000000000000000000000000000000000000000000000000000000815260040161016090610610565b60405180910390fd5b61017360006103d2565b565b60008060009054906101000a900473ffffffffffffffffffffffffffffffffffffffff16905090565b80806040516020016101b09190610651565b6040516020818303038152906040528051906020012060015414610209576040517f08c379a0000000000000000000000000000000000000000000000000000000008152600401610200906106b8565b60405180910390fd5b3373ffffffffffffffffffffffffffffffffffffffff166108fc479081150290604051600060405180830381858888f1935050505015801561024f573d6000803e3d6000fd5b505050565b61025c6103ca565b73ffffffffffffffffffffffffffffffffffffffff1661027a610175565b73ffffffffffffffffffffffffffffffffffffffff16146102d0576040517f08c379a00000000000000000000000000000000000000000000000000000000081526004016102c790610610565b60405180910390fd5b565b6102da6103ca565b73ffffffffffffffffffffffffffffffffffffffff166102f8610175565b73ffffffffffffffffffffffffffffffffffffffff161461034e576040517f08c379a000000000000000000000000000000000000000000000000000000000815260040161034590610610565b60405180910390fd5b600073ffffffffffffffffffffffffffffffffffffffff168173ffffffffffffffffffffffffffffffffffffffff1614156103be576040517f08c379a00000000000000000000000000000000000000000000000000000000081526004016103b59061074a565b60405180910390fd5b6103c7816103d2565b50565b600033905090565b60008060009054906101000a900473ffffffffffffffffffffffffffffffffffffffff169050816000806101000a81548173ffffffffffffffffffffffffffffffffffffffff021916908373ffffffffffffffffffffffffffffffffffffffff1602179055508173ffffffffffffffffffffffffffffffffffffffff168173ffffffffffffffffffffffffffffffffffffffff167f8be0079c531659141344cd1fd0a4f28419497f9722a3daafe3b4186f6b6457e060405160405180910390a35050565b600073ffffffffffffffffffffffffffffffffffffffff82169050919050565b60006104c182610496565b9050919050565b6104d1816104b6565b82525050565b60006020820190506104ec60008301846104c8565b92915050565b600080fd5b6000819050919050565b61050a816104f7565b811461051557600080fd5b50565b60008135905061052781610501565b92915050565b600060208284031215610543576105426104f2565b5b600061055184828501610518565b91505092915050565b610563816104b6565b811461056e57600080fd5b50565b6000813590506105808161055a565b92915050565b60006020828403121561059c5761059b6104f2565b5b60006105aa84828501610571565b91505092915050565b600082825260208201905092915050565b7f4f776e61626c653a2063616c6c6572206973206e6f7420746865206f776e6572600082015250565b60006105fa6020836105b3565b9150610605826105c4565b602082019050919050565b60006020820190508181036000830152610629816105ed565b9050919050565b6000819050919050565b61064b610646826104f7565b610630565b82525050565b600061065d828461063a565b60208201915081905092915050565b7f57726f6e672070617373776f72642e0000000000000000000000000000000000600082015250565b60006106a2600f836105b3565b91506106ad8261066c565b602082019050919050565b600060208201905081810360008301526106d181610695565b9050919050565b7f4f776e61626c653a206e6577206f776e657220697320746865207a65726f206160008201527f6464726573730000000000000000000000000000000000000000000000000000602082015250565b60006107346026836105b3565b915061073f826106d8565b604082019050919050565b6000602082019050818103600083015261076381610727565b905091905056fea26469706673582212209e1278b74bcb761ec2687efeba9a23bb849ab539ded2e0590bae5db908b31b1b64736f6c63430008090033",
  "linkReferences": {},
  "deployedLinkReferences": {}
}