{
  "_format": "hh-sol-artifact-1",
  "contractName": "EtbTokenV2",
  "sourceName": "contracts/final-project-solution/EtbTokenV2.sol",
  "abi": [
    {
      "inputs": [
        {
          "internalType": "uint256",
          "name": "initialSupply",
          "type": "uint256"
        }
      ],
      "stateMutability": "nonpayable",
      "type": "constructor"
    },
    {
      "anonymous": false,
      "inputs": [
        {
          "indexed": true,
          "internalType": "address",
          "name": "previousOwner",
          "type": "address"
        },
        {
          "indexed": true,
          "internalType": "address",
          "name": "newOwner",
          "type": "address"
        }
      ],
      "name": "OwnershipTransferred",
      "type": "event"
    },
    {
      "inputs": [
        {
          "internalType": "address",
          "name": "balanceOwner",
          "type": "address"
        },
        {
          "internalType": "address",
          "name": "spender",
          "type": "address"
        }
      ],
      "name": "allowanceOf",
      "outputs": [
        {
          "internalType": "uint256",
          "name": "",
          "type": "uint256"
        }
      ],
      "stateMutability": "view",
      "type": "function"
    },
    {
      "inputs": [
        {
          "internalType": "address",
          "name": "spender",
          "type": "address"
        },
        {
          "internalType": "uint256",
          "name": "amount",
          "type": "uint256"
        }
      ],
      "name": "approve",
      "outputs": [],
      "stateMutability": "nonpayable",
      "type": "function"
    },
    {
      "inputs": [
        {
          "internalType": "address",
          "name": "account",
          "type": "address"
        }
      ],
      "name": "balanceOf",
      "outputs": [
        {
          "internalType": "uint256",
          "name": "",
          "type": "uint256"
        }
      ],
      "stateMutability": "view",
      "type": "function"
    },
    {
      "inputs": [
        {
          "internalType": "address",
          "name": "",
          "type": "address"
        }
      ],
      "name": "balances",
      "outputs": [
        {
          "internalType": "uint256",
          "name": "",
          "type": "uint256"
        }
      ],
      "stateMutability": "view",
      "type": "function"
    },
    {
      "inputs": [
        {
          "internalType": "address",
          "name": "account",
          "type": "address"
        },
        {
          "internalType": "uint256",
          "name": "amount",
          "type": "uint256"
        }
      ],
      "name": "burn",
      "outputs": [],
      "stateMutability": "nonpayable",
      "type": "function"
    },
    {
      "inputs": [],
      "name": "decimals",
      "outputs": [
        {
          "internalType": "uint8",
          "name": "",
          "type": "uint8"
        }
      ],
      "stateMutability": "view",
      "type": "function"
    },
    {
      "inputs": [],
      "name": "etbDex",
      "outputs": [
        {
          "internalType": "address",
          "name": "",
          "type": "address"
        }
      ],
      "stateMutability": "view",
      "type": "function"
    },
    {
      "inputs": [
        {
          "internalType": "uint256",
          "name": "amount",
          "type": "uint256"
        }
      ],
      "name": "mint",
      "outputs": [],
      "stateMutability": "nonpayable",
      "type": "function"
    },
    {
      "inputs": [],
      "name": "name",
      "outputs": [
        {
          "internalType": "string",
          "name": "",
          "type": "string"
        }
      ],
      "stateMutability": "view",
      "type": "function"
    },
    {
      "inputs": [],
      "name": "owner",
      "outputs": [
        {
          "internalType": "address",
          "name": "",
          "type": "address"
        }
      ],
      "stateMutability": "view",
      "type": "function"
    },
    {
      "inputs": [],
      "name": "renounceOwnership",
      "outputs": [],
      "stateMutability": "nonpayable",
      "type": "function"
    },
    {
      "inputs": [
        {
          "internalType": "address",
          "name": "_dex",
          "type": "address"
        }
      ],
      "name": "setDexAddress",
      "outputs": [],
      "stateMutability": "nonpayable",
      "type": "function"
    },
    {
      "inputs": [],
      "name": "symbol",
      "outputs": [
        {
          "internalType": "string",
          "name": "",
          "type": "string"
        }
      ],
      "stateMutability": "view",
      "type": "function"
    },
    {
      "inputs": [],
      "name": "totalSupply",
      "outputs": [
        {
          "internalType": "uint256",
          "name": "",
          "type": "uint256"
        }
      ],
      "stateMutability": "view",
      "type": "function"
    },
    {
      "inputs": [
        {
          "internalType": "address",
          "name": "recipient",
          "type": "address"
        },
        {
          "internalType": "uint256",
          "name": "amount",
          "type": "uint256"
        }
      ],
      "name": "transfer",
      "outputs": [],
      "stateMutability": "nonpayable",
      "type": "function"
    },
    {
      "inputs": [
        {
          "internalType": "address",
          "name": "sender",
          "type": "address"
        },
        {
          "internalType": "address",
          "name": "recipient",
          "type": "address"
        },
        {
          "internalType": "uint256",
          "name": "amount",
          "type": "uint256"
        }
      ],
      "name": "transferFrom",
      "outputs": [
        {
          "internalType": "bool",
          "name": "",
          "type": "bool"
        }
      ],
      "stateMutability": "nonpayable",
      "type": "function"
    },
    {
      "inputs": [
        {
          "internalType": "address",
          "name": "newOwner",
          "type": "address"
        }
      ],
      "name": "transferOwnership",
      "outputs": [],
      "stateMutability": "nonpayable",
      "type": "function"
    }
  ],
  "bytecode": "0x60806040526040518060400160405280601381526020017f4561742074686520426c6f636b20546f6b656e0000000000000000000000000081525060039080519060200190620000519291906200022d565b506040518060400160405280600481526020017f4554425400000000000000000000000000000000000000000000000000000000815250600490805190602001906200009f9291906200022d565b506012600560006101000a81548160ff021916908360ff160217905550348015620000c957600080fd5b5060405162001b9a38038062001b9a8339818101604052810190620000ef91906200031d565b6200010f620001036200016160201b60201c565b6200016960201b60201c565b8060028190555080600660003373ffffffffffffffffffffffffffffffffffffffff1673ffffffffffffffffffffffffffffffffffffffff1681526020019081526020016000208190555050620003b4565b600033905090565b60008060009054906101000a900473ffffffffffffffffffffffffffffffffffffffff169050816000806101000a81548173ffffffffffffffffffffffffffffffffffffffff021916908373ffffffffffffffffffffffffffffffffffffffff1602179055508173ffffffffffffffffffffffffffffffffffffffff168173ffffffffffffffffffffffffffffffffffffffff167f8be0079c531659141344cd1fd0a4f28419497f9722a3daafe3b4186f6b6457e060405160405180910390a35050565b8280546200023b906200037e565b90600052602060002090601f0160209004810192826200025f5760008555620002ab565b82601f106200027a57805160ff1916838001178555620002ab565b82800160010185558215620002ab579182015b82811115620002aa5782518255916020019190600101906200028d565b5b509050620002ba9190620002be565b5090565b5b80821115620002d9576000816000905550600101620002bf565b5090565b600080fd5b6000819050919050565b620002f781620002e2565b81146200030357600080fd5b50565b6000815190506200031781620002ec565b92915050565b600060208284031215620003365762000335620002dd565b5b6000620003468482850162000306565b91505092915050565b7f4e487b7100000000000000000000000000000000000000000000000000000000600052602260045260246000fd5b600060028204905060018216806200039757607f821691505b60208210811415620003ae57620003ad6200034f565b5b50919050565b6117d680620003c46000396000f3fe608060405234801561001057600080fd5b506004361061010b5760003560e01c806370a08231116100a25780639dc29fac116100715780639dc29fac146102a8578063a0712d68146102c4578063a9059cbb146102e0578063c4500207146102fc578063f2fde38b1461031a5761010b565b806370a0823114610232578063715018a6146102625780638da5cb5b1461026c57806395d89b411461028a5761010b565b806323b872dd116100de57806323b872dd1461019857806326f9a952146101c857806327e235e3146101e4578063313ce567146102145761010b565b806306fdde0314610110578063095ea7b31461012e57806318160ddd1461014a5780631a46ec8214610168575b600080fd5b610118610336565b6040516101259190611077565b60405180910390f35b61014860048036038101906101439190611132565b6103c4565b005b6101526104b9565b60405161015f9190611181565b60405180910390f35b610182600480360381019061017d919061119c565b6104bf565b60405161018f9190611181565b60405180910390f35b6101b260048036038101906101ad91906111dc565b610546565b6040516101bf919061124a565b60405180910390f35b6101e260048036038101906101dd9190611265565b6107d3565b005b6101fe60048036038101906101f99190611265565b610893565b60405161020b9190611181565b60405180910390f35b61021c6108ab565b60405161022991906112ae565b60405180910390f35b61024c60048036038101906102479190611265565b6108be565b6040516102599190611181565b60405180910390f35b61026a610907565b005b61027461098f565b60405161028191906112d8565b60405180910390f35b6102926109b8565b60405161029f9190611077565b60405180910390f35b6102c260048036038101906102bd9190611132565b610a46565b005b6102de60048036038101906102d991906112f3565b610b49565b005b6102fa60048036038101906102f59190611132565b610c52565b005b610304610df4565b60405161031191906112d8565b60405180910390f35b610334600480360381019061032f9190611265565b610e1a565b005b600380546103439061134f565b80601f016020809104026020016040519081016040528092919081815260200182805461036f9061134f565b80156103bc5780601f10610391576101008083540402835291602001916103bc565b820191906000526020600020905b81548152906001019060200180831161039f57829003601f168201915b505050505081565b600073ffffffffffffffffffffffffffffffffffffffff168273ffffffffffffffffffffffffffffffffffffffff161415610434576040517f08c379a000000000000000000000000000000000000000000000000000000000815260040161042b906113f3565b60405180910390fd5b80600760003373ffffffffffffffffffffffffffffffffffffffff1673ffffffffffffffffffffffffffffffffffffffff16815260200190815260200160002060008473ffffffffffffffffffffffffffffffffffffffff1673ffffffffffffffffffffffffffffffffffffffff168152602001908152602001600020819055505050565b60025481565b6000600760008473ffffffffffffffffffffffffffffffffffffffff1673ffffffffffffffffffffffffffffffffffffffff16815260200190815260200160002060008373ffffffffffffffffffffffffffffffffffffffff1673ffffffffffffffffffffffffffffffffffffffff16815260200190815260200160002054905092915050565b600081600760008673ffffffffffffffffffffffffffffffffffffffff1673ffffffffffffffffffffffffffffffffffffffff16815260200190815260200160002060003373ffffffffffffffffffffffffffffffffffffffff1673ffffffffffffffffffffffffffffffffffffffff168152602001908152602001600020541015610607576040517f08c379a00000000000000000000000000000000000000000000000000000000081526004016105fe9061145f565b60405180910390fd5b81600660008673ffffffffffffffffffffffffffffffffffffffff1673ffffffffffffffffffffffffffffffffffffffff168152602001908152602001600020541015610689576040517f08c379a0000000000000000000000000000000000000000000000000000000008152600401610680906114cb565b60405180910390fd5b81600760008673ffffffffffffffffffffffffffffffffffffffff1673ffffffffffffffffffffffffffffffffffffffff16815260200190815260200160002060003373ffffffffffffffffffffffffffffffffffffffff1673ffffffffffffffffffffffffffffffffffffffff1681526020019081526020016000206000828254610715919061151a565b9250508190555081600660008673ffffffffffffffffffffffffffffffffffffffff1673ffffffffffffffffffffffffffffffffffffffff168152602001908152602001600020600082825461076b919061151a565b9250508190555081600660008573ffffffffffffffffffffffffffffffffffffffff1673ffffffffffffffffffffffffffffffffffffffff16815260200190815260200160002060008282546107c1919061154e565b92505081905550600190509392505050565b6107db610f12565b73ffffffffffffffffffffffffffffffffffffffff166107f961098f565b73ffffffffffffffffffffffffffffffffffffffff161461084f576040517f08c379a0000000000000000000000000000000000000000000000000000000008152600401610846906115f0565b60405180910390fd5b80600160006101000a81548173ffffffffffffffffffffffffffffffffffffffff021916908373ffffffffffffffffffffffffffffffffffffffff16021790555050565b60066020528060005260406000206000915090505481565b600560009054906101000a900460ff1681565b6000600660008373ffffffffffffffffffffffffffffffffffffffff1673ffffffffffffffffffffffffffffffffffffffff168152602001908152602001600020549050919050565b61090f610f12565b73ffffffffffffffffffffffffffffffffffffffff1661092d61098f565b73ffffffffffffffffffffffffffffffffffffffff1614610983576040517f08c379a000000000000000000000000000000000000000000000000000000000815260040161097a906115f0565b60405180910390fd5b61098d6000610f1a565b565b60008060009054906101000a900473ffffffffffffffffffffffffffffffffffffffff16905090565b600480546109c59061134f565b80601f01602080910402602001604051908101604052809291908181526020018280546109f19061134f565b8015610a3e5780601f10610a1357610100808354040283529160200191610a3e565b820191906000526020600020905b815481529060010190602001808311610a2157829003601f168201915b505050505081565b600160009054906101000a900473ffffffffffffffffffffffffffffffffffffffff1673ffffffffffffffffffffffffffffffffffffffff163373ffffffffffffffffffffffffffffffffffffffff1614610ad6576040517f08c379a0000000000000000000000000000000000000000000000000000000008152600401610acd9061165c565b60405180910390fd5b8060026000828254610ae8919061151a565b9250508190555080600660008473ffffffffffffffffffffffffffffffffffffffff1673ffffffffffffffffffffffffffffffffffffffff1681526020019081526020016000206000828254610b3e919061151a565b925050819055505050565b600160009054906101000a900473ffffffffffffffffffffffffffffffffffffffff1673ffffffffffffffffffffffffffffffffffffffff163373ffffffffffffffffffffffffffffffffffffffff1614610bd9576040517f08c379a0000000000000000000000000000000000000000000000000000000008152600401610bd09061165c565b60405180910390fd5b8060026000828254610beb919061154e565b925050819055508060066000610bff61098f565b73ffffffffffffffffffffffffffffffffffffffff1673ffffffffffffffffffffffffffffffffffffffff1681526020019081526020016000206000828254610c48919061154e565b9250508190555050565b600073ffffffffffffffffffffffffffffffffffffffff168273ffffffffffffffffffffffffffffffffffffffff161415610cc2576040517f08c379a0000000000000000000000000000000000000000000000000000000008152600401610cb9906116ee565b60405180910390fd5b80600660003373ffffffffffffffffffffffffffffffffffffffff1673ffffffffffffffffffffffffffffffffffffffff168152602001908152602001600020541015610d44576040517f08c379a0000000000000000000000000000000000000000000000000000000008152600401610d3b906114cb565b60405180910390fd5b80600660003373ffffffffffffffffffffffffffffffffffffffff1673ffffffffffffffffffffffffffffffffffffffff1681526020019081526020016000206000828254610d93919061151a565b9250508190555080600660008473ffffffffffffffffffffffffffffffffffffffff1673ffffffffffffffffffffffffffffffffffffffff1681526020019081526020016000206000828254610de9919061154e565b925050819055505050565b600160009054906101000a900473ffffffffffffffffffffffffffffffffffffffff1681565b610e22610f12565b73ffffffffffffffffffffffffffffffffffffffff16610e4061098f565b73ffffffffffffffffffffffffffffffffffffffff1614610e96576040517f08c379a0000000000000000000000000000000000000000000000000000000008152600401610e8d906115f0565b60405180910390fd5b600073ffffffffffffffffffffffffffffffffffffffff168173ffffffffffffffffffffffffffffffffffffffff161415610f06576040517f08c379a0000000000000000000000000000000000000000000000000000000008152600401610efd90611780565b60405180910390fd5b610f0f81610f1a565b50565b600033905090565b60008060009054906101000a900473ffffffffffffffffffffffffffffffffffffffff169050816000806101000a81548173ffffffffffffffffffffffffffffffffffffffff021916908373ffffffffffffffffffffffffffffffffffffffff1602179055508173ffffffffffffffffffffffffffffffffffffffff168173ffffffffffffffffffffffffffffffffffffffff167f8be0079c531659141344cd1fd0a4f28419497f9722a3daafe3b4186f6b6457e060405160405180910390a35050565b600081519050919050565b600082825260208201905092915050565b60005b83811015611018578082015181840152602081019050610ffd565b83811115611027576000848401525b50505050565b6000601f19601f8301169050919050565b600061104982610fde565b6110538185610fe9565b9350611063818560208601610ffa565b61106c8161102d565b840191505092915050565b60006020820190508181036000830152611091818461103e565b905092915050565b600080fd5b600073ffffffffffffffffffffffffffffffffffffffff82169050919050565b60006110c98261109e565b9050919050565b6110d9816110be565b81146110e457600080fd5b50565b6000813590506110f6816110d0565b92915050565b6000819050919050565b61110f816110fc565b811461111a57600080fd5b50565b60008135905061112c81611106565b92915050565b6000806040838503121561114957611148611099565b5b6000611157858286016110e7565b92505060206111688582860161111d565b9150509250929050565b61117b816110fc565b82525050565b60006020820190506111966000830184611172565b92915050565b600080604083850312156111b3576111b2611099565b5b60006111c1858286016110e7565b92505060206111d2858286016110e7565b9150509250929050565b6000806000606084860312156111f5576111f4611099565b5b6000611203868287016110e7565b9350506020611214868287016110e7565b92505060406112258682870161111d565b9150509250925092565b60008115159050919050565b6112448161122f565b82525050565b600060208201905061125f600083018461123b565b92915050565b60006020828403121561127b5761127a611099565b5b6000611289848285016110e7565b91505092915050565b600060ff82169050919050565b6112a881611292565b82525050565b60006020820190506112c3600083018461129f565b92915050565b6112d2816110be565b82525050565b60006020820190506112ed60008301846112c9565b92915050565b60006020828403121561130957611308611099565b5b60006113178482850161111d565b91505092915050565b7f4e487b7100000000000000000000000000000000000000000000000000000000600052602260045260246000fd5b6000600282049050600182168061136757607f821691505b6020821081141561137b5761137a611320565b5b50919050565b7f45524332303a20617070726f766520746f20746865207a65726f20616464726560008201527f7373000000000000000000000000000000000000000000000000000000000000602082015250565b60006113dd602283610fe9565b91506113e882611381565b604082019050919050565b6000602082019050818103600083015261140c816113d0565b9050919050565b7f45524332303a20616d6f756e74206578636565647320616c6c6f77616e636500600082015250565b6000611449601f83610fe9565b915061145482611413565b602082019050919050565b600060208201905081810360008301526114788161143c565b9050919050565b7f4e6f7420656e6f7567682062616c616e63650000000000000000000000000000600082015250565b60006114b5601283610fe9565b91506114c08261147f565b602082019050919050565b600060208201905081810360008301526114e4816114a8565b9050919050565b7f4e487b7100000000000000000000000000000000000000000000000000000000600052601160045260246000fd5b6000611525826110fc565b9150611530836110fc565b925082821015611543576115426114eb565b5b828203905092915050565b6000611559826110fc565b9150611564836110fc565b9250827fffffffffffffffffffffffffffffffffffffffffffffffffffffffffffffffff03821115611599576115986114eb565b5b828201905092915050565b7f4f776e61626c653a2063616c6c6572206973206e6f7420746865206f776e6572600082015250565b60006115da602083610fe9565b91506115e5826115a4565b602082019050919050565b60006020820190508181036000830152611609816115cd565b9050919050565b7f5265737472696374656420416363657373000000000000000000000000000000600082015250565b6000611646601183610fe9565b915061165182611610565b602082019050919050565b6000602082019050818103600083015261167581611639565b9050919050565b7f45524332303a207472616e736665722066726f6d20746865207a65726f20616460008201527f6472657373000000000000000000000000000000000000000000000000000000602082015250565b60006116d8602583610fe9565b91506116e38261167c565b604082019050919050565b60006020820190508181036000830152611707816116cb565b9050919050565b7f4f776e61626c653a206e6577206f776e657220697320746865207a65726f206160008201527f6464726573730000000000000000000000000000000000000000000000000000602082015250565b600061176a602683610fe9565b91506117758261170e565b604082019050919050565b600060208201905081810360008301526117998161175d565b905091905056fea26469706673582212206aa830e6f40cc59b9356b7d2ae360325747de824ba16bc1832ce61b69772f3c864736f6c63430008090033",
  "linkReferences": {},
  "deployedLinkReferences": {}
}