{
  "_format": "hh-sol-artifact-1",
  "contractName": "LoteryV2",
  "sourceName": "contracts/weak-randomness/LotteryV2_VRF1.sol",
  "abi": [
    {
      "inputs": [],
      "stateMutability": "nonpayable",
      "type": "constructor"
    },
    {
      "anonymous": false,
      "inputs": [
        {
          "indexed": true,
          "internalType": "address",
          "name": "previousOwner",
          "type": "address"
        },
        {
          "indexed": true,
          "internalType": "address",
          "name": "newOwner",
          "type": "address"
        }
      ],
      "name": "OwnershipTransferred",
      "type": "event"
    },
    {
      "inputs": [
        {
          "internalType": "address",
          "name": "",
          "type": "address"
        }
      ],
      "name": "bets",
      "outputs": [
        {
          "internalType": "uint8",
          "name": "",
          "type": "uint8"
        }
      ],
      "stateMutability": "view",
      "type": "function"
    },
    {
      "inputs": [],
      "name": "betsClosed",
      "outputs": [
        {
          "internalType": "bool",
          "name": "",
          "type": "bool"
        }
      ],
      "stateMutability": "view",
      "type": "function"
    },
    {
      "inputs": [],
      "name": "endLottery",
      "outputs": [],
      "stateMutability": "nonpayable",
      "type": "function"
    },
    {
      "inputs": [],
      "name": "getRandomNumber",
      "outputs": [
        {
          "internalType": "bytes32",
          "name": "requestId",
          "type": "bytes32"
        }
      ],
      "stateMutability": "nonpayable",
      "type": "function"
    },
    {
      "inputs": [],
      "name": "owner",
      "outputs": [
        {
          "internalType": "address",
          "name": "",
          "type": "address"
        }
      ],
      "stateMutability": "view",
      "type": "function"
    },
    {
      "inputs": [
        {
          "internalType": "uint8",
          "name": "_number",
          "type": "uint8"
        }
      ],
      "name": "placeBet",
      "outputs": [],
      "stateMutability": "payable",
      "type": "function"
    },
    {
      "inputs": [],
      "name": "prizeTaken",
      "outputs": [
        {
          "internalType": "bool",
          "name": "",
          "type": "bool"
        }
      ],
      "stateMutability": "view",
      "type": "function"
    },
    {
      "inputs": [],
      "name": "randomResult",
      "outputs": [
        {
          "internalType": "uint256",
          "name": "",
          "type": "uint256"
        }
      ],
      "stateMutability": "view",
      "type": "function"
    },
    {
      "inputs": [
        {
          "internalType": "bytes32",
          "name": "requestId",
          "type": "bytes32"
        },
        {
          "internalType": "uint256",
          "name": "randomness",
          "type": "uint256"
        }
      ],
      "name": "rawFulfillRandomness",
      "outputs": [],
      "stateMutability": "nonpayable",
      "type": "function"
    },
    {
      "inputs": [],
      "name": "renounceOwnership",
      "outputs": [],
      "stateMutability": "nonpayable",
      "type": "function"
    },
    {
      "inputs": [
        {
          "internalType": "address",
          "name": "newOwner",
          "type": "address"
        }
      ],
      "name": "transferOwnership",
      "outputs": [],
      "stateMutability": "nonpayable",
      "type": "function"
    },
    {
      "inputs": [],
      "name": "winningNumber",
      "outputs": [
        {
          "internalType": "uint8",
          "name": "",
          "type": "uint8"
        }
      ],
      "stateMutability": "view",
      "type": "function"
    },
    {
      "inputs": [],
      "name": "withdrawPrize",
      "outputs": [],
      "stateMutability": "nonpayable",
      "type": "function"
    }
  ],
  "bytecode": "0x60c060405234801561001057600080fd5b5073dd3782915140c8f3b190b5d67eac6dc5760c46e973a36085f69e2889c224210f603d836748e7dc00888173ffffffffffffffffffffffffffffffffffffffff1660a08173ffffffffffffffffffffffffffffffffffffffff16815250508073ffffffffffffffffffffffffffffffffffffffff1660808173ffffffffffffffffffffffffffffffffffffffff168152505050506100c16100b66100ff60201b60201c565b61010760201b60201c565b7f6c3699283bda56ad74f6b855546325b68d482e983852a7a82979cc4807b641f460001b60048190555067016345785d8a00006005819055506101cd565b600033905090565b6000600160009054906101000a900473ffffffffffffffffffffffffffffffffffffffff16905081600160006101000a81548173ffffffffffffffffffffffffffffffffffffffff021916908373ffffffffffffffffffffffffffffffffffffffff1602179055508173ffffffffffffffffffffffffffffffffffffffff168173ffffffffffffffffffffffffffffffffffffffff167f8be0079c531659141344cd1fd0a4f28419497f9722a3daafe3b4186f6b6457e060405160405180910390a35050565b60805160a051611a6f610200600039600081816107ff0152610cb30152600081816108b30152610c770152611a6f6000f3fe6080604052600436106100c25760003560e01c8063715018a61161007f57806394985ddd1161005957806394985ddd14610211578063bfb44bce1461023a578063dbdff2c114610265578063f2fde38b14610290576100c2565b8063715018a61461019257806389a78f1a146101a95780638da5cb5b146101e6576100c2565b80631593a8c7146100c757806342619f66146100de57806343046844146101095780634664611e1461012557806348d37a581461015057806361ae01f714610167575b600080fd5b3480156100d357600080fd5b506100dc6102b9565b005b3480156100ea57600080fd5b506100f3610387565b6040516101009190610e5a565b60405180910390f35b610123600480360381019061011e9190610eb3565b61038d565b005b34801561013157600080fd5b5061013a610570565b6040516101479190610eef565b60405180910390f35b34801561015c57600080fd5b50610165610583565b005b34801561017357600080fd5b5061017c610718565b6040516101899190610f25565b60405180910390f35b34801561019e57600080fd5b506101a761072b565b005b3480156101b557600080fd5b506101d060048036038101906101cb9190610f9e565b6107b3565b6040516101dd9190610eef565b60405180910390f35b3480156101f257600080fd5b506101fb6107d3565b6040516102089190610fda565b60405180910390f35b34801561021d57600080fd5b5061023860048036038101906102339190611057565b6107fd565b005b34801561024657600080fd5b5061024f610899565b60405161025c9190610f25565b60405180910390f35b34801561027157600080fd5b5061027a6108ac565b60405161028791906110a6565b60405180910390f35b34801561029c57600080fd5b506102b760048036038101906102b29190610f9e565b6109ae565b005b6102c1610aa6565b73ffffffffffffffffffffffffffffffffffffffff166102df6107d3565b73ffffffffffffffffffffffffffffffffffffffff1614610335576040517f08c379a000000000000000000000000000000000000000000000000000000000815260040161032c9061111e565b60405180910390fd5b6001600360006101000a81548160ff021916908315150217905550600160fe600654610361919061116d565b61036b91906111cd565b600760006101000a81548160ff021916908360ff160217905550565b60065481565b6000600260003373ffffffffffffffffffffffffffffffffffffffff1673ffffffffffffffffffffffffffffffffffffffff16815260200190815260200160002060009054906101000a900460ff1660ff161461041f576040517f08c379a00000000000000000000000000000000000000000000000000000000081526004016104169061126f565b60405180910390fd5b678ac7230489e800003414610469576040517f08c379a0000000000000000000000000000000000000000000000000000000008152600401610460906112db565b60405180910390fd5b60001515600360009054906101000a900460ff161515146104bf576040517f08c379a00000000000000000000000000000000000000000000000000000000081526004016104b690611347565b60405180910390fd5b60008160ff161180156104d6575060ff8160ff1611155b610515576040517f08c379a000000000000000000000000000000000000000000000000000000000815260040161050c906113b3565b60405180910390fd5b80600260003373ffffffffffffffffffffffffffffffffffffffff1673ffffffffffffffffffffffffffffffffffffffff16815260200190815260200160002060006101000a81548160ff021916908360ff16021790555050565b600760009054906101000a900460ff1681565b60011515600360009054906101000a900460ff161515146105d9576040517f08c379a00000000000000000000000000000000000000000000000000000000081526004016105d09061141f565b60405180910390fd5b60001515600360019054906101000a900460ff1615151461062f576040517f08c379a00000000000000000000000000000000000000000000000000000000081526004016106269061148b565b60405180910390fd5b600760009054906101000a900460ff1660ff16600260003373ffffffffffffffffffffffffffffffffffffffff1673ffffffffffffffffffffffffffffffffffffffff16815260200190815260200160002060009054906101000a900460ff1660ff16146106d2576040517f08c379a00000000000000000000000000000000000000000000000000000000081526004016106c9906114f7565b60405180910390fd5b6001600360016101000a81548160ff021916908315150217905550610716473373ffffffffffffffffffffffffffffffffffffffff16610aae90919063ffffffff16565b565b600360019054906101000a900460ff1681565b610733610aa6565b73ffffffffffffffffffffffffffffffffffffffff166107516107d3565b73ffffffffffffffffffffffffffffffffffffffff16146107a7576040517f08c379a000000000000000000000000000000000000000000000000000000000815260040161079e9061111e565b60405180910390fd5b6107b16000610ba2565b565b60026020528060005260406000206000915054906101000a900460ff1681565b6000600160009054906101000a900473ffffffffffffffffffffffffffffffffffffffff16905090565b7f000000000000000000000000000000000000000000000000000000000000000073ffffffffffffffffffffffffffffffffffffffff163373ffffffffffffffffffffffffffffffffffffffff161461088b576040517f08c379a000000000000000000000000000000000000000000000000000000000815260040161088290611563565b60405180910390fd5b6108958282610c68565b5050565b600360009054906101000a900460ff1681565b60006005547f000000000000000000000000000000000000000000000000000000000000000073ffffffffffffffffffffffffffffffffffffffff166370a08231306040518263ffffffff1660e01b815260040161090a9190610fda565b60206040518083038186803b15801561092257600080fd5b505afa158015610936573d6000803e3d6000fd5b505050506040513d601f19601f8201168201806040525081019061095a9190611598565b101561099b576040517f08c379a000000000000000000000000000000000000000000000000000000000815260040161099290611637565b60405180910390fd5b6109a9600454600554610c73565b905090565b6109b6610aa6565b73ffffffffffffffffffffffffffffffffffffffff166109d46107d3565b73ffffffffffffffffffffffffffffffffffffffff1614610a2a576040517f08c379a0000000000000000000000000000000000000000000000000000000008152600401610a219061111e565b60405180910390fd5b600073ffffffffffffffffffffffffffffffffffffffff168173ffffffffffffffffffffffffffffffffffffffff161415610a9a576040517f08c379a0000000000000000000000000000000000000000000000000000000008152600401610a91906116c9565b60405180910390fd5b610aa381610ba2565b50565b600033905090565b80471015610af1576040517f08c379a0000000000000000000000000000000000000000000000000000000008152600401610ae890611735565b60405180910390fd5b60008273ffffffffffffffffffffffffffffffffffffffff1682604051610b1790611786565b60006040518083038185875af1925050503d8060008114610b54576040519150601f19603f3d011682016040523d82523d6000602084013e610b59565b606091505b5050905080610b9d576040517f08c379a0000000000000000000000000000000000000000000000000000000008152600401610b949061180d565b60405180910390fd5b505050565b6000600160009054906101000a900473ffffffffffffffffffffffffffffffffffffffff16905081600160006101000a81548173ffffffffffffffffffffffffffffffffffffffff021916908373ffffffffffffffffffffffffffffffffffffffff1602179055508173ffffffffffffffffffffffffffffffffffffffff168173ffffffffffffffffffffffffffffffffffffffff167f8be0079c531659141344cd1fd0a4f28419497f9722a3daafe3b4186f6b6457e060405160405180910390a35050565b806006819055505050565b60007f000000000000000000000000000000000000000000000000000000000000000073ffffffffffffffffffffffffffffffffffffffff16634000aea07f000000000000000000000000000000000000000000000000000000000000000084866000604051602001610ce792919061182d565b6040516020818303038152906040526040518463ffffffff1660e01b8152600401610d14939291906118ef565b602060405180830381600087803b158015610d2e57600080fd5b505af1158015610d42573d6000803e3d6000fd5b505050506040513d601f19601f82011682018060405250810190610d669190611959565b506000610d888460003060008089815260200190815260200160002054610dd2565b9050600160008086815260200190815260200160002054610da991906111cd565b60008086815260200190815260200160002081905550610dc98482610e0e565b91505092915050565b600084848484604051602001610deb9493929190611986565b6040516020818303038152906040528051906020012060001c9050949350505050565b60008282604051602001610e23929190611a0d565b60405160208183030381529060405280519060200120905092915050565b6000819050919050565b610e5481610e41565b82525050565b6000602082019050610e6f6000830184610e4b565b92915050565b600080fd5b600060ff82169050919050565b610e9081610e7a565b8114610e9b57600080fd5b50565b600081359050610ead81610e87565b92915050565b600060208284031215610ec957610ec8610e75565b5b6000610ed784828501610e9e565b91505092915050565b610ee981610e7a565b82525050565b6000602082019050610f046000830184610ee0565b92915050565b60008115159050919050565b610f1f81610f0a565b82525050565b6000602082019050610f3a6000830184610f16565b92915050565b600073ffffffffffffffffffffffffffffffffffffffff82169050919050565b6000610f6b82610f40565b9050919050565b610f7b81610f60565b8114610f8657600080fd5b50565b600081359050610f9881610f72565b92915050565b600060208284031215610fb457610fb3610e75565b5b6000610fc284828501610f89565b91505092915050565b610fd481610f60565b82525050565b6000602082019050610fef6000830184610fcb565b92915050565b6000819050919050565b61100881610ff5565b811461101357600080fd5b50565b60008135905061102581610fff565b92915050565b61103481610e41565b811461103f57600080fd5b50565b6000813590506110518161102b565b92915050565b6000806040838503121561106e5761106d610e75565b5b600061107c85828601611016565b925050602061108d85828601611042565b9150509250929050565b6110a081610ff5565b82525050565b60006020820190506110bb6000830184611097565b92915050565b600082825260208201905092915050565b7f4f776e61626c653a2063616c6c6572206973206e6f7420746865206f776e6572600082015250565b60006111086020836110c1565b9150611113826110d2565b602082019050919050565b60006020820190508181036000830152611137816110fb565b9050919050565b7f4e487b7100000000000000000000000000000000000000000000000000000000600052601260045260246000fd5b600061117882610e41565b915061118383610e41565b9250826111935761119261113e565b5b828206905092915050565b7f4e487b7100000000000000000000000000000000000000000000000000000000600052601160045260246000fd5b60006111d882610e41565b91506111e383610e41565b9250827fffffffffffffffffffffffffffffffffffffffffffffffffffffffffffffffff038211156112185761121761119e565b5b828201905092915050565b7f4f6e6c792031206265742070657220706c617965720000000000000000000000600082015250565b60006112596015836110c1565b915061126482611223565b602082019050919050565b600060208201905081810360008301526112888161124c565b9050919050565b7f42657420636f73743a2031302065746865720000000000000000000000000000600082015250565b60006112c56012836110c1565b91506112d08261128f565b602082019050919050565b600060208201905081810360008301526112f4816112b8565b9050919050565b7f426574732061726520636c6f7365640000000000000000000000000000000000600082015250565b6000611331600f836110c1565b915061133c826112fb565b602082019050919050565b6000602082019050818103600083015261136081611324565b9050919050565b7f4d7573742062652061206e756d6265722066726f6d203120746f203235350000600082015250565b600061139d601e836110c1565b91506113a882611367565b602082019050919050565b600060208201905081810360008301526113cc81611390565b9050919050565b7f4265747320617265207374696c6c206f70656e00000000000000000000000000600082015250565b60006114096013836110c1565b9150611414826113d3565b602082019050919050565b60006020820190508181036000830152611438816113fc565b9050919050565b7f5072697a6520616c72656164792074616b656e00000000000000000000000000600082015250565b60006114756013836110c1565b91506114808261143f565b602082019050919050565b600060208201905081810360008301526114a481611468565b9050919050565b7f596f75206172656e2774207468652077696e6e65720000000000000000000000600082015250565b60006114e16015836110c1565b91506114ec826114ab565b602082019050919050565b60006020820190508181036000830152611510816114d4565b9050919050565b7f4f6e6c7920565246436f6f7264696e61746f722063616e2066756c66696c6c00600082015250565b600061154d601f836110c1565b915061155882611517565b602082019050919050565b6000602082019050818103600083015261157c81611540565b9050919050565b6000815190506115928161102b565b92915050565b6000602082840312156115ae576115ad610e75565b5b60006115bc84828501611583565b91505092915050565b7f4e6f7420656e6f756768204c494e4b202d2066696c6c20636f6e74726163742060008201527f7769746820666175636574000000000000000000000000000000000000000000602082015250565b6000611621602b836110c1565b915061162c826115c5565b604082019050919050565b6000602082019050818103600083015261165081611614565b9050919050565b7f4f776e61626c653a206e6577206f776e657220697320746865207a65726f206160008201527f6464726573730000000000000000000000000000000000000000000000000000602082015250565b60006116b36026836110c1565b91506116be82611657565b604082019050919050565b600060208201905081810360008301526116e2816116a6565b9050919050565b7f416464726573733a20696e73756666696369656e742062616c616e6365000000600082015250565b600061171f601d836110c1565b915061172a826116e9565b602082019050919050565b6000602082019050818103600083015261174e81611712565b9050919050565b600081905092915050565b50565b6000611770600083611755565b915061177b82611760565b600082019050919050565b600061179182611763565b9150819050919050565b7f416464726573733a20756e61626c6520746f2073656e642076616c75652c207260008201527f6563697069656e74206d61792068617665207265766572746564000000000000602082015250565b60006117f7603a836110c1565b91506118028261179b565b604082019050919050565b60006020820190508181036000830152611826816117ea565b9050919050565b60006040820190506118426000830185611097565b61184f6020830184610e4b565b9392505050565b600081519050919050565b600082825260208201905092915050565b60005b83811015611890578082015181840152602081019050611875565b8381111561189f576000848401525b50505050565b6000601f19601f8301169050919050565b60006118c182611856565b6118cb8185611861565b93506118db818560208601611872565b6118e4816118a5565b840191505092915050565b60006060820190506119046000830186610fcb565b6119116020830185610e4b565b818103604083015261192381846118b6565b9050949350505050565b61193681610f0a565b811461194157600080fd5b50565b6000815190506119538161192d565b92915050565b60006020828403121561196f5761196e610e75565b5b600061197d84828501611944565b91505092915050565b600060808201905061199b6000830187611097565b6119a86020830186610e4b565b6119b56040830185610fcb565b6119c26060830184610e4b565b95945050505050565b6000819050919050565b6119e66119e182610ff5565b6119cb565b82525050565b6000819050919050565b611a07611a0282610e41565b6119ec565b82525050565b6000611a1982856119d5565b602082019150611a2982846119f6565b602082019150819050939250505056fea26469706673582212206ff74a1875fb88130548d87780db0db5f93374caa26b8ecdef44333396bdbdff64736f6c63430008090033",
  "linkReferences": {},
  "deployedLinkReferences": {}
}