{
  "_format": "hh-sol-artifact-1",
  "contractName": "EtbDexFin",
  "sourceName": "contracts/final-project/EtbDexFin.sol",
  "abi": [
    {
      "inputs": [
        {
          "internalType": "address",
          "name": "_token",
          "type": "address"
        }
      ],
      "stateMutability": "nonpayable",
      "type": "constructor"
    },
    {
      "inputs": [],
      "name": "buyTokens",
      "outputs": [],
      "stateMutability": "payable",
      "type": "function"
    },
    {
      "inputs": [],
      "name": "fee",
      "outputs": [
        {
          "internalType": "uint256",
          "name": "",
          "type": "uint256"
        }
      ],
      "stateMutability": "view",
      "type": "function"
    },
    {
      "inputs": [],
      "name": "owner",
      "outputs": [
        {
          "internalType": "address",
          "name": "",
          "type": "address"
        }
      ],
      "stateMutability": "view",
      "type": "function"
    },
    {
      "inputs": [
        {
          "internalType": "uint256",
          "name": "_amount",
          "type": "uint256"
        }
      ],
      "name": "sellTokens",
      "outputs": [],
      "stateMutability": "nonpayable",
      "type": "function"
    },
    {
      "inputs": [
        {
          "internalType": "uint256",
          "name": "_fee",
          "type": "uint256"
        }
      ],
      "name": "setFee",
      "outputs": [],
      "stateMutability": "nonpayable",
      "type": "function"
    },
    {
      "inputs": [],
      "name": "withdrawFees",
      "outputs": [],
      "stateMutability": "nonpayable",
      "type": "function"
    }
  ],
  "bytecode": "0x608060405234801561001057600080fd5b5060405162000fc938038062000fc98339818101604052810190610034919061011e565b80600160006101000a81548173ffffffffffffffffffffffffffffffffffffffff021916908373ffffffffffffffffffffffffffffffffffffffff160217905550336000806101000a81548173ffffffffffffffffffffffffffffffffffffffff021916908373ffffffffffffffffffffffffffffffffffffffff1602179055505061014b565b600080fd5b600073ffffffffffffffffffffffffffffffffffffffff82169050919050565b60006100eb826100c0565b9050919050565b6100fb816100e0565b811461010657600080fd5b50565b600081519050610118816100f2565b92915050565b600060208284031215610134576101336100bb565b5b600061014284828501610109565b91505092915050565b610e6e806200015b6000396000f3fe6080604052600436106100555760003560e01c8063476343ee1461005a57806369fe0e2d146100715780636c11bcd31461009a5780638da5cb5b146100c3578063d0febe4c146100ee578063ddca3f43146100f8575b600080fd5b34801561006657600080fd5b5061006f610123565b005b34801561007d57600080fd5b506100986004803603810190610093919061085c565b6101dc565b005b3480156100a657600080fd5b506100c160048036038101906100bc919061085c565b610274565b005b3480156100cf57600080fd5b506100d86104a9565b6040516100e591906108ca565b60405180910390f35b6100f66104cd565b005b34801561010457600080fd5b5061010d610704565b60405161011a91906108f4565b60405180910390f35b60008054906101000a900473ffffffffffffffffffffffffffffffffffffffff1673ffffffffffffffffffffffffffffffffffffffff163373ffffffffffffffffffffffffffffffffffffffff16146101b1576040517f08c379a00000000000000000000000000000000000000000000000000000000081526004016101a89061096c565b60405180910390fd5b6101da473373ffffffffffffffffffffffffffffffffffffffff1661070a90919063ffffffff16565b565b60008054906101000a900473ffffffffffffffffffffffffffffffffffffffff1673ffffffffffffffffffffffffffffffffffffffff163373ffffffffffffffffffffffffffffffffffffffff161461026a576040517f08c379a00000000000000000000000000000000000000000000000000000000081526004016102619061096c565b60405180910390fd5b8060028190555050565b80600160009054906101000a900473ffffffffffffffffffffffffffffffffffffffff1673ffffffffffffffffffffffffffffffffffffffff166370a08231336040518263ffffffff1660e01b81526004016102d091906108ca565b60206040518083038186803b1580156102e857600080fd5b505afa1580156102fc573d6000803e3d6000fd5b505050506040513d601f19601f8201168201806040525081019061032091906109a1565b1015610361576040517f08c379a000000000000000000000000000000000000000000000000000000000815260040161035890610a1a565b60405180910390fd5b600160009054906101000a900473ffffffffffffffffffffffffffffffffffffffff1673ffffffffffffffffffffffffffffffffffffffff16639dc29fac33836040518363ffffffff1660e01b81526004016103be929190610a3a565b600060405180830381600087803b1580156103d857600080fd5b505af11580156103ec573d6000803e3d6000fd5b50505050600160009054906101000a900473ffffffffffffffffffffffffffffffffffffffff1673ffffffffffffffffffffffffffffffffffffffff1663a0712d68826040518263ffffffff1660e01b815260040161044b91906108f4565b600060405180830381600087803b15801561046557600080fd5b505af1158015610479573d6000803e3d6000fd5b505050506104a6813373ffffffffffffffffffffffffffffffffffffffff1661070a90919063ffffffff16565b50565b60008054906101000a900473ffffffffffffffffffffffffffffffffffffffff1681565b60003411610510576040517f08c379a000000000000000000000000000000000000000000000000000000000815260040161050790610aaf565b60405180910390fd5b34600160009054906101000a900473ffffffffffffffffffffffffffffffffffffffff1673ffffffffffffffffffffffffffffffffffffffff166370a0823160008054906101000a900473ffffffffffffffffffffffffffffffffffffffff166040518263ffffffff1660e01b815260040161058c91906108ca565b60206040518083038186803b1580156105a457600080fd5b505afa1580156105b8573d6000803e3d6000fd5b505050506040513d601f19601f820116820180604052508101906105dc91906109a1565b101561061d576040517f08c379a000000000000000000000000000000000000000000000000000000000815260040161061490610b1b565b60405180910390fd5b600160009054906101000a900473ffffffffffffffffffffffffffffffffffffffff1673ffffffffffffffffffffffffffffffffffffffff166323b872dd60008054906101000a900473ffffffffffffffffffffffffffffffffffffffff1633610686346107fe565b346106919190610b6a565b6040518463ffffffff1660e01b81526004016106af93929190610b9e565b602060405180830381600087803b1580156106c957600080fd5b505af11580156106dd573d6000803e3d6000fd5b505050506040513d601f19601f820116820180604052508101906107019190610c0d565b50565b60025481565b8047101561074d576040517f08c379a000000000000000000000000000000000000000000000000000000000815260040161074490610c86565b60405180910390fd5b60008273ffffffffffffffffffffffffffffffffffffffff168260405161077390610cd7565b60006040518083038185875af1925050503d80600081146107b0576040519150601f19603f3d011682016040523d82523d6000602084013e6107b5565b606091505b50509050806107f9576040517f08c379a00000000000000000000000000000000000000000000000000000000081526004016107f090610d5e565b60405180910390fd5b505050565b60006002546064836108109190610dad565b61081a9190610dde565b9050919050565b600080fd5b6000819050919050565b61083981610826565b811461084457600080fd5b50565b60008135905061085681610830565b92915050565b60006020828403121561087257610871610821565b5b600061088084828501610847565b91505092915050565b600073ffffffffffffffffffffffffffffffffffffffff82169050919050565b60006108b482610889565b9050919050565b6108c4816108a9565b82525050565b60006020820190506108df60008301846108bb565b92915050565b6108ee81610826565b82525050565b600060208201905061090960008301846108e5565b92915050565b600082825260208201905092915050565b7f5265737472696374656420416363657373000000000000000000000000000000600082015250565b600061095660118361090f565b915061096182610920565b602082019050919050565b6000602082019050818103600083015261098581610949565b9050919050565b60008151905061099b81610830565b92915050565b6000602082840312156109b7576109b6610821565b5b60006109c58482850161098c565b91505092915050565b7f4e6f7420656e6f75676820746f6b656e73000000000000000000000000000000600082015250565b6000610a0460118361090f565b9150610a0f826109ce565b602082019050919050565b60006020820190508181036000830152610a33816109f7565b9050919050565b6000604082019050610a4f60008301856108bb565b610a5c60208301846108e5565b9392505050565b7f53686f756c642073656e642045544820746f2062757920746f6b656e73000000600082015250565b6000610a99601d8361090f565b9150610aa482610a63565b602082019050919050565b60006020820190508181036000830152610ac881610a8c565b9050919050565b7f4e6f7420656e6f75676820746f6b656e7320746f2073656c6c00000000000000600082015250565b6000610b0560198361090f565b9150610b1082610acf565b602082019050919050565b60006020820190508181036000830152610b3481610af8565b9050919050565b7f4e487b7100000000000000000000000000000000000000000000000000000000600052601160045260246000fd5b6000610b7582610826565b9150610b8083610826565b925082821015610b9357610b92610b3b565b5b828203905092915050565b6000606082019050610bb360008301866108bb565b610bc060208301856108bb565b610bcd60408301846108e5565b949350505050565b60008115159050919050565b610bea81610bd5565b8114610bf557600080fd5b50565b600081519050610c0781610be1565b92915050565b600060208284031215610c2357610c22610821565b5b6000610c3184828501610bf8565b91505092915050565b7f416464726573733a20696e73756666696369656e742062616c616e6365000000600082015250565b6000610c70601d8361090f565b9150610c7b82610c3a565b602082019050919050565b60006020820190508181036000830152610c9f81610c63565b9050919050565b600081905092915050565b50565b6000610cc1600083610ca6565b9150610ccc82610cb1565b600082019050919050565b6000610ce282610cb4565b9150819050919050565b7f416464726573733a20756e61626c6520746f2073656e642076616c75652c207260008201527f6563697069656e74206d61792068617665207265766572746564000000000000602082015250565b6000610d48603a8361090f565b9150610d5382610cec565b604082019050919050565b60006020820190508181036000830152610d7781610d3b565b9050919050565b7f4e487b7100000000000000000000000000000000000000000000000000000000600052601260045260246000fd5b6000610db882610826565b9150610dc383610826565b925082610dd357610dd2610d7e565b5b828204905092915050565b6000610de982610826565b9150610df483610826565b9250817fffffffffffffffffffffffffffffffffffffffffffffffffffffffffffffffff0483118215151615610e2d57610e2c610b3b565b5b82820290509291505056fea26469706673582212205908ecf9147a5f41cad3e4ea6384ef50d45e509825277e4c670f6e7f2e78f25464736f6c63430008090033",
  "linkReferences": {},
  "deployedLinkReferences": {}
}