{
  "_format": "hh-sol-artifact-1",
  "contractName": "AuctionV2",
  "sourceName": "contracts/denial of service/AuctionV2.sol",
  "abi": [
    {
      "inputs": [],
      "name": "bid",
      "outputs": [],
      "stateMutability": "payable",
      "type": "function"
    },
    {
      "inputs": [],
      "name": "currentLeader",
      "outputs": [
        {
          "internalType": "address payable",
          "name": "",
          "type": "address"
        }
      ],
      "stateMutability": "view",
      "type": "function"
    },
    {
      "inputs": [],
      "name": "highestBid",
      "outputs": [
        {
          "internalType": "uint256",
          "name": "",
          "type": "uint256"
        }
      ],
      "stateMutability": "view",
      "type": "function"
    },
    {
      "inputs": [
        {
          "internalType": "address",
          "name": "",
          "type": "address"
        }
      ],
      "name": "refunds",
      "outputs": [
        {
          "internalType": "uint256",
          "name": "",
          "type": "uint256"
        }
      ],
      "stateMutability": "view",
      "type": "function"
    },
    {
      "inputs": [],
      "name": "withdrawRefund",
      "outputs": [],
      "stateMutability": "nonpayable",
      "type": "function"
    }
  ],
  "bytecode": "0x608060405234801561001057600080fd5b5060016000819055506108e3806100286000396000f3fe60806040526004361061004a5760003560e01c8063110f88741461004f5780631998aeef14610066578063ac4bd53a14610070578063bc3da5351461009b578063d57bde79146100d8575b600080fd5b34801561005b57600080fd5b50610064610103565b005b61006e61020e565b005b34801561007c57600080fd5b506100856103c3565b604051610092919061053c565b60405180910390f35b3480156100a757600080fd5b506100c260048036038101906100bd919061059a565b6103e9565b6040516100cf91906105e0565b60405180910390f35b3480156100e457600080fd5b506100ed610401565b6040516100fa91906105e0565b60405180910390f35b60026000541415610149576040517f08c379a000000000000000000000000000000000000000000000000000000000815260040161014090610658565b60405180910390fd5b60026000819055506000600360003373ffffffffffffffffffffffffffffffffffffffff1673ffffffffffffffffffffffffffffffffffffffff1681526020019081526020016000205490506000600360003373ffffffffffffffffffffffffffffffffffffffff1673ffffffffffffffffffffffffffffffffffffffff16815260200190815260200160002081905550610203813373ffffffffffffffffffffffffffffffffffffffff1661040790919063ffffffff16565b506001600081905550565b60026000541415610254576040517f08c379a000000000000000000000000000000000000000000000000000000000815260040161024b90610658565b60405180910390fd5b600260008190555060025434116102a0576040517f08c379a0000000000000000000000000000000000000000000000000000000008152600401610297906106c4565b60405180910390fd5b600073ffffffffffffffffffffffffffffffffffffffff16600160009054906101000a900473ffffffffffffffffffffffffffffffffffffffff1673ffffffffffffffffffffffffffffffffffffffff16146103715760025460036000600160009054906101000a900473ffffffffffffffffffffffffffffffffffffffff1673ffffffffffffffffffffffffffffffffffffffff1673ffffffffffffffffffffffffffffffffffffffff16815260200190815260200160002060008282546103699190610713565b925050819055505b33600160006101000a81548173ffffffffffffffffffffffffffffffffffffffff021916908373ffffffffffffffffffffffffffffffffffffffff160217905550346002819055506001600081905550565b600160009054906101000a900473ffffffffffffffffffffffffffffffffffffffff1681565b60036020528060005260406000206000915090505481565b60025481565b8047101561044a576040517f08c379a0000000000000000000000000000000000000000000000000000000008152600401610441906107b5565b60405180910390fd5b60008273ffffffffffffffffffffffffffffffffffffffff168260405161047090610806565b60006040518083038185875af1925050503d80600081146104ad576040519150601f19603f3d011682016040523d82523d6000602084013e6104b2565b606091505b50509050806104f6576040517f08c379a00000000000000000000000000000000000000000000000000000000081526004016104ed9061088d565b60405180910390fd5b505050565b600073ffffffffffffffffffffffffffffffffffffffff82169050919050565b6000610526826104fb565b9050919050565b6105368161051b565b82525050565b6000602082019050610551600083018461052d565b92915050565b600080fd5b6000610567826104fb565b9050919050565b6105778161055c565b811461058257600080fd5b50565b6000813590506105948161056e565b92915050565b6000602082840312156105b0576105af610557565b5b60006105be84828501610585565b91505092915050565b6000819050919050565b6105da816105c7565b82525050565b60006020820190506105f560008301846105d1565b92915050565b600082825260208201905092915050565b7f5265656e7472616e637947756172643a207265656e7472616e742063616c6c00600082015250565b6000610642601f836105fb565b915061064d8261060c565b602082019050919050565b6000602082019050818103600083015261067181610635565b9050919050565b7f426964206e6f74206869676820656e6f75676800000000000000000000000000600082015250565b60006106ae6013836105fb565b91506106b982610678565b602082019050919050565b600060208201905081810360008301526106dd816106a1565b9050919050565b7f4e487b7100000000000000000000000000000000000000000000000000000000600052601160045260246000fd5b600061071e826105c7565b9150610729836105c7565b9250827fffffffffffffffffffffffffffffffffffffffffffffffffffffffffffffffff0382111561075e5761075d6106e4565b5b828201905092915050565b7f416464726573733a20696e73756666696369656e742062616c616e6365000000600082015250565b600061079f601d836105fb565b91506107aa82610769565b602082019050919050565b600060208201905081810360008301526107ce81610792565b9050919050565b600081905092915050565b50565b60006107f06000836107d5565b91506107fb826107e0565b600082019050919050565b6000610811826107e3565b9150819050919050565b7f416464726573733a20756e61626c6520746f2073656e642076616c75652c207260008201527f6563697069656e74206d61792068617665207265766572746564000000000000602082015250565b6000610877603a836105fb565b91506108828261081b565b604082019050919050565b600060208201905081810360008301526108a68161086a565b905091905056fea2646970667358221220cc0e6da8bb174bbf8d57bb94d955a341d91bf3928401b391fd5bcb32e2fcea2864736f6c63430008090033",
  "linkReferences": {},
  "deployedLinkReferences": {}
}