{
  "_format": "hh-sol-artifact-1",
  "contractName": "SavingsAccountV2",
  "sourceName": "contracts/reentrancy/SavingsAccountV2.sol",
  "abi": [
    {
      "inputs": [
        {
          "internalType": "address",
          "name": "",
          "type": "address"
        }
      ],
      "name": "balanceOf",
      "outputs": [
        {
          "internalType": "uint256",
          "name": "",
          "type": "uint256"
        }
      ],
      "stateMutability": "view",
      "type": "function"
    },
    {
      "inputs": [],
      "name": "deposit",
      "outputs": [],
      "stateMutability": "payable",
      "type": "function"
    },
    {
      "inputs": [],
      "name": "withdraw",
      "outputs": [],
      "stateMutability": "nonpayable",
      "type": "function"
    }
  ],
  "bytecode": "0x608060405234801561001057600080fd5b506001600081905550610aaf806100286000396000f3fe6080604052600436106100345760003560e01c80633ccfd60b1461003957806370a0823114610050578063d0e30db01461008d575b600080fd5b34801561004557600080fd5b5061004e610097565b005b34801561005c57600080fd5b506100776004803603810190610072919061068c565b610311565b60405161008491906106d2565b60405180910390f35b610095610329565b005b600260005414156100dd576040517f08c379a00000000000000000000000000000000000000000000000000000000081526004016100d49061074a565b60405180910390fd5b60026000819055506000600160003373ffffffffffffffffffffffffffffffffffffffff1673ffffffffffffffffffffffffffffffffffffffff1681526020019081526020016000205411610167576040517f08c379a000000000000000000000000000000000000000000000000000000000815260040161015e906107b6565b60405180910390fd5b6000600160003373ffffffffffffffffffffffffffffffffffffffff1673ffffffffffffffffffffffffffffffffffffffff1681526020019081526020016000205490506101c3604051806020016040528060008152506103d7565b6102026040518060400160405280601c81526020017f5265656e7472616e637956696374696d27732062616c616e63653a200000000081525047610470565b6102806040518060400160405280601e81526020017f5265656e7472616e637941747461636b657227732062616c616e63653a200000815250600160003373ffffffffffffffffffffffffffffffffffffffff1673ffffffffffffffffffffffffffffffffffffffff16815260200190815260200160002054610470565b610298604051806020016040528060008152506103d7565b6102c1813373ffffffffffffffffffffffffffffffffffffffff1661050c90919063ffffffff16565b6000600160003373ffffffffffffffffffffffffffffffffffffffff1673ffffffffffffffffffffffffffffffffffffffff16815260200190815260200160002081905550506001600081905550565b60016020528060005260406000206000915090505481565b6002600054141561036f576040517f08c379a00000000000000000000000000000000000000000000000000000000081526004016103669061074a565b60405180910390fd5b600260008190555034600160003373ffffffffffffffffffffffffffffffffffffffff1673ffffffffffffffffffffffffffffffffffffffff16815260200190815260200160002060008282546103c69190610805565b925050819055506001600081905550565b61046d816040516024016103eb91906108e3565b6040516020818303038152906040527f41304fac000000000000000000000000000000000000000000000000000000007bffffffffffffffffffffffffffffffffffffffffffffffffffffffff19166020820180517bffffffffffffffffffffffffffffffffffffffffffffffffffffffff8381831617835250505050610600565b50565b6105088282604051602401610486929190610905565b6040516020818303038152906040527f9710a9d0000000000000000000000000000000000000000000000000000000007bffffffffffffffffffffffffffffffffffffffffffffffffffffffff19166020820180517bffffffffffffffffffffffffffffffffffffffffffffffffffffffff8381831617835250505050610600565b5050565b8047101561054f576040517f08c379a000000000000000000000000000000000000000000000000000000000815260040161054690610981565b60405180910390fd5b60008273ffffffffffffffffffffffffffffffffffffffff1682604051610575906109d2565b60006040518083038185875af1925050503d80600081146105b2576040519150601f19603f3d011682016040523d82523d6000602084013e6105b7565b606091505b50509050806105fb576040517f08c379a00000000000000000000000000000000000000000000000000000000081526004016105f290610a59565b60405180910390fd5b505050565b60008151905060006a636f6e736f6c652e6c6f679050602083016000808483855afa5050505050565b600080fd5b600073ffffffffffffffffffffffffffffffffffffffff82169050919050565b60006106598261062e565b9050919050565b6106698161064e565b811461067457600080fd5b50565b60008135905061068681610660565b92915050565b6000602082840312156106a2576106a1610629565b5b60006106b084828501610677565b91505092915050565b6000819050919050565b6106cc816106b9565b82525050565b60006020820190506106e760008301846106c3565b92915050565b600082825260208201905092915050565b7f5265656e7472616e637947756172643a207265656e7472616e742063616c6c00600082015250565b6000610734601f836106ed565b915061073f826106fe565b602082019050919050565b6000602082019050818103600083015261076381610727565b9050919050565b7f4e6f7468696e6720746f20576974686472617700000000000000000000000000600082015250565b60006107a06013836106ed565b91506107ab8261076a565b602082019050919050565b600060208201905081810360008301526107cf81610793565b9050919050565b7f4e487b7100000000000000000000000000000000000000000000000000000000600052601160045260246000fd5b6000610810826106b9565b915061081b836106b9565b9250827fffffffffffffffffffffffffffffffffffffffffffffffffffffffffffffffff038211156108505761084f6107d6565b5b828201905092915050565b600081519050919050565b60005b83811015610884578082015181840152602081019050610869565b83811115610893576000848401525b50505050565b6000601f19601f8301169050919050565b60006108b58261085b565b6108bf81856106ed565b93506108cf818560208601610866565b6108d881610899565b840191505092915050565b600060208201905081810360008301526108fd81846108aa565b905092915050565b6000604082019050818103600083015261091f81856108aa565b905061092e60208301846106c3565b9392505050565b7f416464726573733a20696e73756666696369656e742062616c616e6365000000600082015250565b600061096b601d836106ed565b915061097682610935565b602082019050919050565b6000602082019050818103600083015261099a8161095e565b9050919050565b600081905092915050565b50565b60006109bc6000836109a1565b91506109c7826109ac565b600082019050919050565b60006109dd826109af565b9150819050919050565b7f416464726573733a20756e61626c6520746f2073656e642076616c75652c207260008201527f6563697069656e74206d61792068617665207265766572746564000000000000602082015250565b6000610a43603a836106ed565b9150610a4e826109e7565b604082019050919050565b60006020820190508181036000830152610a7281610a36565b905091905056fea2646970667358221220edc7953923dbc94e23ca1622ff7ca5127cbfdc204448752802ef18f49df041ec64736f6c63430008090033",
  "linkReferences": {},
  "deployedLinkReferences": {}
}