{
  "_format": "hh-sol-artifact-1",
  "contractName": "MultiSigWalletV2",
  "sourceName": "contracts/replay-attack/MultiSigWalletV2.sol",
  "abi": [
    {
      "inputs": [
        {
          "internalType": "address[2]",
          "name": "_admins",
          "type": "address[2]"
        }
      ],
      "stateMutability": "nonpayable",
      "type": "constructor"
    },
    {
      "inputs": [
        {
          "internalType": "uint256",
          "name": "",
          "type": "uint256"
        }
      ],
      "name": "admins",
      "outputs": [
        {
          "internalType": "address",
          "name": "",
          "type": "address"
        }
      ],
      "stateMutability": "view",
      "type": "function"
    },
    {
      "inputs": [
        {
          "internalType": "bytes32",
          "name": "",
          "type": "bytes32"
        }
      ],
      "name": "executed",
      "outputs": [
        {
          "internalType": "bool",
          "name": "",
          "type": "bool"
        }
      ],
      "stateMutability": "view",
      "type": "function"
    },
    {
      "inputs": [
        {
          "internalType": "address",
          "name": "to",
          "type": "address"
        },
        {
          "internalType": "uint256",
          "name": "amount",
          "type": "uint256"
        },
        {
          "components": [
            {
              "internalType": "uint8",
              "name": "v",
              "type": "uint8"
            },
            {
              "internalType": "bytes32",
              "name": "r",
              "type": "bytes32"
            },
            {
              "internalType": "bytes32",
              "name": "s",
              "type": "bytes32"
            }
          ],
          "internalType": "struct MultiSigWalletV2.Signature[2]",
          "name": "signatures",
          "type": "tuple[2]"
        },
        {
          "internalType": "uint256",
          "name": "nonce",
          "type": "uint256"
        }
      ],
      "name": "transfer",
      "outputs": [],
      "stateMutability": "nonpayable",
      "type": "function"
    },
    {
      "inputs": [
        {
          "internalType": "address",
          "name": "to",
          "type": "address"
        },
        {
          "internalType": "uint256",
          "name": "amount",
          "type": "uint256"
        },
        {
          "components": [
            {
              "internalType": "uint8",
              "name": "v",
              "type": "uint8"
            },
            {
              "internalType": "bytes32",
              "name": "r",
              "type": "bytes32"
            },
            {
              "internalType": "bytes32",
              "name": "s",
              "type": "bytes32"
            }
          ],
          "internalType": "struct MultiSigWalletV2.Signature",
          "name": "signature",
          "type": "tuple"
        }
      ],
      "name": "verifySignature",
      "outputs": [
        {
          "internalType": "address",
          "name": "signer",
          "type": "address"
        }
      ],
      "stateMutability": "view",
      "type": "function"
    },
    {
      "stateMutability": "payable",
      "type": "receive"
    }
  ],
  "bytecode": "0x60806040523480156200001157600080fd5b50604051620012c2380380620012c28339818101604052810190620000379190620002ca565b8060009060026200004a92919062000052565b5050620002fc565b8260028101928215620000c1579160200282015b82811115620000c05782518260006101000a81548173ffffffffffffffffffffffffffffffffffffffff021916908373ffffffffffffffffffffffffffffffffffffffff1602179055509160200191906001019062000066565b5b509050620000d09190620000d4565b5090565b5b80821115620000ef576000816000905550600101620000d5565b5090565b6000604051905090565b600080fd5b600080fd5b6000601f19601f8301169050919050565b7f4e487b7100000000000000000000000000000000000000000000000000000000600052604160045260246000fd5b620001528262000107565b810181811067ffffffffffffffff8211171562000174576200017362000118565b5b80604052505050565b600062000189620000f3565b905062000197828262000147565b919050565b600067ffffffffffffffff821115620001ba57620001b962000118565b5b602082029050919050565b600080fd5b600073ffffffffffffffffffffffffffffffffffffffff82169050919050565b6000620001f782620001ca565b9050919050565b6200020981620001ea565b81146200021557600080fd5b50565b6000815190506200022981620001fe565b92915050565b60006200024662000240846200019c565b6200017d565b90508060208402830185811115620002635762000262620001c5565b5b835b818110156200029057806200027b888262000218565b84526020840193505060208101905062000265565b5050509392505050565b600082601f830112620002b257620002b162000102565b5b6002620002c18482856200022f565b91505092915050565b600060408284031215620002e357620002e2620000fd565b5b6000620002f3848285016200029a565b91505092915050565b610fb6806200030c6000396000f3fe6080604052600436106100435760003560e01c806314bfd6d01461004f578063a9fcfb331461008c578063ab2a961e146100c9578063fa4aefdf146101065761004a565b3661004a57005b600080fd5b34801561005b57600080fd5b506100766004803603810190610071919061070d565b61012f565b604051610083919061077b565b60405180910390f35b34801561009857600080fd5b506100b360048036038101906100ae91906107cc565b610165565b6040516100c09190610814565b60405180910390f35b3480156100d557600080fd5b506100f060048036038101906100eb9190610989565b610185565b6040516100fd919061077b565b60405180910390f35b34801561011257600080fd5b5061012d60048036038101906101289190610a97565b610255565b005b6000816002811061013f57600080fd5b016000915054906101000a900473ffffffffffffffffffffffffffffffffffffffff1681565b60026020528060005260406000206000915054906101000a900460ff1681565b6000806040518060400160405280601c81526020017f19457468657265756d205369676e6564204d6573736167653a0a353200000000815250905060008186866040516020016101d793929190610be3565b6040516020818303038152906040528051906020012090506001818560000151866020015187604001516040516000815260200160405260405161021e9493929190610c3a565b6020604051602081039080840390855afa158015610240573d6000803e3d6000fd5b50505060206040510351925050509392505050565b6000818360006002811061026c5761026b610c7f565b5b6020020151600001518460006002811061028957610288610c7f565b5b602002015160200151856000600281106102a6576102a5610c7f565b5b6020020151604001516040516020016102c29493929190610d05565b604051602081830303815290604052805190602001209050600082846001600281106102f1576102f0610c7f565b5b6020020151600001518560016002811061030e5761030d610c7f565b5b6020020151602001518660016002811061032b5761032a610c7f565b5b6020020151604001516040516020016103479493929190610d05565b6040516020818303038152906040528051906020012090506002600083815260200190815260200160002060009054906101000a900460ff161580156103ab57506002600082815260200190815260200160002060009054906101000a900460ff16155b6103ea576040517f08c379a00000000000000000000000000000000000000000000000000000000081526004016103e190610db0565b60405180910390fd5b60016002600084815260200190815260200160002060006101000a81548160ff02191690831515021790555060016002600083815260200190815260200160002060006101000a81548160ff021916908315150217905550600080806002811061045757610456610c7f565b5b0160009054906101000a900473ffffffffffffffffffffffffffffffffffffffff1673ffffffffffffffffffffffffffffffffffffffff166104b28888886000600281106104a8576104a7610c7f565b5b6020020151610185565b73ffffffffffffffffffffffffffffffffffffffff16148015610558575060006001600281106104e5576104e4610c7f565b5b0160009054906101000a900473ffffffffffffffffffffffffffffffffffffffff1673ffffffffffffffffffffffffffffffffffffffff1661054088888860016002811061053657610535610c7f565b5b6020020151610185565b73ffffffffffffffffffffffffffffffffffffffff16145b1561056257600190505b806105a2576040517f08c379a000000000000000000000000000000000000000000000000000000000815260040161059990610e1c565b60405180910390fd5b6105cb868873ffffffffffffffffffffffffffffffffffffffff166105d490919063ffffffff16565b50505050505050565b80471015610617576040517f08c379a000000000000000000000000000000000000000000000000000000000815260040161060e90610e88565b60405180910390fd5b60008273ffffffffffffffffffffffffffffffffffffffff168260405161063d90610ed9565b60006040518083038185875af1925050503d806000811461067a576040519150601f19603f3d011682016040523d82523d6000602084013e61067f565b606091505b50509050806106c3576040517f08c379a00000000000000000000000000000000000000000000000000000000081526004016106ba90610f60565b60405180910390fd5b505050565b6000604051905090565b600080fd5b6000819050919050565b6106ea816106d7565b81146106f557600080fd5b50565b600081359050610707816106e1565b92915050565b600060208284031215610723576107226106d2565b5b6000610731848285016106f8565b91505092915050565b600073ffffffffffffffffffffffffffffffffffffffff82169050919050565b60006107658261073a565b9050919050565b6107758161075a565b82525050565b6000602082019050610790600083018461076c565b92915050565b6000819050919050565b6107a981610796565b81146107b457600080fd5b50565b6000813590506107c6816107a0565b92915050565b6000602082840312156107e2576107e16106d2565b5b60006107f0848285016107b7565b91505092915050565b60008115159050919050565b61080e816107f9565b82525050565b60006020820190506108296000830184610805565b92915050565b6108388161075a565b811461084357600080fd5b50565b6000813590506108558161082f565b92915050565b600080fd5b6000601f19601f8301169050919050565b7f4e487b7100000000000000000000000000000000000000000000000000000000600052604160045260246000fd5b6108a982610860565b810181811067ffffffffffffffff821117156108c8576108c7610871565b5b80604052505050565b60006108db6106c8565b90506108e782826108a0565b919050565b600060ff82169050919050565b610902816108ec565b811461090d57600080fd5b50565b60008135905061091f816108f9565b92915050565b60006060828403121561093b5761093a61085b565b5b61094560606108d1565b9050600061095584828501610910565b6000830152506020610969848285016107b7565b602083015250604061097d848285016107b7565b60408301525092915050565b600080600060a084860312156109a2576109a16106d2565b5b60006109b086828701610846565b93505060206109c1868287016106f8565b92505060406109d286828701610925565b9150509250925092565b600080fd5b600067ffffffffffffffff8211156109fc576109fb610871565b5b602082029050919050565b600080fd5b6000610a1f610a1a846109e1565b6108d1565b90508060608402830185811115610a3957610a38610a07565b5b835b81811015610a625780610a4e8882610925565b845260208401935050606081019050610a3b565b5050509392505050565b600082601f830112610a8157610a806109dc565b5b6002610a8e848285610a0c565b91505092915050565b6000806000806101208587031215610ab257610ab16106d2565b5b6000610ac087828801610846565b9450506020610ad1878288016106f8565b9350506040610ae287828801610a6c565b925050610100610af4878288016106f8565b91505092959194509250565b600081519050919050565b600081905092915050565b60005b83811015610b34578082015181840152602081019050610b19565b83811115610b43576000848401525b50505050565b6000610b5482610b00565b610b5e8185610b0b565b9350610b6e818560208601610b16565b80840191505092915050565b60008160601b9050919050565b6000610b9282610b7a565b9050919050565b6000610ba482610b87565b9050919050565b610bbc610bb78261075a565b610b99565b82525050565b6000819050919050565b610bdd610bd8826106d7565b610bc2565b82525050565b6000610bef8286610b49565b9150610bfb8285610bab565b601482019150610c0b8284610bcc565b602082019150819050949350505050565b610c2581610796565b82525050565b610c34816108ec565b82525050565b6000608082019050610c4f6000830187610c1c565b610c5c6020830186610c2b565b610c696040830185610c1c565b610c766060830184610c1c565b95945050505050565b7f4e487b7100000000000000000000000000000000000000000000000000000000600052603260045260246000fd5b60008160f81b9050919050565b6000610cc682610cae565b9050919050565b610cde610cd9826108ec565b610cbb565b82525050565b6000819050919050565b610cff610cfa82610796565b610ce4565b82525050565b6000610d118287610bcc565b602082019150610d218286610ccd565b600182019150610d318285610cee565b602082019150610d418284610cee565b60208201915081905095945050505050565b600082825260208201905092915050565b7f5369676e61747572652065787069726564000000000000000000000000000000600082015250565b6000610d9a601183610d53565b9150610da582610d64565b602082019050919050565b60006020820190508181036000830152610dc981610d8d565b9050919050565b7f4163636573732072657374726963746564000000000000000000000000000000600082015250565b6000610e06601183610d53565b9150610e1182610dd0565b602082019050919050565b60006020820190508181036000830152610e3581610df9565b9050919050565b7f416464726573733a20696e73756666696369656e742062616c616e6365000000600082015250565b6000610e72601d83610d53565b9150610e7d82610e3c565b602082019050919050565b60006020820190508181036000830152610ea181610e65565b9050919050565b600081905092915050565b50565b6000610ec3600083610ea8565b9150610ece82610eb3565b600082019050919050565b6000610ee482610eb6565b9150819050919050565b7f416464726573733a20756e61626c6520746f2073656e642076616c75652c207260008201527f6563697069656e74206d61792068617665207265766572746564000000000000602082015250565b6000610f4a603a83610d53565b9150610f5582610eee565b604082019050919050565b60006020820190508181036000830152610f7981610f3d565b905091905056fea26469706673582212205b1eded137d664432f22a49862016840ea6161d19040ef4417dc97693bfe64e564736f6c63430008090033",
  "linkReferences": {},
  "deployedLinkReferences": {}
}