{
  "_format": "hh-sol-artifact-1",
  "contractName": "ETBTokenFin",
  "sourceName": "contracts/final-project/EtbTokenFin.sol",
  "abi": [
    {
      "inputs": [
        {
          "internalType": "uint256",
          "name": "initialSupply",
          "type": "uint256"
        }
      ],
      "stateMutability": "nonpayable",
      "type": "constructor"
    },
    {
      "inputs": [
        {
          "internalType": "address",
          "name": "balanceOwner",
          "type": "address"
        },
        {
          "internalType": "address",
          "name": "spender",
          "type": "address"
        }
      ],
      "name": "allowanceOf",
      "outputs": [
        {
          "internalType": "uint256",
          "name": "",
          "type": "uint256"
        }
      ],
      "stateMutability": "view",
      "type": "function"
    },
    {
      "inputs": [
        {
          "internalType": "address",
          "name": "spender",
          "type": "address"
        },
        {
          "internalType": "uint256",
          "name": "amount",
          "type": "uint256"
        }
      ],
      "name": "approve",
      "outputs": [],
      "stateMutability": "nonpayable",
      "type": "function"
    },
    {
      "inputs": [
        {
          "internalType": "address",
          "name": "account",
          "type": "address"
        }
      ],
      "name": "balanceOf",
      "outputs": [
        {
          "internalType": "uint256",
          "name": "",
          "type": "uint256"
        }
      ],
      "stateMutability": "view",
      "type": "function"
    },
    {
      "inputs": [
        {
          "internalType": "address",
          "name": "",
          "type": "address"
        }
      ],
      "name": "balances",
      "outputs": [
        {
          "internalType": "uint256",
          "name": "",
          "type": "uint256"
        }
      ],
      "stateMutability": "view",
      "type": "function"
    },
    {
      "inputs": [
        {
          "internalType": "address",
          "name": "account",
          "type": "address"
        },
        {
          "internalType": "uint256",
          "name": "amount",
          "type": "uint256"
        }
      ],
      "name": "burn",
      "outputs": [],
      "stateMutability": "nonpayable",
      "type": "function"
    },
    {
      "inputs": [],
      "name": "decimals",
      "outputs": [
        {
          "internalType": "uint8",
          "name": "",
          "type": "uint8"
        }
      ],
      "stateMutability": "view",
      "type": "function"
    },
    {
      "inputs": [],
      "name": "etbDex",
      "outputs": [
        {
          "internalType": "address",
          "name": "",
          "type": "address"
        }
      ],
      "stateMutability": "view",
      "type": "function"
    },
    {
      "inputs": [
        {
          "internalType": "uint256",
          "name": "amount",
          "type": "uint256"
        }
      ],
      "name": "mint",
      "outputs": [],
      "stateMutability": "nonpayable",
      "type": "function"
    },
    {
      "inputs": [],
      "name": "name",
      "outputs": [
        {
          "internalType": "string",
          "name": "",
          "type": "string"
        }
      ],
      "stateMutability": "view",
      "type": "function"
    },
    {
      "inputs": [],
      "name": "owner",
      "outputs": [
        {
          "internalType": "address",
          "name": "",
          "type": "address"
        }
      ],
      "stateMutability": "view",
      "type": "function"
    },
    {
      "inputs": [
        {
          "internalType": "address",
          "name": "_dex",
          "type": "address"
        }
      ],
      "name": "setDexAddress",
      "outputs": [],
      "stateMutability": "nonpayable",
      "type": "function"
    },
    {
      "inputs": [],
      "name": "symbol",
      "outputs": [
        {
          "internalType": "string",
          "name": "",
          "type": "string"
        }
      ],
      "stateMutability": "view",
      "type": "function"
    },
    {
      "inputs": [],
      "name": "totalSupply",
      "outputs": [
        {
          "internalType": "uint256",
          "name": "",
          "type": "uint256"
        }
      ],
      "stateMutability": "view",
      "type": "function"
    },
    {
      "inputs": [
        {
          "internalType": "address",
          "name": "recipient",
          "type": "address"
        },
        {
          "internalType": "uint256",
          "name": "amount",
          "type": "uint256"
        }
      ],
      "name": "transfer",
      "outputs": [],
      "stateMutability": "nonpayable",
      "type": "function"
    },
    {
      "inputs": [
        {
          "internalType": "address",
          "name": "sender",
          "type": "address"
        },
        {
          "internalType": "address",
          "name": "recipient",
          "type": "address"
        },
        {
          "internalType": "uint256",
          "name": "amount",
          "type": "uint256"
        }
      ],
      "name": "transferFrom",
      "outputs": [
        {
          "internalType": "bool",
          "name": "",
          "type": "bool"
        }
      ],
      "stateMutability": "nonpayable",
      "type": "function"
    }
  ],
  "bytecode": "0x60806040526040518060400160405280601481526020017f4561742074686520426c6f636b7320546f6b656e000000000000000000000000815250600390805190602001906200005192919062000181565b506040518060400160405280600481526020017f4554425400000000000000000000000000000000000000000000000000000000815250600490805190602001906200009f92919062000181565b506012600560006101000a81548160ff021916908360ff160217905550348015620000c957600080fd5b506040516200187d3803806200187d8339818101604052810190620000ef919062000271565b8060028190555080600660003373ffffffffffffffffffffffffffffffffffffffff1673ffffffffffffffffffffffffffffffffffffffff16815260200190815260200160002081905550336000806101000a81548173ffffffffffffffffffffffffffffffffffffffff021916908373ffffffffffffffffffffffffffffffffffffffff1602179055505062000308565b8280546200018f90620002d2565b90600052602060002090601f016020900481019282620001b35760008555620001ff565b82601f10620001ce57805160ff1916838001178555620001ff565b82800160010185558215620001ff579182015b82811115620001fe578251825591602001919060010190620001e1565b5b5090506200020e919062000212565b5090565b5b808211156200022d57600081600090555060010162000213565b5090565b600080fd5b6000819050919050565b6200024b8162000236565b81146200025757600080fd5b50565b6000815190506200026b8162000240565b92915050565b6000602082840312156200028a576200028962000231565b5b60006200029a848285016200025a565b91505092915050565b7f4e487b7100000000000000000000000000000000000000000000000000000000600052602260045260246000fd5b60006002820490506001821680620002eb57607f821691505b60208210811415620003025762000301620002a3565b5b50919050565b61156580620003186000396000f3fe608060405234801561001057600080fd5b50600436106100f55760003560e01c8063313ce567116100975780639dc29fac116100665780639dc29fac14610288578063a0712d68146102a4578063a9059cbb146102c0578063c4500207146102dc576100f5565b8063313ce567146101fe57806370a082311461021c5780638da5cb5b1461024c57806395d89b411461026a576100f5565b80631a46ec82116100d35780631a46ec821461015257806323b872dd1461018257806326f9a952146101b257806327e235e3146101ce576100f5565b806306fdde03146100fa578063095ea7b31461011857806318160ddd14610134575b600080fd5b6101026102fa565b60405161010f9190610e98565b60405180910390f35b610132600480360381019061012d9190610f53565b610388565b005b61013c6104ff565b6040516101499190610fa2565b60405180910390f35b61016c60048036038101906101679190610fbd565b610505565b6040516101799190610fa2565b60405180910390f35b61019c60048036038101906101979190610ffd565b61058c565b6040516101a9919061106b565b60405180910390f35b6101cc60048036038101906101c79190611086565b610819565b005b6101e860048036038101906101e39190611086565b6108eb565b6040516101f59190610fa2565b60405180910390f35b610206610903565b60405161021391906110cf565b60405180910390f35b61023660048036038101906102319190611086565b610916565b6040516102439190610fa2565b60405180910390f35b61025461095f565b60405161026191906110f9565b60405180910390f35b610272610983565b60405161027f9190610e98565b60405180910390f35b6102a2600480360381019061029d9190610f53565b610a11565b005b6102be60048036038101906102b99190611114565b610b14565b005b6102da60048036038101906102d59190610f53565b610c37565b005b6102e4610dd9565b6040516102f191906110f9565b60405180910390f35b6003805461030790611170565b80601f016020809104026020016040519081016040528092919081815260200182805461033390611170565b80156103805780601f1061035557610100808354040283529160200191610380565b820191906000526020600020905b81548152906001019060200180831161036357829003601f168201915b505050505081565b600073ffffffffffffffffffffffffffffffffffffffff168273ffffffffffffffffffffffffffffffffffffffff1614156103f8576040517f08c379a00000000000000000000000000000000000000000000000000000000081526004016103ef90611214565b60405180910390fd5b6000600660003373ffffffffffffffffffffffffffffffffffffffff1673ffffffffffffffffffffffffffffffffffffffff168152602001908152602001600020541161047a576040517f08c379a000000000000000000000000000000000000000000000000000000000815260040161047190611280565b60405180910390fd5b80600760003373ffffffffffffffffffffffffffffffffffffffff1673ffffffffffffffffffffffffffffffffffffffff16815260200190815260200160002060008473ffffffffffffffffffffffffffffffffffffffff1673ffffffffffffffffffffffffffffffffffffffff168152602001908152602001600020819055505050565b60025481565b6000600760008473ffffffffffffffffffffffffffffffffffffffff1673ffffffffffffffffffffffffffffffffffffffff16815260200190815260200160002060008373ffffffffffffffffffffffffffffffffffffffff1673ffffffffffffffffffffffffffffffffffffffff16815260200190815260200160002054905092915050565b600081600760008673ffffffffffffffffffffffffffffffffffffffff1673ffffffffffffffffffffffffffffffffffffffff16815260200190815260200160002060003373ffffffffffffffffffffffffffffffffffffffff1673ffffffffffffffffffffffffffffffffffffffff16815260200190815260200160002054101561064d576040517f08c379a0000000000000000000000000000000000000000000000000000000008152600401610644906112ec565b60405180910390fd5b81600660008673ffffffffffffffffffffffffffffffffffffffff1673ffffffffffffffffffffffffffffffffffffffff1681526020019081526020016000205410156106cf576040517f08c379a00000000000000000000000000000000000000000000000000000000081526004016106c690611358565b60405180910390fd5b81600760008673ffffffffffffffffffffffffffffffffffffffff1673ffffffffffffffffffffffffffffffffffffffff16815260200190815260200160002060003373ffffffffffffffffffffffffffffffffffffffff1673ffffffffffffffffffffffffffffffffffffffff168152602001908152602001600020600082825461075b91906113a7565b9250508190555081600660008673ffffffffffffffffffffffffffffffffffffffff1673ffffffffffffffffffffffffffffffffffffffff16815260200190815260200160002060008282546107b191906113a7565b9250508190555081600660008573ffffffffffffffffffffffffffffffffffffffff1673ffffffffffffffffffffffffffffffffffffffff168152602001908152602001600020600082825461080791906113db565b92505081905550600190509392505050565b60008054906101000a900473ffffffffffffffffffffffffffffffffffffffff1673ffffffffffffffffffffffffffffffffffffffff163373ffffffffffffffffffffffffffffffffffffffff16146108a7576040517f08c379a000000000000000000000000000000000000000000000000000000000815260040161089e9061147d565b60405180910390fd5b80600160006101000a81548173ffffffffffffffffffffffffffffffffffffffff021916908373ffffffffffffffffffffffffffffffffffffffff16021790555050565b60066020528060005260406000206000915090505481565b600560009054906101000a900460ff1681565b6000600660008373ffffffffffffffffffffffffffffffffffffffff1673ffffffffffffffffffffffffffffffffffffffff168152602001908152602001600020549050919050565b60008054906101000a900473ffffffffffffffffffffffffffffffffffffffff1681565b6004805461099090611170565b80601f01602080910402602001604051908101604052809291908181526020018280546109bc90611170565b8015610a095780601f106109de57610100808354040283529160200191610a09565b820191906000526020600020905b8154815290600101906020018083116109ec57829003601f168201915b505050505081565b600160009054906101000a900473ffffffffffffffffffffffffffffffffffffffff1673ffffffffffffffffffffffffffffffffffffffff163373ffffffffffffffffffffffffffffffffffffffff1614610aa1576040517f08c379a0000000000000000000000000000000000000000000000000000000008152600401610a989061147d565b60405180910390fd5b8060026000828254610ab391906113a7565b9250508190555080600660008473ffffffffffffffffffffffffffffffffffffffff1673ffffffffffffffffffffffffffffffffffffffff1681526020019081526020016000206000828254610b0991906113a7565b925050819055505050565b600160009054906101000a900473ffffffffffffffffffffffffffffffffffffffff1673ffffffffffffffffffffffffffffffffffffffff163373ffffffffffffffffffffffffffffffffffffffff1614610ba4576040517f08c379a0000000000000000000000000000000000000000000000000000000008152600401610b9b9061147d565b60405180910390fd5b8060026000828254610bb691906113db565b9250508190555080600660008060009054906101000a900473ffffffffffffffffffffffffffffffffffffffff1673ffffffffffffffffffffffffffffffffffffffff1673ffffffffffffffffffffffffffffffffffffffff1681526020019081526020016000206000828254610c2d91906113db565b9250508190555050565b600073ffffffffffffffffffffffffffffffffffffffff168273ffffffffffffffffffffffffffffffffffffffff161415610ca7576040517f08c379a0000000000000000000000000000000000000000000000000000000008152600401610c9e9061150f565b60405180910390fd5b80600660003373ffffffffffffffffffffffffffffffffffffffff1673ffffffffffffffffffffffffffffffffffffffff168152602001908152602001600020541015610d29576040517f08c379a0000000000000000000000000000000000000000000000000000000008152600401610d2090611358565b60405180910390fd5b80600660003373ffffffffffffffffffffffffffffffffffffffff1673ffffffffffffffffffffffffffffffffffffffff1681526020019081526020016000206000828254610d7891906113a7565b9250508190555080600660008473ffffffffffffffffffffffffffffffffffffffff1673ffffffffffffffffffffffffffffffffffffffff1681526020019081526020016000206000828254610dce91906113db565b925050819055505050565b600160009054906101000a900473ffffffffffffffffffffffffffffffffffffffff1681565b600081519050919050565b600082825260208201905092915050565b60005b83811015610e39578082015181840152602081019050610e1e565b83811115610e48576000848401525b50505050565b6000601f19601f8301169050919050565b6000610e6a82610dff565b610e748185610e0a565b9350610e84818560208601610e1b565b610e8d81610e4e565b840191505092915050565b60006020820190508181036000830152610eb28184610e5f565b905092915050565b600080fd5b600073ffffffffffffffffffffffffffffffffffffffff82169050919050565b6000610eea82610ebf565b9050919050565b610efa81610edf565b8114610f0557600080fd5b50565b600081359050610f1781610ef1565b92915050565b6000819050919050565b610f3081610f1d565b8114610f3b57600080fd5b50565b600081359050610f4d81610f27565b92915050565b60008060408385031215610f6a57610f69610eba565b5b6000610f7885828601610f08565b9250506020610f8985828601610f3e565b9150509250929050565b610f9c81610f1d565b82525050565b6000602082019050610fb76000830184610f93565b92915050565b60008060408385031215610fd457610fd3610eba565b5b6000610fe285828601610f08565b9250506020610ff385828601610f08565b9150509250929050565b60008060006060848603121561101657611015610eba565b5b600061102486828701610f08565b935050602061103586828701610f08565b925050604061104686828701610f3e565b9150509250925092565b60008115159050919050565b61106581611050565b82525050565b6000602082019050611080600083018461105c565b92915050565b60006020828403121561109c5761109b610eba565b5b60006110aa84828501610f08565b91505092915050565b600060ff82169050919050565b6110c9816110b3565b82525050565b60006020820190506110e460008301846110c0565b92915050565b6110f381610edf565b82525050565b600060208201905061110e60008301846110ea565b92915050565b60006020828403121561112a57611129610eba565b5b600061113884828501610f3e565b91505092915050565b7f4e487b7100000000000000000000000000000000000000000000000000000000600052602260045260246000fd5b6000600282049050600182168061118857607f821691505b6020821081141561119c5761119b611141565b5b50919050565b7f45524332303a20617070726f766520746f20746865207a65726f20616464726560008201527f7373000000000000000000000000000000000000000000000000000000000000602082015250565b60006111fe602283610e0a565b9150611209826111a2565b604082019050919050565b6000602082019050818103600083015261122d816111f1565b9050919050565b7f4e6f20746f6b656e73206f776e65640000000000000000000000000000000000600082015250565b600061126a600f83610e0a565b915061127582611234565b602082019050919050565b600060208201905081810360008301526112998161125d565b9050919050565b7f45524332303a20616d6f756e74206578636565647320616c6c6f77616e636500600082015250565b60006112d6601f83610e0a565b91506112e1826112a0565b602082019050919050565b60006020820190508181036000830152611305816112c9565b9050919050565b7f4e6f7420656e6f7567682062616c616e63650000000000000000000000000000600082015250565b6000611342601283610e0a565b915061134d8261130c565b602082019050919050565b6000602082019050818103600083015261137181611335565b9050919050565b7f4e487b7100000000000000000000000000000000000000000000000000000000600052601160045260246000fd5b60006113b282610f1d565b91506113bd83610f1d565b9250828210156113d0576113cf611378565b5b828203905092915050565b60006113e682610f1d565b91506113f183610f1d565b9250827fffffffffffffffffffffffffffffffffffffffffffffffffffffffffffffffff0382111561142657611425611378565b5b828201905092915050565b7f5265737472696374656420416363657373000000000000000000000000000000600082015250565b6000611467601183610e0a565b915061147282611431565b602082019050919050565b600060208201905081810360008301526114968161145a565b9050919050565b7f45524332303a207472616e736665722066726f6d20746865207a65726f20616460008201527f6472657373000000000000000000000000000000000000000000000000000000602082015250565b60006114f9602583610e0a565b91506115048261149d565b604082019050919050565b60006020820190508181036000830152611528816114ec565b905091905056fea2646970667358221220ace8aa7b3778ce0448eb77264d0122a8b6dc31fd7608dc21ef2f785dc1a2d08364736f6c63430008090033",
  "linkReferences": {},
  "deployedLinkReferences": {}
}