{
  "_format": "hh-sol-artifact-1",
  "contractName": "EtbDexV2",
  "sourceName": "contracts/final-project-solution/EtbDexV2.sol",
  "abi": [
    {
      "inputs": [
        {
          "internalType": "address",
          "name": "_token",
          "type": "address"
        }
      ],
      "stateMutability": "nonpayable",
      "type": "constructor"
    },
    {
      "anonymous": false,
      "inputs": [
        {
          "indexed": true,
          "internalType": "address",
          "name": "previousOwner",
          "type": "address"
        },
        {
          "indexed": true,
          "internalType": "address",
          "name": "newOwner",
          "type": "address"
        }
      ],
      "name": "OwnershipTransferred",
      "type": "event"
    },
    {
      "inputs": [],
      "name": "buyTokens",
      "outputs": [],
      "stateMutability": "payable",
      "type": "function"
    },
    {
      "inputs": [],
      "name": "fee",
      "outputs": [
        {
          "internalType": "uint256",
          "name": "",
          "type": "uint256"
        }
      ],
      "stateMutability": "view",
      "type": "function"
    },
    {
      "inputs": [],
      "name": "owner",
      "outputs": [
        {
          "internalType": "address",
          "name": "",
          "type": "address"
        }
      ],
      "stateMutability": "view",
      "type": "function"
    },
    {
      "inputs": [],
      "name": "renounceOwnership",
      "outputs": [],
      "stateMutability": "nonpayable",
      "type": "function"
    },
    {
      "inputs": [
        {
          "internalType": "uint256",
          "name": "_amount",
          "type": "uint256"
        }
      ],
      "name": "sellTokens",
      "outputs": [],
      "stateMutability": "nonpayable",
      "type": "function"
    },
    {
      "inputs": [
        {
          "internalType": "uint256",
          "name": "_fee",
          "type": "uint256"
        }
      ],
      "name": "setFee",
      "outputs": [],
      "stateMutability": "nonpayable",
      "type": "function"
    },
    {
      "inputs": [
        {
          "internalType": "address",
          "name": "newOwner",
          "type": "address"
        }
      ],
      "name": "transferOwnership",
      "outputs": [],
      "stateMutability": "nonpayable",
      "type": "function"
    },
    {
      "inputs": [],
      "name": "withdraw",
      "outputs": [],
      "stateMutability": "nonpayable",
      "type": "function"
    },
    {
      "inputs": [],
      "name": "withdrawFees",
      "outputs": [],
      "stateMutability": "nonpayable",
      "type": "function"
    },
    {
      "inputs": [
        {
          "internalType": "address",
          "name": "",
          "type": "address"
        }
      ],
      "name": "withdrawals",
      "outputs": [
        {
          "internalType": "uint256",
          "name": "",
          "type": "uint256"
        }
      ],
      "stateMutability": "view",
      "type": "function"
    }
  ],
  "bytecode": "0x60806040523480156200001157600080fd5b5060405162001585380380620015858339818101604052810190620000379190620001d5565b620000576200004b6200009f60201b60201c565b620000a760201b60201c565b80600160006101000a81548173ffffffffffffffffffffffffffffffffffffffff021916908373ffffffffffffffffffffffffffffffffffffffff1602179055505062000207565b600033905090565b60008060009054906101000a900473ffffffffffffffffffffffffffffffffffffffff169050816000806101000a81548173ffffffffffffffffffffffffffffffffffffffff021916908373ffffffffffffffffffffffffffffffffffffffff1602179055508173ffffffffffffffffffffffffffffffffffffffff168173ffffffffffffffffffffffffffffffffffffffff167f8be0079c531659141344cd1fd0a4f28419497f9722a3daafe3b4186f6b6457e060405160405180910390a35050565b600080fd5b600073ffffffffffffffffffffffffffffffffffffffff82169050919050565b60006200019d8262000170565b9050919050565b620001af8162000190565b8114620001bb57600080fd5b50565b600081519050620001cf81620001a4565b92915050565b600060208284031215620001ee57620001ed6200016b565b5b6000620001fe84828501620001be565b91505092915050565b61136e80620002176000396000f3fe6080604052600436106100915760003560e01c80637a9262a2116100595780637a9262a21461012d5780638da5cb5b1461016a578063d0febe4c14610195578063ddca3f431461019f578063f2fde38b146101ca57610091565b80633ccfd60b14610096578063476343ee146100ad57806369fe0e2d146100c45780636c11bcd3146100ed578063715018a614610116575b600080fd5b3480156100a257600080fd5b506100ab6101f3565b005b3480156100b957600080fd5b506100c26102a2565b005b3480156100d057600080fd5b506100eb60048036038101906100e69190610c1b565b610349565b005b3480156100f957600080fd5b50610114600480360381019061010f9190610c1b565b6103cf565b005b34801561012257600080fd5b5061012b610631565b005b34801561013957600080fd5b50610154600480360381019061014f9190610ca6565b6106b9565b6040516101619190610ce2565b60405180910390f35b34801561017657600080fd5b5061017f6106d1565b60405161018c9190610d0c565b60405180910390f35b61019d6106fa565b005b3480156101ab57600080fd5b506101b46108ff565b6040516101c19190610ce2565b60405180910390f35b3480156101d657600080fd5b506101f160048036038101906101ec9190610ca6565b610905565b005b6000600360003373ffffffffffffffffffffffffffffffffffffffff1673ffffffffffffffffffffffffffffffffffffffff168152602001908152602001600020819055506102a0600360003373ffffffffffffffffffffffffffffffffffffffff1673ffffffffffffffffffffffffffffffffffffffff168152602001908152602001600020543373ffffffffffffffffffffffffffffffffffffffff166109fd90919063ffffffff16565b565b6102aa610af1565b73ffffffffffffffffffffffffffffffffffffffff166102c86106d1565b73ffffffffffffffffffffffffffffffffffffffff161461031e576040517f08c379a000000000000000000000000000000000000000000000000000000000815260040161031590610d84565b60405180910390fd5b610347473373ffffffffffffffffffffffffffffffffffffffff166109fd90919063ffffffff16565b565b610351610af1565b73ffffffffffffffffffffffffffffffffffffffff1661036f6106d1565b73ffffffffffffffffffffffffffffffffffffffff16146103c5576040517f08c379a00000000000000000000000000000000000000000000000000000000081526004016103bc90610d84565b60405180910390fd5b8060028190555050565b80600160009054906101000a900473ffffffffffffffffffffffffffffffffffffffff1673ffffffffffffffffffffffffffffffffffffffff166370a08231336040518263ffffffff1660e01b815260040161042b9190610d0c565b60206040518083038186803b15801561044357600080fd5b505afa158015610457573d6000803e3d6000fd5b505050506040513d601f19601f8201168201806040525081019061047b9190610db9565b10156104bc576040517f08c379a00000000000000000000000000000000000000000000000000000000081526004016104b390610e32565b60405180910390fd5b600160009054906101000a900473ffffffffffffffffffffffffffffffffffffffff1673ffffffffffffffffffffffffffffffffffffffff16639dc29fac33836040518363ffffffff1660e01b8152600401610519929190610e52565b600060405180830381600087803b15801561053357600080fd5b505af1158015610547573d6000803e3d6000fd5b50505050600160009054906101000a900473ffffffffffffffffffffffffffffffffffffffff1673ffffffffffffffffffffffffffffffffffffffff1663a0712d68826040518263ffffffff1660e01b81526004016105a69190610ce2565b600060405180830381600087803b1580156105c057600080fd5b505af11580156105d4573d6000803e3d6000fd5b5050505080600360003373ffffffffffffffffffffffffffffffffffffffff1673ffffffffffffffffffffffffffffffffffffffff16815260200190815260200160002060008282546106279190610eaa565b9250508190555050565b610639610af1565b73ffffffffffffffffffffffffffffffffffffffff166106576106d1565b73ffffffffffffffffffffffffffffffffffffffff16146106ad576040517f08c379a00000000000000000000000000000000000000000000000000000000081526004016106a490610d84565b60405180910390fd5b6106b76000610af9565b565b60036020528060005260406000206000915090505481565b60008060009054906101000a900473ffffffffffffffffffffffffffffffffffffffff16905090565b6000341161073d576040517f08c379a000000000000000000000000000000000000000000000000000000000815260040161073490610f4c565b60405180910390fd5b34600160009054906101000a900473ffffffffffffffffffffffffffffffffffffffff1673ffffffffffffffffffffffffffffffffffffffff166370a082316107846106d1565b6040518263ffffffff1660e01b81526004016107a09190610d0c565b60206040518083038186803b1580156107b857600080fd5b505afa1580156107cc573d6000803e3d6000fd5b505050506040513d601f19601f820116820180604052508101906107f09190610db9565b1015610831576040517f08c379a000000000000000000000000000000000000000000000000000000000815260040161082890610fb8565b60405180910390fd5b600160009054906101000a900473ffffffffffffffffffffffffffffffffffffffff1673ffffffffffffffffffffffffffffffffffffffff166323b872dd6108776106d1565b3361088134610bbd565b3461088c9190610fd8565b6040518463ffffffff1660e01b81526004016108aa9392919061100c565b602060405180830381600087803b1580156108c457600080fd5b505af11580156108d8573d6000803e3d6000fd5b505050506040513d601f19601f820116820180604052508101906108fc919061107b565b50565b60025481565b61090d610af1565b73ffffffffffffffffffffffffffffffffffffffff1661092b6106d1565b73ffffffffffffffffffffffffffffffffffffffff1614610981576040517f08c379a000000000000000000000000000000000000000000000000000000000815260040161097890610d84565b60405180910390fd5b600073ffffffffffffffffffffffffffffffffffffffff168173ffffffffffffffffffffffffffffffffffffffff1614156109f1576040517f08c379a00000000000000000000000000000000000000000000000000000000081526004016109e89061111a565b60405180910390fd5b6109fa81610af9565b50565b80471015610a40576040517f08c379a0000000000000000000000000000000000000000000000000000000008152600401610a3790611186565b60405180910390fd5b60008273ffffffffffffffffffffffffffffffffffffffff1682604051610a66906111d7565b60006040518083038185875af1925050503d8060008114610aa3576040519150601f19603f3d011682016040523d82523d6000602084013e610aa8565b606091505b5050905080610aec576040517f08c379a0000000000000000000000000000000000000000000000000000000008152600401610ae39061125e565b60405180910390fd5b505050565b600033905090565b60008060009054906101000a900473ffffffffffffffffffffffffffffffffffffffff169050816000806101000a81548173ffffffffffffffffffffffffffffffffffffffff021916908373ffffffffffffffffffffffffffffffffffffffff1602179055508173ffffffffffffffffffffffffffffffffffffffff168173ffffffffffffffffffffffffffffffffffffffff167f8be0079c531659141344cd1fd0a4f28419497f9722a3daafe3b4186f6b6457e060405160405180910390a35050565b6000600254606483610bcf91906112ad565b610bd991906112de565b9050919050565b600080fd5b6000819050919050565b610bf881610be5565b8114610c0357600080fd5b50565b600081359050610c1581610bef565b92915050565b600060208284031215610c3157610c30610be0565b5b6000610c3f84828501610c06565b91505092915050565b600073ffffffffffffffffffffffffffffffffffffffff82169050919050565b6000610c7382610c48565b9050919050565b610c8381610c68565b8114610c8e57600080fd5b50565b600081359050610ca081610c7a565b92915050565b600060208284031215610cbc57610cbb610be0565b5b6000610cca84828501610c91565b91505092915050565b610cdc81610be5565b82525050565b6000602082019050610cf76000830184610cd3565b92915050565b610d0681610c68565b82525050565b6000602082019050610d216000830184610cfd565b92915050565b600082825260208201905092915050565b7f4f776e61626c653a2063616c6c6572206973206e6f7420746865206f776e6572600082015250565b6000610d6e602083610d27565b9150610d7982610d38565b602082019050919050565b60006020820190508181036000830152610d9d81610d61565b9050919050565b600081519050610db381610bef565b92915050565b600060208284031215610dcf57610dce610be0565b5b6000610ddd84828501610da4565b91505092915050565b7f4e6f7420656e6f75676820746f6b656e73000000000000000000000000000000600082015250565b6000610e1c601183610d27565b9150610e2782610de6565b602082019050919050565b60006020820190508181036000830152610e4b81610e0f565b9050919050565b6000604082019050610e676000830185610cfd565b610e746020830184610cd3565b9392505050565b7f4e487b7100000000000000000000000000000000000000000000000000000000600052601160045260246000fd5b6000610eb582610be5565b9150610ec083610be5565b9250827fffffffffffffffffffffffffffffffffffffffffffffffffffffffffffffffff03821115610ef557610ef4610e7b565b5b828201905092915050565b7f53686f756c642073656e642045544820746f2062757920746f6b656e73000000600082015250565b6000610f36601d83610d27565b9150610f4182610f00565b602082019050919050565b60006020820190508181036000830152610f6581610f29565b9050919050565b7f4e6f7420656e6f75676820746f6b656e7320746f2073656c6c00000000000000600082015250565b6000610fa2601983610d27565b9150610fad82610f6c565b602082019050919050565b60006020820190508181036000830152610fd181610f95565b9050919050565b6000610fe382610be5565b9150610fee83610be5565b92508282101561100157611000610e7b565b5b828203905092915050565b60006060820190506110216000830186610cfd565b61102e6020830185610cfd565b61103b6040830184610cd3565b949350505050565b60008115159050919050565b61105881611043565b811461106357600080fd5b50565b6000815190506110758161104f565b92915050565b60006020828403121561109157611090610be0565b5b600061109f84828501611066565b91505092915050565b7f4f776e61626c653a206e6577206f776e657220697320746865207a65726f206160008201527f6464726573730000000000000000000000000000000000000000000000000000602082015250565b6000611104602683610d27565b915061110f826110a8565b604082019050919050565b60006020820190508181036000830152611133816110f7565b9050919050565b7f416464726573733a20696e73756666696369656e742062616c616e6365000000600082015250565b6000611170601d83610d27565b915061117b8261113a565b602082019050919050565b6000602082019050818103600083015261119f81611163565b9050919050565b600081905092915050565b50565b60006111c16000836111a6565b91506111cc826111b1565b600082019050919050565b60006111e2826111b4565b9150819050919050565b7f416464726573733a20756e61626c6520746f2073656e642076616c75652c207260008201527f6563697069656e74206d61792068617665207265766572746564000000000000602082015250565b6000611248603a83610d27565b9150611253826111ec565b604082019050919050565b600060208201905081810360008301526112778161123b565b9050919050565b7f4e487b7100000000000000000000000000000000000000000000000000000000600052601260045260246000fd5b60006112b882610be5565b91506112c383610be5565b9250826112d3576112d261127e565b5b828204905092915050565b60006112e982610be5565b91506112f483610be5565b9250817fffffffffffffffffffffffffffffffffffffffffffffffffffffffffffffffff048311821515161561132d5761132c610e7b565b5b82820290509291505056fea264697066735822122061a906fa3230e457c0157a0288c11dc5f11e037bc26268fa228fc44ebed32ddb64736f6c63430008090033",
  "linkReferences": {},
  "deployedLinkReferences": {}
}