{
  "_format": "hh-sol-artifact-1",
  "contractName": "EtbDexV1",
  "sourceName": "contracts/final-project/EtbDexV1.sol",
  "abi": [
    {
      "inputs": [
        {
          "internalType": "address",
          "name": "_token",
          "type": "address"
        },
        {
          "internalType": "bytes32",
          "name": "_password",
          "type": "bytes32"
        }
      ],
      "stateMutability": "nonpayable",
      "type": "constructor"
    },
    {
      "inputs": [],
      "name": "buyTokens",
      "outputs": [],
      "stateMutability": "payable",
      "type": "function"
    },
    {
      "inputs": [],
      "name": "fee",
      "outputs": [
        {
          "internalType": "uint256",
          "name": "",
          "type": "uint256"
        }
      ],
      "stateMutability": "view",
      "type": "function"
    },
    {
      "inputs": [],
      "name": "owner",
      "outputs": [
        {
          "internalType": "address",
          "name": "",
          "type": "address"
        }
      ],
      "stateMutability": "view",
      "type": "function"
    },
    {
      "inputs": [
        {
          "internalType": "uint256",
          "name": "_amount",
          "type": "uint256"
        }
      ],
      "name": "sellTokens",
      "outputs": [],
      "stateMutability": "nonpayable",
      "type": "function"
    },
    {
      "inputs": [
        {
          "internalType": "uint256",
          "name": "_fee",
          "type": "uint256"
        },
        {
          "internalType": "bytes32",
          "name": "_password",
          "type": "bytes32"
        }
      ],
      "name": "setFee",
      "outputs": [],
      "stateMutability": "nonpayable",
      "type": "function"
    },
    {
      "inputs": [
        {
          "internalType": "bytes32",
          "name": "_password",
          "type": "bytes32"
        }
      ],
      "name": "withdrawFees",
      "outputs": [],
      "stateMutability": "nonpayable",
      "type": "function"
    }
  ],
  "bytecode": "0x608060405234801561001057600080fd5b50604051610a3f380380610a3f8339818101604052604081101561003357600080fd5b81019080805190602001909291908051906020019092919050505081600160006101000a81548173ffffffffffffffffffffffffffffffffffffffff021916908373ffffffffffffffffffffffffffffffffffffffff16021790555080600381905550336000806101000a81548173ffffffffffffffffffffffffffffffffffffffff021916908373ffffffffffffffffffffffffffffffffffffffff1602179055505050610958806100e76000396000f3fe6080604052600436106100555760003560e01c80636c11bcd31461005a578063810e2736146100955780638da5cb5b146100da578063d0febe4c14610131578063ddca3f431461013b578063ebb7119414610166575b600080fd5b34801561006657600080fd5b506100936004803603602081101561007d57600080fd5b81019080803590602001909291905050506101a1565b005b3480156100a157600080fd5b506100d8600480360360408110156100b857600080fd5b81019080803590602001909291908035906020019092919050505061047a565b005b3480156100e657600080fd5b506100ef6104fe565b604051808273ffffffffffffffffffffffffffffffffffffffff1673ffffffffffffffffffffffffffffffffffffffff16815260200191505060405180910390f35b610139610523565b005b34801561014757600080fd5b50610150610852565b6040518082815260200191505060405180910390f35b34801561017257600080fd5b5061019f6004803603602081101561018957600080fd5b8101908080359060200190929190505050610858565b005b600081600160009054906101000a900473ffffffffffffffffffffffffffffffffffffffff1673ffffffffffffffffffffffffffffffffffffffff166370a08231336040518263ffffffff1660e01b8152600401808273ffffffffffffffffffffffffffffffffffffffff1673ffffffffffffffffffffffffffffffffffffffff16815260200191505060206040518083038186803b15801561024357600080fd5b505afa158015610257573d6000803e3d6000fd5b505050506040513d602081101561026d57600080fd5b81019080805190602001909291905050500310156102f3576040517f08c379a00000000000000000000000000000000000000000000000000000000081526004018080602001828103825260118152602001807f4e6f7420656e6f75676820746f6b656e7300000000000000000000000000000081525060200191505060405180910390fd5b3373ffffffffffffffffffffffffffffffffffffffff166108fc829081150290604051600060405180830381858888f1935050505050600160009054906101000a900473ffffffffffffffffffffffffffffffffffffffff1673ffffffffffffffffffffffffffffffffffffffff16639dc29fac33836040518363ffffffff1660e01b8152600401808373ffffffffffffffffffffffffffffffffffffffff1673ffffffffffffffffffffffffffffffffffffffff16815260200182815260200192505050600060405180830381600087803b1580156103d257600080fd5b505af11580156103e6573d6000803e3d6000fd5b50505050600160009054906101000a900473ffffffffffffffffffffffffffffffffffffffff1673ffffffffffffffffffffffffffffffffffffffff1663a0712d68826040518263ffffffff1660e01b815260040180828152602001915050600060405180830381600087803b15801561045f57600080fd5b505af1158015610473573d6000803e3d6000fd5b5050505050565b8080600354146104f2576040517f08c379a00000000000000000000000000000000000000000000000000000000081526004018080602001828103825260168152602001807f596f7520617265206e6f7420746865206f776e6572210000000000000000000081525060200191505060405180910390fd5b82600281905550505050565b6000809054906101000a900473ffffffffffffffffffffffffffffffffffffffff1681565b60003411610599576040517f08c379a000000000000000000000000000000000000000000000000000000000815260040180806020018281038252601d8152602001807f53686f756c642073656e642045544820746f2062757920746f6b656e7300000081525060200191505060405180910390fd5b600034600160009054906101000a900473ffffffffffffffffffffffffffffffffffffffff1673ffffffffffffffffffffffffffffffffffffffff166370a082316000809054906101000a900473ffffffffffffffffffffffffffffffffffffffff166040518263ffffffff1660e01b8152600401808273ffffffffffffffffffffffffffffffffffffffff1673ffffffffffffffffffffffffffffffffffffffff16815260200191505060206040518083038186803b15801561065c57600080fd5b505afa158015610670573d6000803e3d6000fd5b505050506040513d602081101561068657600080fd5b810190808051906020019092919050505003101561070c576040517f08c379a00000000000000000000000000000000000000000000000000000000081526004018080602001828103825260198152602001807f4e6f7420656e6f75676820746f6b656e7320746f2073656c6c0000000000000081525060200191505060405180910390fd5b600160009054906101000a900473ffffffffffffffffffffffffffffffffffffffff1673ffffffffffffffffffffffffffffffffffffffff166323b872dd6000809054906101000a900473ffffffffffffffffffffffffffffffffffffffff16336107763461090a565b34036040518463ffffffff1660e01b8152600401808473ffffffffffffffffffffffffffffffffffffffff1673ffffffffffffffffffffffffffffffffffffffff1681526020018373ffffffffffffffffffffffffffffffffffffffff1673ffffffffffffffffffffffffffffffffffffffff1681526020018281526020019350505050602060405180830381600087803b15801561081457600080fd5b505af1158015610828573d6000803e3d6000fd5b505050506040513d602081101561083e57600080fd5b810190808051906020019092919050505050565b60025481565b8080600354146108d0576040517f08c379a00000000000000000000000000000000000000000000000000000000081526004018080602001828103825260168152602001807f596f7520617265206e6f7420746865206f776e6572210000000000000000000081525060200191505060405180910390fd5b3373ffffffffffffffffffffffffffffffffffffffff166108fc479081150290604051600060405180830381858888f19350505050505050565b60006002546064838161091957fe5b0402905091905056fea2646970667358221220c674523aa91cbac1b88269ae84d888c4aeab2ce3f93245c7ff9a6b9a01023c8264736f6c63430006000033",
  "linkReferences": {},
  "deployedLinkReferences": {}
}