{
  "_format": "hh-sol-artifact-1",
  "contractName": "InvestorV2",
  "sourceName": "contracts/reentrancy/InvestorV2.sol",
  "abi": [
    {
      "inputs": [
        {
          "internalType": "address",
          "name": "savingsAccountV2ContractAddress",
          "type": "address"
        }
      ],
      "stateMutability": "nonpayable",
      "type": "constructor"
    },
    {
      "anonymous": false,
      "inputs": [
        {
          "indexed": true,
          "internalType": "address",
          "name": "previousOwner",
          "type": "address"
        },
        {
          "indexed": true,
          "internalType": "address",
          "name": "newOwner",
          "type": "address"
        }
      ],
      "name": "OwnershipTransferred",
      "type": "event"
    },
    {
      "inputs": [],
      "name": "attack",
      "outputs": [],
      "stateMutability": "payable",
      "type": "function"
    },
    {
      "inputs": [],
      "name": "owner",
      "outputs": [
        {
          "internalType": "address",
          "name": "",
          "type": "address"
        }
      ],
      "stateMutability": "view",
      "type": "function"
    },
    {
      "inputs": [],
      "name": "renounceOwnership",
      "outputs": [],
      "stateMutability": "nonpayable",
      "type": "function"
    },
    {
      "inputs": [],
      "name": "savingsAccountV2",
      "outputs": [
        {
          "internalType": "contract ISavingsAccountV2",
          "name": "",
          "type": "address"
        }
      ],
      "stateMutability": "view",
      "type": "function"
    },
    {
      "inputs": [
        {
          "internalType": "address",
          "name": "newOwner",
          "type": "address"
        }
      ],
      "name": "transferOwnership",
      "outputs": [],
      "stateMutability": "nonpayable",
      "type": "function"
    },
    {
      "stateMutability": "payable",
      "type": "receive"
    }
  ],
  "bytecode": "0x60a060405234801561001057600080fd5b50604051610c7a380380610c7a833981810160405281019061003291906101b7565b61004e61004361008860201b60201c565b61009060201b60201c565b8073ffffffffffffffffffffffffffffffffffffffff1660808173ffffffffffffffffffffffffffffffffffffffff1681525050506101e4565b600033905090565b60008060009054906101000a900473ffffffffffffffffffffffffffffffffffffffff169050816000806101000a81548173ffffffffffffffffffffffffffffffffffffffff021916908373ffffffffffffffffffffffffffffffffffffffff1602179055508173ffffffffffffffffffffffffffffffffffffffff168173ffffffffffffffffffffffffffffffffffffffff167f8be0079c531659141344cd1fd0a4f28419497f9722a3daafe3b4186f6b6457e060405160405180910390a35050565b600080fd5b600073ffffffffffffffffffffffffffffffffffffffff82169050919050565b600061018482610159565b9050919050565b61019481610179565b811461019f57600080fd5b50565b6000815190506101b18161018b565b92915050565b6000602082840312156101cd576101cc610154565b5b60006101db848285016101a2565b91505092915050565b608051610a616102196000396000818160570152818160eb0152818161042c015281816104ad015261052f0152610a616000f3fe60806040526004361061004e5760003560e01c8063715018a6146101c45780638da5cb5b146101db5780639e5faafc14610206578063af56199314610210578063f2fde38b1461023b576101bf565b366101bf5760007f000000000000000000000000000000000000000000000000000000000000000073ffffffffffffffffffffffffffffffffffffffff1631111561016e576100ab60405180602001604052806000815250610264565b6100e96040518060400160405280600c81526020017f5265656e7472696e672e2e2e0000000000000000000000000000000000000000815250610264565b7f000000000000000000000000000000000000000000000000000000000000000073ffffffffffffffffffffffffffffffffffffffff16633ccfd60b6040518163ffffffff1660e01b8152600401600060405180830381600087803b15801561015157600080fd5b505af1158015610165573d6000803e3d6000fd5b505050506101bd565b6101766102fd565b73ffffffffffffffffffffffffffffffffffffffff166108fc479081150290604051600060405180830381858888f193505050501580156101bb573d6000803e3d6000fd5b505b005b600080fd5b3480156101d057600080fd5b506101d9610326565b005b3480156101e757600080fd5b506101f06102fd565b6040516101fd919061077f565b60405180910390f35b61020e6103ae565b005b34801561021c57600080fd5b5061022561052d565b60405161023291906107f9565b60405180910390f35b34801561024757600080fd5b50610262600480360381019061025d9190610845565b610551565b005b6102fa81604051602401610278919061090b565b6040516020818303038152906040527f41304fac000000000000000000000000000000000000000000000000000000007bffffffffffffffffffffffffffffffffffffffffffffffffffffffff19166020820180517bffffffffffffffffffffffffffffffffffffffffffffffffffffffff8381831617835250505050610649565b50565b60008060009054906101000a900473ffffffffffffffffffffffffffffffffffffffff16905090565b61032e610672565b73ffffffffffffffffffffffffffffffffffffffff1661034c6102fd565b73ffffffffffffffffffffffffffffffffffffffff16146103a2576040517f08c379a000000000000000000000000000000000000000000000000000000000815260040161039990610979565b60405180910390fd5b6103ac600061067a565b565b6103b6610672565b73ffffffffffffffffffffffffffffffffffffffff166103d46102fd565b73ffffffffffffffffffffffffffffffffffffffff161461042a576040517f08c379a000000000000000000000000000000000000000000000000000000000815260040161042190610979565b60405180910390fd5b7f000000000000000000000000000000000000000000000000000000000000000073ffffffffffffffffffffffffffffffffffffffff1663d0e30db0346040518263ffffffff1660e01b81526004016000604051808303818588803b15801561049257600080fd5b505af11580156104a6573d6000803e3d6000fd5b50505050507f000000000000000000000000000000000000000000000000000000000000000073ffffffffffffffffffffffffffffffffffffffff16633ccfd60b6040518163ffffffff1660e01b8152600401600060405180830381600087803b15801561051357600080fd5b505af1158015610527573d6000803e3d6000fd5b50505050565b7f000000000000000000000000000000000000000000000000000000000000000081565b610559610672565b73ffffffffffffffffffffffffffffffffffffffff166105776102fd565b73ffffffffffffffffffffffffffffffffffffffff16146105cd576040517f08c379a00000000000000000000000000000000000000000000000000000000081526004016105c490610979565b60405180910390fd5b600073ffffffffffffffffffffffffffffffffffffffff168173ffffffffffffffffffffffffffffffffffffffff16141561063d576040517f08c379a000000000000000000000000000000000000000000000000000000000815260040161063490610a0b565b60405180910390fd5b6106468161067a565b50565b60008151905060006a636f6e736f6c652e6c6f679050602083016000808483855afa5050505050565b600033905090565b60008060009054906101000a900473ffffffffffffffffffffffffffffffffffffffff169050816000806101000a81548173ffffffffffffffffffffffffffffffffffffffff021916908373ffffffffffffffffffffffffffffffffffffffff1602179055508173ffffffffffffffffffffffffffffffffffffffff168173ffffffffffffffffffffffffffffffffffffffff167f8be0079c531659141344cd1fd0a4f28419497f9722a3daafe3b4186f6b6457e060405160405180910390a35050565b600073ffffffffffffffffffffffffffffffffffffffff82169050919050565b60006107698261073e565b9050919050565b6107798161075e565b82525050565b60006020820190506107946000830184610770565b92915050565b6000819050919050565b60006107bf6107ba6107b58461073e565b61079a565b61073e565b9050919050565b60006107d1826107a4565b9050919050565b60006107e3826107c6565b9050919050565b6107f3816107d8565b82525050565b600060208201905061080e60008301846107ea565b92915050565b600080fd5b6108228161075e565b811461082d57600080fd5b50565b60008135905061083f81610819565b92915050565b60006020828403121561085b5761085a610814565b5b600061086984828501610830565b91505092915050565b600081519050919050565b600082825260208201905092915050565b60005b838110156108ac578082015181840152602081019050610891565b838111156108bb576000848401525b50505050565b6000601f19601f8301169050919050565b60006108dd82610872565b6108e7818561087d565b93506108f781856020860161088e565b610900816108c1565b840191505092915050565b6000602082019050818103600083015261092581846108d2565b905092915050565b7f4f776e61626c653a2063616c6c6572206973206e6f7420746865206f776e6572600082015250565b600061096360208361087d565b915061096e8261092d565b602082019050919050565b6000602082019050818103600083015261099281610956565b9050919050565b7f4f776e61626c653a206e6577206f776e657220697320746865207a65726f206160008201527f6464726573730000000000000000000000000000000000000000000000000000602082015250565b60006109f560268361087d565b9150610a0082610999565b604082019050919050565b60006020820190508181036000830152610a24816109e8565b905091905056fea26469706673582212209955e6831dfaaddc6a9012d06f19763bda0e9fcb5515c7cb23c60ea8b6d7e66e64736f6c63430008090033",
  "linkReferences": {},
  "deployedLinkReferences": {}
}