{
  "_format": "hh-sol-artifact-1",
  "contractName": "Proxy",
  "sourceName": "contracts/upgradeability/Proxy.sol",
  "abi": [
    {
      "inputs": [
        {
          "internalType": "address",
          "name": "_logic",
          "type": "address"
        }
      ],
      "stateMutability": "nonpayable",
      "type": "constructor"
    },
    {
      "stateMutability": "nonpayable",
      "type": "fallback"
    },
    {
      "inputs": [],
      "name": "logicContract",
      "outputs": [
        {
          "internalType": "address",
          "name": "",
          "type": "address"
        }
      ],
      "stateMutability": "view",
      "type": "function"
    },
    {
      "inputs": [],
      "name": "owner",
      "outputs": [
        {
          "internalType": "address",
          "name": "",
          "type": "address"
        }
      ],
      "stateMutability": "view",
      "type": "function"
    },
    {
      "inputs": [
        {
          "internalType": "address",
          "name": "_newLogicContract",
          "type": "address"
        }
      ],
      "name": "upgrade",
      "outputs": [],
      "stateMutability": "nonpayable",
      "type": "function"
    },
    {
      "inputs": [],
      "name": "x",
      "outputs": [
        {
          "internalType": "uint256",
          "name": "",
          "type": "uint256"
        }
      ],
      "stateMutability": "view",
      "type": "function"
    }
  ],
  "bytecode": "0x608060405234801561001057600080fd5b5060405161067e38038061067e8339818101604052810190610032919061011d565b80600260006101000a81548173ffffffffffffffffffffffffffffffffffffffff021916908373ffffffffffffffffffffffffffffffffffffffff16021790555033600160006101000a81548173ffffffffffffffffffffffffffffffffffffffff021916908373ffffffffffffffffffffffffffffffffffffffff1602179055505061014a565b600080fd5b600073ffffffffffffffffffffffffffffffffffffffff82169050919050565b60006100ea826100bf565b9050919050565b6100fa816100df565b811461010557600080fd5b50565b600081519050610117816100f1565b92915050565b600060208284031215610133576101326100ba565b5b600061014184828501610108565b91505092915050565b610525806101596000396000f3fe608060405234801561001057600080fd5b50600436106100505760003560e01c80630900f010146101245780630c55699c146101405780638da5cb5b1461015e578063cc0e97c91461017c57610051565b5b6000600260009054906101000a900473ffffffffffffffffffffffffffffffffffffffff1673ffffffffffffffffffffffffffffffffffffffff1660003660405161009d9291906102ff565b600060405180830381855af49150503d80600081146100d8576040519150601f19603f3d011682016040523d82523d6000602084013e6100dd565b606091505b5050905080610121576040517f08c379a000000000000000000000000000000000000000000000000000000000815260040161011890610375565b60405180910390fd5b50005b61013e600480360381019061013991906103f8565b61019a565b005b61014861026e565b604051610155919061043e565b60405180910390f35b610166610274565b6040516101739190610468565b60405180910390f35b61018461029a565b6040516101919190610468565b60405180910390f35b600160009054906101000a900473ffffffffffffffffffffffffffffffffffffffff1673ffffffffffffffffffffffffffffffffffffffff163373ffffffffffffffffffffffffffffffffffffffff161461022a576040517f08c379a0000000000000000000000000000000000000000000000000000000008152600401610221906104cf565b60405180910390fd5b80600260006101000a81548173ffffffffffffffffffffffffffffffffffffffff021916908373ffffffffffffffffffffffffffffffffffffffff16021790555050565b60005481565b600160009054906101000a900473ffffffffffffffffffffffffffffffffffffffff1681565b600260009054906101000a900473ffffffffffffffffffffffffffffffffffffffff1681565b600081905092915050565b82818337600083830152505050565b60006102e683856102c0565b93506102f38385846102cb565b82840190509392505050565b600061030c8284866102da565b91508190509392505050565b600082825260208201905092915050565b7f556e6578706563746564206572726f7200000000000000000000000000000000600082015250565b600061035f601083610318565b915061036a82610329565b602082019050919050565b6000602082019050818103600083015261038e81610352565b9050919050565b600080fd5b600073ffffffffffffffffffffffffffffffffffffffff82169050919050565b60006103c58261039a565b9050919050565b6103d5816103ba565b81146103e057600080fd5b50565b6000813590506103f2816103cc565b92915050565b60006020828403121561040e5761040d610395565b5b600061041c848285016103e3565b91505092915050565b6000819050919050565b61043881610425565b82525050565b6000602082019050610453600083018461042f565b92915050565b610462816103ba565b82525050565b600060208201905061047d6000830184610459565b92915050565b7f4163636573732072657374726963746564000000000000000000000000000000600082015250565b60006104b9601183610318565b91506104c482610483565b602082019050919050565b600060208201905081810360008301526104e8816104ac565b905091905056fea2646970667358221220bd96030f47edd232268318bf61f542e8f43bc5cbae3e40b053c7490172b1340964736f6c63430008090033",
  "linkReferences": {},
  "deployedLinkReferences": {}
}