{
  "_format": "hh-sol-artifact-1",
  "contractName": "Caller",
  "sourceName": "contracts/upgradeability/Caller.sol",
  "abi": [
    {
      "inputs": [
        {
          "internalType": "uint256",
          "name": "_num",
          "type": "uint256"
        }
      ],
      "name": "callCallee",
      "outputs": [],
      "stateMutability": "nonpayable",
      "type": "function"
    },
    {
      "inputs": [],
      "name": "callee",
      "outputs": [
        {
          "internalType": "address",
          "name": "",
          "type": "address"
        }
      ],
      "stateMutability": "view",
      "type": "function"
    },
    {
      "inputs": [
        {
          "internalType": "uint256",
          "name": "_num",
          "type": "uint256"
        }
      ],
      "name": "delegatecallCallee",
      "outputs": [],
      "stateMutability": "nonpayable",
      "type": "function"
    },
    {
      "inputs": [
        {
          "internalType": "address",
          "name": "_callee",
          "type": "address"
        }
      ],
      "name": "setCalleeAddress",
      "outputs": [],
      "stateMutability": "nonpayable",
      "type": "function"
    },
    {
      "inputs": [
        {
          "internalType": "uint256",
          "name": "_num",
          "type": "uint256"
        }
      ],
      "name": "staticcallCalleee",
      "outputs": [],
      "stateMutability": "view",
      "type": "function"
    },
    {
      "inputs": [],
      "name": "x",
      "outputs": [
        {
          "internalType": "uint256",
          "name": "",
          "type": "uint256"
        }
      ],
      "stateMutability": "view",
      "type": "function"
    }
  ],
  "bytecode": "0x608060405234801561001057600080fd5b5061082a806100206000396000f3fe608060405234801561001057600080fd5b50600436106100625760003560e01c80630c55699c14610067578063139798bd146100855780632ab36fc6146100a15780637ba47d41146100bd578063ceee2e20146100d9578063f4ab8c0e146100f7575b600080fd5b61006f610113565b60405161007c91906105b8565b60405180910390f35b61009f600480360381019061009a9190610604565b610119565b005b6100bb60048036038101906100b69190610604565b610277565b005b6100d760048036038101906100d2919061068f565b6103d7565b005b6100e161041b565b6040516100ee91906106cb565b60405180910390f35b610111600480360381019061010c9190610604565b610441565b005b60005481565b6000600160009054906101000a900473ffffffffffffffffffffffffffffffffffffffff1673ffffffffffffffffffffffffffffffffffffffff168260405160240161016591906105b8565b6040516020818303038152906040527f4018d9aa000000000000000000000000000000000000000000000000000000007bffffffffffffffffffffffffffffffffffffffffffffffffffffffff19166020820180517bffffffffffffffffffffffffffffffffffffffffffffffffffffffff83818316178352505050506040516101ef9190610760565b600060405180830381855afa9150503d806000811461022a576040519150601f19603f3d011682016040523d82523d6000602084013e61022f565b606091505b5050905080610273576040517f08c379a000000000000000000000000000000000000000000000000000000000815260040161026a906107d4565b60405180910390fd5b5050565b6000600160009054906101000a900473ffffffffffffffffffffffffffffffffffffffff1673ffffffffffffffffffffffffffffffffffffffff16826040516024016102c391906105b8565b6040516020818303038152906040527f4018d9aa000000000000000000000000000000000000000000000000000000007bffffffffffffffffffffffffffffffffffffffffffffffffffffffff19166020820180517bffffffffffffffffffffffffffffffffffffffffffffffffffffffff838183161783525050505060405161034d9190610760565b6000604051808303816000865af19150503d806000811461038a576040519150601f19603f3d011682016040523d82523d6000602084013e61038f565b606091505b50509050806103d3576040517f08c379a00000000000000000000000000000000000000000000000000000000081526004016103ca906107d4565b60405180910390fd5b5050565b80600160006101000a81548173ffffffffffffffffffffffffffffffffffffffff021916908373ffffffffffffffffffffffffffffffffffffffff16021790555050565b600160009054906101000a900473ffffffffffffffffffffffffffffffffffffffff1681565b6000600160009054906101000a900473ffffffffffffffffffffffffffffffffffffffff1673ffffffffffffffffffffffffffffffffffffffff168260405160240161048d91906105b8565b6040516020818303038152906040527f4018d9aa000000000000000000000000000000000000000000000000000000007bffffffffffffffffffffffffffffffffffffffffffffffffffffffff19166020820180517bffffffffffffffffffffffffffffffffffffffffffffffffffffffff83818316178352505050506040516105179190610760565b600060405180830381855af49150503d8060008114610552576040519150601f19603f3d011682016040523d82523d6000602084013e610557565b606091505b505090508061059b576040517f08c379a0000000000000000000000000000000000000000000000000000000008152600401610592906107d4565b60405180910390fd5b5050565b6000819050919050565b6105b28161059f565b82525050565b60006020820190506105cd60008301846105a9565b92915050565b600080fd5b6105e18161059f565b81146105ec57600080fd5b50565b6000813590506105fe816105d8565b92915050565b60006020828403121561061a576106196105d3565b5b6000610628848285016105ef565b91505092915050565b600073ffffffffffffffffffffffffffffffffffffffff82169050919050565b600061065c82610631565b9050919050565b61066c81610651565b811461067757600080fd5b50565b60008135905061068981610663565b92915050565b6000602082840312156106a5576106a46105d3565b5b60006106b38482850161067a565b91505092915050565b6106c581610651565b82525050565b60006020820190506106e060008301846106bc565b92915050565b600081519050919050565b600081905092915050565b60005b8381101561071a5780820151818401526020810190506106ff565b83811115610729576000848401525b50505050565b600061073a826106e6565b61074481856106f1565b93506107548185602086016106fc565b80840191505092915050565b600061076c828461072f565b915081905092915050565b600082825260208201905092915050565b7f4572726f72000000000000000000000000000000000000000000000000000000600082015250565b60006107be600583610777565b91506107c982610788565b602082019050919050565b600060208201905081810360008301526107ed816107b1565b905091905056fea26469706673582212200e64c72a0dbbbd9243152cd19e57a4b5a010babd6c7837be04622fbef6e79f4264736f6c63430008090033",
  "linkReferences": {},
  "deployedLinkReferences": {}
}