{
  "_format": "hh-sol-artifact-1",
  "contractName": "Auction",
  "sourceName": "contracts/denial of service/Auction.sol",
  "abi": [
    {
      "anonymous": false,
      "inputs": [
        {
          "indexed": true,
          "internalType": "address",
          "name": "previousOwner",
          "type": "address"
        },
        {
          "indexed": true,
          "internalType": "address",
          "name": "newOwner",
          "type": "address"
        }
      ],
      "name": "OwnershipTransferred",
      "type": "event"
    },
    {
      "inputs": [],
      "name": "bid",
      "outputs": [],
      "stateMutability": "payable",
      "type": "function"
    },
    {
      "inputs": [],
      "name": "currentLeader",
      "outputs": [
        {
          "internalType": "address payable",
          "name": "",
          "type": "address"
        }
      ],
      "stateMutability": "view",
      "type": "function"
    },
    {
      "inputs": [],
      "name": "highestBid",
      "outputs": [
        {
          "internalType": "uint256",
          "name": "",
          "type": "uint256"
        }
      ],
      "stateMutability": "view",
      "type": "function"
    },
    {
      "inputs": [],
      "name": "owner",
      "outputs": [
        {
          "internalType": "address",
          "name": "",
          "type": "address"
        }
      ],
      "stateMutability": "view",
      "type": "function"
    },
    {
      "inputs": [],
      "name": "refundAll",
      "outputs": [],
      "stateMutability": "nonpayable",
      "type": "function"
    },
    {
      "inputs": [
        {
          "internalType": "uint256",
          "name": "",
          "type": "uint256"
        }
      ],
      "name": "refunds",
      "outputs": [
        {
          "internalType": "address payable",
          "name": "addr",
          "type": "address"
        },
        {
          "internalType": "uint256",
          "name": "amount",
          "type": "uint256"
        }
      ],
      "stateMutability": "view",
      "type": "function"
    },
    {
      "inputs": [],
      "name": "renounceOwnership",
      "outputs": [],
      "stateMutability": "nonpayable",
      "type": "function"
    },
    {
      "inputs": [
        {
          "internalType": "address",
          "name": "newOwner",
          "type": "address"
        }
      ],
      "name": "transferOwnership",
      "outputs": [],
      "stateMutability": "nonpayable",
      "type": "function"
    }
  ],
  "bytecode": "0x608060405234801561001057600080fd5b5061002d61002261003960201b60201c565b61004160201b60201c565b60018081905550610105565b600033905090565b60008060009054906101000a900473ffffffffffffffffffffffffffffffffffffffff169050816000806101000a81548173ffffffffffffffffffffffffffffffffffffffff021916908373ffffffffffffffffffffffffffffffffffffffff1602179055508173ffffffffffffffffffffffffffffffffffffffff168173ffffffffffffffffffffffffffffffffffffffff167f8be0079c531659141344cd1fd0a4f28419497f9722a3daafe3b4186f6b6457e060405160405180910390a35050565b610f46806101146000396000f3fe60806040526004361061007b5760003560e01c8063ac4bd53a1161004e578063ac4bd53a146100e3578063d57bde791461010e578063e36bd0f314610139578063f2fde38b146101775761007b565b80631998aeef1461008057806338e771ab1461008a578063715018a6146100a15780638da5cb5b146100b8575b600080fd5b6100886101a0565b005b34801561009657600080fd5b5061009f6103a7565b005b3480156100ad57600080fd5b506100b661053f565b005b3480156100c457600080fd5b506100cd6105c7565b6040516100da91906109d3565b60405180910390f35b3480156100ef57600080fd5b506100f86105f0565b6040516101059190610a0f565b60405180910390f35b34801561011a57600080fd5b50610123610616565b6040516101309190610a43565b60405180910390f35b34801561014557600080fd5b50610160600480360381019061015b9190610a8f565b61061c565b60405161016e929190610abc565b60405180910390f35b34801561018357600080fd5b5061019e60048036038101906101999190610b11565b610670565b005b600260015414156101e6576040517f08c379a00000000000000000000000000000000000000000000000000000000081526004016101dd90610b9b565b60405180910390fd5b60026001819055506003543411610232576040517f08c379a000000000000000000000000000000000000000000000000000000000815260040161022990610c07565b60405180910390fd5b600073ffffffffffffffffffffffffffffffffffffffff16600260009054906101000a900473ffffffffffffffffffffffffffffffffffffffff1673ffffffffffffffffffffffffffffffffffffffff16146103565760046040518060400160405280600260009054906101000a900473ffffffffffffffffffffffffffffffffffffffff1673ffffffffffffffffffffffffffffffffffffffff168152602001600354815250908060018154018082558091505060019003906000526020600020906002020160009091909190915060008201518160000160006101000a81548173ffffffffffffffffffffffffffffffffffffffff021916908373ffffffffffffffffffffffffffffffffffffffff1602179055506020820151816001015550505b33600260006101000a81548173ffffffffffffffffffffffffffffffffffffffff021916908373ffffffffffffffffffffffffffffffffffffffff1602179055503460038190555060018081905550565b6103af610768565b73ffffffffffffffffffffffffffffffffffffffff166103cd6105c7565b73ffffffffffffffffffffffffffffffffffffffff1614610423576040517f08c379a000000000000000000000000000000000000000000000000000000000815260040161041a90610c73565b60405180910390fd5b60026001541415610469576040517f08c379a000000000000000000000000000000000000000000000000000000000815260040161046090610b9b565b60405180910390fd5b600260018190555060005b600480549050811015610527576105146004828154811061049857610497610c93565b5b906000526020600020906002020160010154600483815481106104be576104bd610c93565b5b906000526020600020906002020160000160009054906101000a900473ffffffffffffffffffffffffffffffffffffffff1673ffffffffffffffffffffffffffffffffffffffff1661077090919063ffffffff16565b808061051f90610cf1565b915050610474565b50600460006105369190610928565b60018081905550565b610547610768565b73ffffffffffffffffffffffffffffffffffffffff166105656105c7565b73ffffffffffffffffffffffffffffffffffffffff16146105bb576040517f08c379a00000000000000000000000000000000000000000000000000000000081526004016105b290610c73565b60405180910390fd5b6105c56000610864565b565b60008060009054906101000a900473ffffffffffffffffffffffffffffffffffffffff16905090565b600260009054906101000a900473ffffffffffffffffffffffffffffffffffffffff1681565b60035481565b6004818154811061062c57600080fd5b90600052602060002090600202016000915090508060000160009054906101000a900473ffffffffffffffffffffffffffffffffffffffff16908060010154905082565b610678610768565b73ffffffffffffffffffffffffffffffffffffffff166106966105c7565b73ffffffffffffffffffffffffffffffffffffffff16146106ec576040517f08c379a00000000000000000000000000000000000000000000000000000000081526004016106e390610c73565b60405180910390fd5b600073ffffffffffffffffffffffffffffffffffffffff168173ffffffffffffffffffffffffffffffffffffffff16141561075c576040517f08c379a000000000000000000000000000000000000000000000000000000000815260040161075390610dac565b60405180910390fd5b61076581610864565b50565b600033905090565b804710156107b3576040517f08c379a00000000000000000000000000000000000000000000000000000000081526004016107aa90610e18565b60405180910390fd5b60008273ffffffffffffffffffffffffffffffffffffffff16826040516107d990610e69565b60006040518083038185875af1925050503d8060008114610816576040519150601f19603f3d011682016040523d82523d6000602084013e61081b565b606091505b505090508061085f576040517f08c379a000000000000000000000000000000000000000000000000000000000815260040161085690610ef0565b60405180910390fd5b505050565b60008060009054906101000a900473ffffffffffffffffffffffffffffffffffffffff169050816000806101000a81548173ffffffffffffffffffffffffffffffffffffffff021916908373ffffffffffffffffffffffffffffffffffffffff1602179055508173ffffffffffffffffffffffffffffffffffffffff168173ffffffffffffffffffffffffffffffffffffffff167f8be0079c531659141344cd1fd0a4f28419497f9722a3daafe3b4186f6b6457e060405160405180910390a35050565b5080546000825560020290600052602060002090810190610949919061094c565b50565b5b8082111561098e57600080820160006101000a81549073ffffffffffffffffffffffffffffffffffffffff021916905560018201600090555060020161094d565b5090565b600073ffffffffffffffffffffffffffffffffffffffff82169050919050565b60006109bd82610992565b9050919050565b6109cd816109b2565b82525050565b60006020820190506109e860008301846109c4565b92915050565b60006109f982610992565b9050919050565b610a09816109ee565b82525050565b6000602082019050610a246000830184610a00565b92915050565b6000819050919050565b610a3d81610a2a565b82525050565b6000602082019050610a586000830184610a34565b92915050565b600080fd5b610a6c81610a2a565b8114610a7757600080fd5b50565b600081359050610a8981610a63565b92915050565b600060208284031215610aa557610aa4610a5e565b5b6000610ab384828501610a7a565b91505092915050565b6000604082019050610ad16000830185610a00565b610ade6020830184610a34565b9392505050565b610aee816109b2565b8114610af957600080fd5b50565b600081359050610b0b81610ae5565b92915050565b600060208284031215610b2757610b26610a5e565b5b6000610b3584828501610afc565b91505092915050565b600082825260208201905092915050565b7f5265656e7472616e637947756172643a207265656e7472616e742063616c6c00600082015250565b6000610b85601f83610b3e565b9150610b9082610b4f565b602082019050919050565b60006020820190508181036000830152610bb481610b78565b9050919050565b7f426964206e6f74206869676820656e6f75676800000000000000000000000000600082015250565b6000610bf1601383610b3e565b9150610bfc82610bbb565b602082019050919050565b60006020820190508181036000830152610c2081610be4565b9050919050565b7f4f776e61626c653a2063616c6c6572206973206e6f7420746865206f776e6572600082015250565b6000610c5d602083610b3e565b9150610c6882610c27565b602082019050919050565b60006020820190508181036000830152610c8c81610c50565b9050919050565b7f4e487b7100000000000000000000000000000000000000000000000000000000600052603260045260246000fd5b7f4e487b7100000000000000000000000000000000000000000000000000000000600052601160045260246000fd5b6000610cfc82610a2a565b91507fffffffffffffffffffffffffffffffffffffffffffffffffffffffffffffffff821415610d2f57610d2e610cc2565b5b600182019050919050565b7f4f776e61626c653a206e6577206f776e657220697320746865207a65726f206160008201527f6464726573730000000000000000000000000000000000000000000000000000602082015250565b6000610d96602683610b3e565b9150610da182610d3a565b604082019050919050565b60006020820190508181036000830152610dc581610d89565b9050919050565b7f416464726573733a20696e73756666696369656e742062616c616e6365000000600082015250565b6000610e02601d83610b3e565b9150610e0d82610dcc565b602082019050919050565b60006020820190508181036000830152610e3181610df5565b9050919050565b600081905092915050565b50565b6000610e53600083610e38565b9150610e5e82610e43565b600082019050919050565b6000610e7482610e46565b9150819050919050565b7f416464726573733a20756e61626c6520746f2073656e642076616c75652c207260008201527f6563697069656e74206d61792068617665207265766572746564000000000000602082015250565b6000610eda603a83610b3e565b9150610ee582610e7e565b604082019050919050565b60006020820190508181036000830152610f0981610ecd565b905091905056fea2646970667358221220a609140db54ce3181008286344eed2bb73f04a265852319c227ee262f261b3fb64736f6c63430008090033",
  "linkReferences": {},
  "deployedLinkReferences": {}
}