{
  "_format": "hh-sol-artifact-1",
  "contractName": "MultiSigWallet",
  "sourceName": "contracts/replay-attack/MultiSigWallet.sol",
  "abi": [
    {
      "inputs": [
        {
          "internalType": "address[2]",
          "name": "_admins",
          "type": "address[2]"
        }
      ],
      "stateMutability": "nonpayable",
      "type": "constructor"
    },
    {
      "inputs": [
        {
          "internalType": "uint256",
          "name": "",
          "type": "uint256"
        }
      ],
      "name": "admins",
      "outputs": [
        {
          "internalType": "address",
          "name": "",
          "type": "address"
        }
      ],
      "stateMutability": "view",
      "type": "function"
    },
    {
      "inputs": [
        {
          "internalType": "address",
          "name": "to",
          "type": "address"
        },
        {
          "internalType": "uint256",
          "name": "amount",
          "type": "uint256"
        },
        {
          "components": [
            {
              "internalType": "uint8",
              "name": "v",
              "type": "uint8"
            },
            {
              "internalType": "bytes32",
              "name": "r",
              "type": "bytes32"
            },
            {
              "internalType": "bytes32",
              "name": "s",
              "type": "bytes32"
            }
          ],
          "internalType": "struct MultiSigWallet.Signature[2]",
          "name": "signatures",
          "type": "tuple[2]"
        }
      ],
      "name": "transfer",
      "outputs": [],
      "stateMutability": "nonpayable",
      "type": "function"
    },
    {
      "stateMutability": "payable",
      "type": "receive"
    }
  ],
  "bytecode": "0x60806040523480156200001157600080fd5b5060405162000e7038038062000e708339818101604052810190620000379190620002ca565b8060009060026200004a92919062000052565b5050620002fc565b8260028101928215620000c1579160200282015b82811115620000c05782518260006101000a81548173ffffffffffffffffffffffffffffffffffffffff021916908373ffffffffffffffffffffffffffffffffffffffff1602179055509160200191906001019062000066565b5b509050620000d09190620000d4565b5090565b5b80821115620000ef576000816000905550600101620000d5565b5090565b6000604051905090565b600080fd5b600080fd5b6000601f19601f8301169050919050565b7f4e487b7100000000000000000000000000000000000000000000000000000000600052604160045260246000fd5b620001528262000107565b810181811067ffffffffffffffff8211171562000174576200017362000118565b5b80604052505050565b600062000189620000f3565b905062000197828262000147565b919050565b600067ffffffffffffffff821115620001ba57620001b962000118565b5b602082029050919050565b600080fd5b600073ffffffffffffffffffffffffffffffffffffffff82169050919050565b6000620001f782620001ca565b9050919050565b6200020981620001ea565b81146200021557600080fd5b50565b6000815190506200022981620001fe565b92915050565b60006200024662000240846200019c565b6200017d565b90508060208402830185811115620002635762000262620001c5565b5b835b818110156200029057806200027b888262000218565b84526020840193505060208101905062000265565b5050509392505050565b600082601f830112620002b257620002b162000102565b5b6002620002c18482856200022f565b91505092915050565b600060408284031215620002e357620002e2620000fd565b5b6000620002f3848285016200029a565b91505092915050565b610b64806200030c6000396000f3fe60806040526004361061002d5760003560e01c80630dad96931461003957806314bfd6d01461006257610034565b3661003457005b600080fd5b34801561004557600080fd5b50610060600480360381019061005b9190610714565b61009f565b005b34801561006e57600080fd5b5061008960048036038101906100849190610768565b610258565b60405161009691906107a4565b60405180910390f35b600080600281106100b3576100b26107bf565b5b0160009054906101000a900473ffffffffffffffffffffffffffffffffffffffff1673ffffffffffffffffffffffffffffffffffffffff1661010e848484600060028110610104576101036107bf565b5b602002015161028e565b73ffffffffffffffffffffffffffffffffffffffff1614610164576040517f08c379a000000000000000000000000000000000000000000000000000000000815260040161015b9061084b565b60405180910390fd5b6000600160028110610179576101786107bf565b5b0160009054906101000a900473ffffffffffffffffffffffffffffffffffffffff1673ffffffffffffffffffffffffffffffffffffffff166101d48484846001600281106101ca576101c96107bf565b5b602002015161028e565b73ffffffffffffffffffffffffffffffffffffffff161461022a576040517f08c379a00000000000000000000000000000000000000000000000000000000081526004016102219061084b565b60405180910390fd5b610253828473ffffffffffffffffffffffffffffffffffffffff1661035e90919063ffffffff16565b505050565b6000816002811061026857600080fd5b016000915054906101000a900473ffffffffffffffffffffffffffffffffffffffff1681565b6000806040518060400160405280601c81526020017f19457468657265756d205369676e6564204d6573736167653a0a353200000000815250905060008186866040516020016102e09392919061094e565b6040516020818303038152906040528051906020012090506001818560000151866020015187604001516040516000815260200160405260405161032794939291906109a5565b6020604051602081039080840390855afa158015610349573d6000803e3d6000fd5b50505060206040510351925050509392505050565b804710156103a1576040517f08c379a000000000000000000000000000000000000000000000000000000000815260040161039890610a36565b60405180910390fd5b60008273ffffffffffffffffffffffffffffffffffffffff16826040516103c790610a87565b60006040518083038185875af1925050503d8060008114610404576040519150601f19603f3d011682016040523d82523d6000602084013e610409565b606091505b505090508061044d576040517f08c379a000000000000000000000000000000000000000000000000000000000815260040161044490610b0e565b60405180910390fd5b505050565b6000604051905090565b600080fd5b600073ffffffffffffffffffffffffffffffffffffffff82169050919050565b600061048c82610461565b9050919050565b61049c81610481565b81146104a757600080fd5b50565b6000813590506104b981610493565b92915050565b6000819050919050565b6104d2816104bf565b81146104dd57600080fd5b50565b6000813590506104ef816104c9565b92915050565b600080fd5b6000601f19601f8301169050919050565b7f4e487b7100000000000000000000000000000000000000000000000000000000600052604160045260246000fd5b610543826104fa565b810181811067ffffffffffffffff821117156105625761056161050b565b5b80604052505050565b6000610575610452565b9050610581828261053a565b919050565b600067ffffffffffffffff8211156105a1576105a061050b565b5b602082029050919050565b600080fd5b600080fd5b600060ff82169050919050565b6105cc816105b6565b81146105d757600080fd5b50565b6000813590506105e9816105c3565b92915050565b6000819050919050565b610602816105ef565b811461060d57600080fd5b50565b60008135905061061f816105f9565b92915050565b60006060828403121561063b5761063a6105b1565b5b610645606061056b565b90506000610655848285016105da565b600083015250602061066984828501610610565b602083015250604061067d84828501610610565b60408301525092915050565b600061069c61069784610586565b61056b565b905080606084028301858111156106b6576106b56105ac565b5b835b818110156106df57806106cb8882610625565b8452602084019350506060810190506106b8565b5050509392505050565b600082601f8301126106fe576106fd6104f5565b5b600261070b848285610689565b91505092915050565b6000806000610100848603121561072e5761072d61045c565b5b600061073c868287016104aa565b935050602061074d868287016104e0565b925050604061075e868287016106e9565b9150509250925092565b60006020828403121561077e5761077d61045c565b5b600061078c848285016104e0565b91505092915050565b61079e81610481565b82525050565b60006020820190506107b96000830184610795565b92915050565b7f4e487b7100000000000000000000000000000000000000000000000000000000600052603260045260246000fd5b600082825260208201905092915050565b7f4163636573732072657374726963746564000000000000000000000000000000600082015250565b60006108356011836107ee565b9150610840826107ff565b602082019050919050565b6000602082019050818103600083015261086481610828565b9050919050565b600081519050919050565b600081905092915050565b60005b8381101561089f578082015181840152602081019050610884565b838111156108ae576000848401525b50505050565b60006108bf8261086b565b6108c98185610876565b93506108d9818560208601610881565b80840191505092915050565b60008160601b9050919050565b60006108fd826108e5565b9050919050565b600061090f826108f2565b9050919050565b61092761092282610481565b610904565b82525050565b6000819050919050565b610948610943826104bf565b61092d565b82525050565b600061095a82866108b4565b91506109668285610916565b6014820191506109768284610937565b602082019150819050949350505050565b610990816105ef565b82525050565b61099f816105b6565b82525050565b60006080820190506109ba6000830187610987565b6109c76020830186610996565b6109d46040830185610987565b6109e16060830184610987565b95945050505050565b7f416464726573733a20696e73756666696369656e742062616c616e6365000000600082015250565b6000610a20601d836107ee565b9150610a2b826109ea565b602082019050919050565b60006020820190508181036000830152610a4f81610a13565b9050919050565b600081905092915050565b50565b6000610a71600083610a56565b9150610a7c82610a61565b600082019050919050565b6000610a9282610a64565b9150819050919050565b7f416464726573733a20756e61626c6520746f2073656e642076616c75652c207260008201527f6563697069656e74206d61792068617665207265766572746564000000000000602082015250565b6000610af8603a836107ee565b9150610b0382610a9c565b604082019050919050565b60006020820190508181036000830152610b2781610aeb565b905091905056fea2646970667358221220b85a992ea21952264e42cb6c93809feaf4364c7e7c00404fcd7178e7e4cda05864736f6c63430008090033",
  "linkReferences": {},
  "deployedLinkReferences": {}
}