{
  "_format": "hh-sol-artifact-1",
  "contractName": "SavingsAccount",
  "sourceName": "contracts/interactions/SavingsAccount.sol",
  "abi": [
    {
      "inputs": [
        {
          "internalType": "address",
          "name": "",
          "type": "address"
        }
      ],
      "name": "balanceOf",
      "outputs": [
        {
          "internalType": "uint256",
          "name": "",
          "type": "uint256"
        }
      ],
      "stateMutability": "view",
      "type": "function"
    },
    {
      "inputs": [],
      "name": "deposit",
      "outputs": [],
      "stateMutability": "payable",
      "type": "function"
    },
    {
      "inputs": [],
      "name": "withdraw",
      "outputs": [],
      "stateMutability": "nonpayable",
      "type": "function"
    }
  ],
  "bytecode": "0x608060405234801561001057600080fd5b50610581806100206000396000f3fe6080604052600436106100345760003560e01c80633ccfd60b1461003957806370a0823114610050578063d0e30db01461008d575b600080fd5b34801561004557600080fd5b5061004e610097565b005b34801561005c57600080fd5b5061007760048036038101906100729190610310565b61014a565b6040516100849190610356565b60405180910390f35b610095610162565b005b60008060003373ffffffffffffffffffffffffffffffffffffffff1673ffffffffffffffffffffffffffffffffffffffff16815260200190815260200160002054905060008060003373ffffffffffffffffffffffffffffffffffffffff1673ffffffffffffffffffffffffffffffffffffffff16815260200190815260200160002081905550610147813373ffffffffffffffffffffffffffffffffffffffff166101b990919063ffffffff16565b50565b60006020528060005260406000206000915090505481565b346000803373ffffffffffffffffffffffffffffffffffffffff1673ffffffffffffffffffffffffffffffffffffffff16815260200190815260200160002060008282546101b091906103a0565b92505081905550565b804710156101fc576040517f08c379a00000000000000000000000000000000000000000000000000000000081526004016101f390610453565b60405180910390fd5b60008273ffffffffffffffffffffffffffffffffffffffff1682604051610222906104a4565b60006040518083038185875af1925050503d806000811461025f576040519150601f19603f3d011682016040523d82523d6000602084013e610264565b606091505b50509050806102a8576040517f08c379a000000000000000000000000000000000000000000000000000000000815260040161029f9061052b565b60405180910390fd5b505050565b600080fd5b600073ffffffffffffffffffffffffffffffffffffffff82169050919050565b60006102dd826102b2565b9050919050565b6102ed816102d2565b81146102f857600080fd5b50565b60008135905061030a816102e4565b92915050565b600060208284031215610326576103256102ad565b5b6000610334848285016102fb565b91505092915050565b6000819050919050565b6103508161033d565b82525050565b600060208201905061036b6000830184610347565b92915050565b7f4e487b7100000000000000000000000000000000000000000000000000000000600052601160045260246000fd5b60006103ab8261033d565b91506103b68361033d565b9250827fffffffffffffffffffffffffffffffffffffffffffffffffffffffffffffffff038211156103eb576103ea610371565b5b828201905092915050565b600082825260208201905092915050565b7f416464726573733a20696e73756666696369656e742062616c616e6365000000600082015250565b600061043d601d836103f6565b915061044882610407565b602082019050919050565b6000602082019050818103600083015261046c81610430565b9050919050565b600081905092915050565b50565b600061048e600083610473565b91506104998261047e565b600082019050919050565b60006104af82610481565b9150819050919050565b7f416464726573733a20756e61626c6520746f2073656e642076616c75652c207260008201527f6563697069656e74206d61792068617665207265766572746564000000000000602082015250565b6000610515603a836103f6565b9150610520826104b9565b604082019050919050565b6000602082019050818103600083015261054481610508565b905091905056fea2646970667358221220cde7bf46138d73bcc82ce8308ff2246ac2a86bf5dd252edb6fc3865dc795da6064736f6c63430008090033",
  "linkReferences": {},
  "deployedLinkReferences": {}
}