{
  "_format": "hh-sol-artifact-1",
  "contractName": "LogicV1",
  "sourceName": "contracts/upgradeability/LogicV1.sol",
  "abi": [
    {
      "inputs": [],
      "name": "increaseX",
      "outputs": [],
      "stateMutability": "nonpayable",
      "type": "function"
    },
    {
      "inputs": [],
      "name": "x",
      "outputs": [
        {
          "internalType": "uint256",
          "name": "",
          "type": "uint256"
        }
      ],
      "stateMutability": "view",
      "type": "function"
    }
  ],
  "bytecode": "0x608060405234801561001057600080fd5b50610164806100206000396000f3fe608060405234801561001057600080fd5b50600436106100365760003560e01c80630c55699c1461003b578063309803c714610059575b600080fd5b610043610063565b604051610050919061009b565b60405180910390f35b610061610069565b005b60005481565b60008081548092919061007b906100e5565b9190505550565b6000819050919050565b61009581610082565b82525050565b60006020820190506100b0600083018461008c565b92915050565b7f4e487b7100000000000000000000000000000000000000000000000000000000600052601160045260246000fd5b60006100f082610082565b91507fffffffffffffffffffffffffffffffffffffffffffffffffffffffffffffffff821415610123576101226100b6565b5b60018201905091905056fea26469706673582212204134ace2a62a9b5fcee1639089358803523b6e37ad110fd37c305a949e86319f64736f6c63430008090033",
  "linkReferences": {},
  "deployedLinkReferences": {}
}