{
  "_format": "hh-sol-artifact-1",
  "contractName": "Lottery",
  "sourceName": "contracts/weak-randomness/Lottery.sol",
  "abi": [
    {
      "anonymous": false,
      "inputs": [
        {
          "indexed": true,
          "internalType": "address",
          "name": "previousOwner",
          "type": "address"
        },
        {
          "indexed": true,
          "internalType": "address",
          "name": "newOwner",
          "type": "address"
        }
      ],
      "name": "OwnershipTransferred",
      "type": "event"
    },
    {
      "inputs": [
        {
          "internalType": "address",
          "name": "",
          "type": "address"
        }
      ],
      "name": "bets",
      "outputs": [
        {
          "internalType": "uint8",
          "name": "",
          "type": "uint8"
        }
      ],
      "stateMutability": "view",
      "type": "function"
    },
    {
      "inputs": [],
      "name": "betsClosed",
      "outputs": [
        {
          "internalType": "bool",
          "name": "",
          "type": "bool"
        }
      ],
      "stateMutability": "view",
      "type": "function"
    },
    {
      "inputs": [],
      "name": "endLottery",
      "outputs": [],
      "stateMutability": "nonpayable",
      "type": "function"
    },
    {
      "inputs": [],
      "name": "owner",
      "outputs": [
        {
          "internalType": "address",
          "name": "",
          "type": "address"
        }
      ],
      "stateMutability": "view",
      "type": "function"
    },
    {
      "inputs": [
        {
          "internalType": "uint8",
          "name": "_number",
          "type": "uint8"
        }
      ],
      "name": "placeBet",
      "outputs": [],
      "stateMutability": "payable",
      "type": "function"
    },
    {
      "inputs": [],
      "name": "prizeTaken",
      "outputs": [
        {
          "internalType": "bool",
          "name": "",
          "type": "bool"
        }
      ],
      "stateMutability": "view",
      "type": "function"
    },
    {
      "inputs": [],
      "name": "renounceOwnership",
      "outputs": [],
      "stateMutability": "nonpayable",
      "type": "function"
    },
    {
      "inputs": [
        {
          "internalType": "address",
          "name": "newOwner",
          "type": "address"
        }
      ],
      "name": "transferOwnership",
      "outputs": [],
      "stateMutability": "nonpayable",
      "type": "function"
    },
    {
      "inputs": [],
      "name": "winningNumber",
      "outputs": [
        {
          "internalType": "uint8",
          "name": "",
          "type": "uint8"
        }
      ],
      "stateMutability": "view",
      "type": "function"
    },
    {
      "inputs": [],
      "name": "withdrawPrize",
      "outputs": [],
      "stateMutability": "nonpayable",
      "type": "function"
    }
  ],
  "bytecode": "0x608060405234801561001057600080fd5b5061002d61002261003260201b60201c565b61003a60201b60201c565b6100fe565b600033905090565b60008060009054906101000a900473ffffffffffffffffffffffffffffffffffffffff169050816000806101000a81548173ffffffffffffffffffffffffffffffffffffffff021916908373ffffffffffffffffffffffffffffffffffffffff1602179055508173ffffffffffffffffffffffffffffffffffffffff168173ffffffffffffffffffffffffffffffffffffffff167f8be0079c531659141344cd1fd0a4f28419497f9722a3daafe3b4186f6b6457e060405160405180910390a35050565b61123e8061010d6000396000f3fe6080604052600436106100915760003560e01c8063715018a611610059578063715018a61461013657806389a78f1a1461014d5780638da5cb5b1461018a578063bfb44bce146101b5578063f2fde38b146101e057610091565b80631593a8c71461009657806343046844146100ad5780634664611e146100c957806348d37a58146100f457806361ae01f71461010b575b600080fd5b3480156100a257600080fd5b506100ab610209565b005b6100c760048036038101906100c29190610a85565b6102c4565b005b3480156100d557600080fd5b506100de6104a7565b6040516100eb9190610ac1565b60405180910390f35b34801561010057600080fd5b506101096104ba565b005b34801561011757600080fd5b5061012061064f565b60405161012d9190610af7565b60405180910390f35b34801561014257600080fd5b5061014b610662565b005b34801561015957600080fd5b50610174600480360381019061016f9190610b70565b6106ea565b6040516101819190610ac1565b60405180910390f35b34801561019657600080fd5b5061019f61070a565b6040516101ac9190610bac565b60405180910390f35b3480156101c157600080fd5b506101ca610733565b6040516101d79190610af7565b60405180910390f35b3480156101ec57600080fd5b5061020760048036038101906102029190610b70565b610746565b005b61021161083e565b73ffffffffffffffffffffffffffffffffffffffff1661022f61070a565b73ffffffffffffffffffffffffffffffffffffffff1614610285576040517f08c379a000000000000000000000000000000000000000000000000000000000815260040161027c90610c24565b60405180910390fd5b6001600260006101000a81548160ff0219169083151502179055506102a8610846565b600060146101000a81548160ff021916908360ff160217905550565b6000600160003373ffffffffffffffffffffffffffffffffffffffff1673ffffffffffffffffffffffffffffffffffffffff16815260200190815260200160002060009054906101000a900460ff1660ff1614610356576040517f08c379a000000000000000000000000000000000000000000000000000000000815260040161034d90610c90565b60405180910390fd5b678ac7230489e8000034146103a0576040517f08c379a000000000000000000000000000000000000000000000000000000000815260040161039790610cfc565b60405180910390fd5b60001515600260009054906101000a900460ff161515146103f6576040517f08c379a00000000000000000000000000000000000000000000000000000000081526004016103ed90610d68565b60405180910390fd5b60008160ff1611801561040d575060ff8160ff1611155b61044c576040517f08c379a000000000000000000000000000000000000000000000000000000000815260040161044390610dd4565b60405180910390fd5b80600160003373ffffffffffffffffffffffffffffffffffffffff1673ffffffffffffffffffffffffffffffffffffffff16815260200190815260200160002060006101000a81548160ff021916908360ff16021790555050565b600060149054906101000a900460ff1681565b60011515600260009054906101000a900460ff16151514610510576040517f08c379a000000000000000000000000000000000000000000000000000000000815260040161050790610e40565b60405180910390fd5b60001515600260019054906101000a900460ff16151514610566576040517f08c379a000000000000000000000000000000000000000000000000000000000815260040161055d90610eac565b60405180910390fd5b600060149054906101000a900460ff1660ff16600160003373ffffffffffffffffffffffffffffffffffffffff1673ffffffffffffffffffffffffffffffffffffffff16815260200190815260200160002060009054906101000a900460ff1660ff1614610609576040517f08c379a000000000000000000000000000000000000000000000000000000000815260040161060090610f18565b60405180910390fd5b6001600260016101000a81548160ff02191690831515021790555061064d473373ffffffffffffffffffffffffffffffffffffffff1661088f90919063ffffffff16565b565b600260019054906101000a900460ff1681565b61066a61083e565b73ffffffffffffffffffffffffffffffffffffffff1661068861070a565b73ffffffffffffffffffffffffffffffffffffffff16146106de576040517f08c379a00000000000000000000000000000000000000000000000000000000081526004016106d590610c24565b60405180910390fd5b6106e86000610983565b565b60016020528060005260406000206000915054906101000a900460ff1681565b60008060009054906101000a900473ffffffffffffffffffffffffffffffffffffffff16905090565b600260009054906101000a900460ff1681565b61074e61083e565b73ffffffffffffffffffffffffffffffffffffffff1661076c61070a565b73ffffffffffffffffffffffffffffffffffffffff16146107c2576040517f08c379a00000000000000000000000000000000000000000000000000000000081526004016107b990610c24565b60405180910390fd5b600073ffffffffffffffffffffffffffffffffffffffff168173ffffffffffffffffffffffffffffffffffffffff161415610832576040517f08c379a000000000000000000000000000000000000000000000000000000000815260040161082990610faa565b60405180910390fd5b61083b81610983565b50565b600033905090565b6000600160fe4260405160200161085d9190610fe3565b6040516020818303038152906040528051906020012060001c610880919061102d565b61088a919061108d565b905090565b804710156108d2576040517f08c379a00000000000000000000000000000000000000000000000000000000081526004016108c990611110565b60405180910390fd5b60008273ffffffffffffffffffffffffffffffffffffffff16826040516108f890611161565b60006040518083038185875af1925050503d8060008114610935576040519150601f19603f3d011682016040523d82523d6000602084013e61093a565b606091505b505090508061097e576040517f08c379a0000000000000000000000000000000000000000000000000000000008152600401610975906111e8565b60405180910390fd5b505050565b60008060009054906101000a900473ffffffffffffffffffffffffffffffffffffffff169050816000806101000a81548173ffffffffffffffffffffffffffffffffffffffff021916908373ffffffffffffffffffffffffffffffffffffffff1602179055508173ffffffffffffffffffffffffffffffffffffffff168173ffffffffffffffffffffffffffffffffffffffff167f8be0079c531659141344cd1fd0a4f28419497f9722a3daafe3b4186f6b6457e060405160405180910390a35050565b600080fd5b600060ff82169050919050565b610a6281610a4c565b8114610a6d57600080fd5b50565b600081359050610a7f81610a59565b92915050565b600060208284031215610a9b57610a9a610a47565b5b6000610aa984828501610a70565b91505092915050565b610abb81610a4c565b82525050565b6000602082019050610ad66000830184610ab2565b92915050565b60008115159050919050565b610af181610adc565b82525050565b6000602082019050610b0c6000830184610ae8565b92915050565b600073ffffffffffffffffffffffffffffffffffffffff82169050919050565b6000610b3d82610b12565b9050919050565b610b4d81610b32565b8114610b5857600080fd5b50565b600081359050610b6a81610b44565b92915050565b600060208284031215610b8657610b85610a47565b5b6000610b9484828501610b5b565b91505092915050565b610ba681610b32565b82525050565b6000602082019050610bc16000830184610b9d565b92915050565b600082825260208201905092915050565b7f4f776e61626c653a2063616c6c6572206973206e6f7420746865206f776e6572600082015250565b6000610c0e602083610bc7565b9150610c1982610bd8565b602082019050919050565b60006020820190508181036000830152610c3d81610c01565b9050919050565b7f4f6e6c792031206265742070657220706c617965720000000000000000000000600082015250565b6000610c7a601583610bc7565b9150610c8582610c44565b602082019050919050565b60006020820190508181036000830152610ca981610c6d565b9050919050565b7f42657420636f73743a2031302065746865720000000000000000000000000000600082015250565b6000610ce6601283610bc7565b9150610cf182610cb0565b602082019050919050565b60006020820190508181036000830152610d1581610cd9565b9050919050565b7f426574732061726520636c6f7365640000000000000000000000000000000000600082015250565b6000610d52600f83610bc7565b9150610d5d82610d1c565b602082019050919050565b60006020820190508181036000830152610d8181610d45565b9050919050565b7f4d7573742062652061206e756d6265722066726f6d203120746f203235350000600082015250565b6000610dbe601e83610bc7565b9150610dc982610d88565b602082019050919050565b60006020820190508181036000830152610ded81610db1565b9050919050565b7f4265747320617265207374696c6c206f70656e00000000000000000000000000600082015250565b6000610e2a601383610bc7565b9150610e3582610df4565b602082019050919050565b60006020820190508181036000830152610e5981610e1d565b9050919050565b7f5072697a6520616c72656164792074616b656e00000000000000000000000000600082015250565b6000610e96601383610bc7565b9150610ea182610e60565b602082019050919050565b60006020820190508181036000830152610ec581610e89565b9050919050565b7f596f75206172656e2774207468652077696e6e65720000000000000000000000600082015250565b6000610f02601583610bc7565b9150610f0d82610ecc565b602082019050919050565b60006020820190508181036000830152610f3181610ef5565b9050919050565b7f4f776e61626c653a206e6577206f776e657220697320746865207a65726f206160008201527f6464726573730000000000000000000000000000000000000000000000000000602082015250565b6000610f94602683610bc7565b9150610f9f82610f38565b604082019050919050565b60006020820190508181036000830152610fc381610f87565b9050919050565b6000819050919050565b610fdd81610fca565b82525050565b6000602082019050610ff86000830184610fd4565b92915050565b7f4e487b7100000000000000000000000000000000000000000000000000000000600052601260045260246000fd5b600061103882610fca565b915061104383610fca565b92508261105357611052610ffe565b5b828206905092915050565b7f4e487b7100000000000000000000000000000000000000000000000000000000600052601160045260246000fd5b600061109882610a4c565b91506110a383610a4c565b92508260ff038211156110b9576110b861105e565b5b828201905092915050565b7f416464726573733a20696e73756666696369656e742062616c616e6365000000600082015250565b60006110fa601d83610bc7565b9150611105826110c4565b602082019050919050565b60006020820190508181036000830152611129816110ed565b9050919050565b600081905092915050565b50565b600061114b600083611130565b91506111568261113b565b600082019050919050565b600061116c8261113e565b9150819050919050565b7f416464726573733a20756e61626c6520746f2073656e642076616c75652c207260008201527f6563697069656e74206d61792068617665207265766572746564000000000000602082015250565b60006111d2603a83610bc7565b91506111dd82611176565b604082019050919050565b60006020820190508181036000830152611201816111c5565b905091905056fea264697066735822122001fca753b26e746e8e9ab0a21148bc3dd4e9429e87aaf348a20bb445c2d7a17264736f6c63430008090033",
  "linkReferences": {},
  "deployedLinkReferences": {}
}