{
  "_format": "hh-sol-artifact-1",
  "contractName": "KotET",
  "sourceName": "contracts/realHacks/KotET.sol",
  "abi": [
    {
      "inputs": [],
      "stateMutability": "nonpayable",
      "type": "constructor"
    },
    {
      "anonymous": false,
      "inputs": [
        {
          "indexed": true,
          "internalType": "address",
          "name": "previousOwner",
          "type": "address"
        },
        {
          "indexed": true,
          "internalType": "address",
          "name": "newOwner",
          "type": "address"
        }
      ],
      "name": "OwnershipTransferred",
      "type": "event"
    },
    {
      "inputs": [],
      "name": "claimPrice",
      "outputs": [
        {
          "internalType": "uint256",
          "name": "",
          "type": "uint256"
        }
      ],
      "stateMutability": "view",
      "type": "function"
    },
    {
      "inputs": [],
      "name": "king",
      "outputs": [
        {
          "internalType": "address",
          "name": "",
          "type": "address"
        }
      ],
      "stateMutability": "view",
      "type": "function"
    },
    {
      "inputs": [],
      "name": "owner",
      "outputs": [
        {
          "internalType": "address",
          "name": "",
          "type": "address"
        }
      ],
      "stateMutability": "view",
      "type": "function"
    },
    {
      "inputs": [],
      "name": "renounceOwnership",
      "outputs": [],
      "stateMutability": "nonpayable",
      "type": "function"
    },
    {
      "inputs": [
        {
          "internalType": "address",
          "name": "newOwner",
          "type": "address"
        }
      ],
      "name": "transferOwnership",
      "outputs": [],
      "stateMutability": "nonpayable",
      "type": "function"
    },
    {
      "stateMutability": "payable",
      "type": "receive"
    }
  ],
  "bytecode": "0x608060405234801561001057600080fd5b5061002d61002261007360201b60201c565b61007b60201b60201c565b33600160006101000a81548173ffffffffffffffffffffffffffffffffffffffff021916908373ffffffffffffffffffffffffffffffffffffffff16021790555061013f565b600033905090565b60008060009054906101000a900473ffffffffffffffffffffffffffffffffffffffff169050816000806101000a81548173ffffffffffffffffffffffffffffffffffffffff021916908373ffffffffffffffffffffffffffffffffffffffff1602179055508173ffffffffffffffffffffffffffffffffffffffff168173ffffffffffffffffffffffffffffffffffffffff167f8be0079c531659141344cd1fd0a4f28419497f9722a3daafe3b4186f6b6457e060405160405180910390a35050565b610af08061014e6000396000f3fe60806040526004361061004e5760003560e01c806315d655c91461019a578063715018a6146101c55780638da5cb5b146101dc578063cc181ca814610207578063f2fde38b1461023257610195565b36610195576002543411610097576040517f08c379a000000000000000000000000000000000000000000000000000000000815260040161008e9061064d565b60405180910390fd5b6000600160009054906101000a900473ffffffffffffffffffffffffffffffffffffffff16905033600160006101000a81548173ffffffffffffffffffffffffffffffffffffffff021916908373ffffffffffffffffffffffffffffffffffffffff1602179055503460028190555060006002606460025461011991906106d5565b6101239190610706565b90506000816002546101359190610760565b90506101678261014361025b565b73ffffffffffffffffffffffffffffffffffffffff1661028490919063ffffffff16565b610190818473ffffffffffffffffffffffffffffffffffffffff1661028490919063ffffffff16565b505050005b600080fd5b3480156101a657600080fd5b506101af610378565b6040516101bc91906107a3565b60405180910390f35b3480156101d157600080fd5b506101da61037e565b005b3480156101e857600080fd5b506101f161025b565b6040516101fe91906107ff565b60405180910390f35b34801561021357600080fd5b5061021c610406565b60405161022991906107ff565b60405180910390f35b34801561023e57600080fd5b506102596004803603810190610254919061084b565b61042c565b005b60008060009054906101000a900473ffffffffffffffffffffffffffffffffffffffff16905090565b804710156102c7576040517f08c379a00000000000000000000000000000000000000000000000000000000081526004016102be906108c4565b60405180910390fd5b60008273ffffffffffffffffffffffffffffffffffffffff16826040516102ed90610915565b60006040518083038185875af1925050503d806000811461032a576040519150601f19603f3d011682016040523d82523d6000602084013e61032f565b606091505b5050905080610373576040517f08c379a000000000000000000000000000000000000000000000000000000000815260040161036a9061099c565b60405180910390fd5b505050565b60025481565b610386610524565b73ffffffffffffffffffffffffffffffffffffffff166103a461025b565b73ffffffffffffffffffffffffffffffffffffffff16146103fa576040517f08c379a00000000000000000000000000000000000000000000000000000000081526004016103f190610a08565b60405180910390fd5b610404600061052c565b565b600160009054906101000a900473ffffffffffffffffffffffffffffffffffffffff1681565b610434610524565b73ffffffffffffffffffffffffffffffffffffffff1661045261025b565b73ffffffffffffffffffffffffffffffffffffffff16146104a8576040517f08c379a000000000000000000000000000000000000000000000000000000000815260040161049f90610a08565b60405180910390fd5b600073ffffffffffffffffffffffffffffffffffffffff168173ffffffffffffffffffffffffffffffffffffffff161415610518576040517f08c379a000000000000000000000000000000000000000000000000000000000815260040161050f90610a9a565b60405180910390fd5b6105218161052c565b50565b600033905090565b60008060009054906101000a900473ffffffffffffffffffffffffffffffffffffffff169050816000806101000a81548173ffffffffffffffffffffffffffffffffffffffff021916908373ffffffffffffffffffffffffffffffffffffffff1602179055508173ffffffffffffffffffffffffffffffffffffffff168173ffffffffffffffffffffffffffffffffffffffff167f8be0079c531659141344cd1fd0a4f28419497f9722a3daafe3b4186f6b6457e060405160405180910390a35050565b600082825260208201905092915050565b7f4e6f7420656e6f75676820457468657200000000000000000000000000000000600082015250565b60006106376010836105f0565b915061064282610601565b602082019050919050565b600060208201905081810360008301526106668161062a565b9050919050565b6000819050919050565b7f4e487b7100000000000000000000000000000000000000000000000000000000600052601260045260246000fd5b7f4e487b7100000000000000000000000000000000000000000000000000000000600052601160045260246000fd5b60006106e08261066d565b91506106eb8361066d565b9250826106fb576106fa610677565b5b828204905092915050565b60006107118261066d565b915061071c8361066d565b9250817fffffffffffffffffffffffffffffffffffffffffffffffffffffffffffffffff0483118215151615610755576107546106a6565b5b828202905092915050565b600061076b8261066d565b91506107768361066d565b925082821015610789576107886106a6565b5b828203905092915050565b61079d8161066d565b82525050565b60006020820190506107b86000830184610794565b92915050565b600073ffffffffffffffffffffffffffffffffffffffff82169050919050565b60006107e9826107be565b9050919050565b6107f9816107de565b82525050565b600060208201905061081460008301846107f0565b92915050565b600080fd5b610828816107de565b811461083357600080fd5b50565b6000813590506108458161081f565b92915050565b6000602082840312156108615761086061081a565b5b600061086f84828501610836565b91505092915050565b7f416464726573733a20696e73756666696369656e742062616c616e6365000000600082015250565b60006108ae601d836105f0565b91506108b982610878565b602082019050919050565b600060208201905081810360008301526108dd816108a1565b9050919050565b600081905092915050565b50565b60006108ff6000836108e4565b915061090a826108ef565b600082019050919050565b6000610920826108f2565b9150819050919050565b7f416464726573733a20756e61626c6520746f2073656e642076616c75652c207260008201527f6563697069656e74206d61792068617665207265766572746564000000000000602082015250565b6000610986603a836105f0565b91506109918261092a565b604082019050919050565b600060208201905081810360008301526109b581610979565b9050919050565b7f4f776e61626c653a2063616c6c6572206973206e6f7420746865206f776e6572600082015250565b60006109f26020836105f0565b91506109fd826109bc565b602082019050919050565b60006020820190508181036000830152610a21816109e5565b9050919050565b7f4f776e61626c653a206e6577206f776e657220697320746865207a65726f206160008201527f6464726573730000000000000000000000000000000000000000000000000000602082015250565b6000610a846026836105f0565b9150610a8f82610a28565b604082019050919050565b60006020820190508181036000830152610ab381610a77565b905091905056fea26469706673582212207a51cb582e4a66da96a5002ec3f65cf0957c08df73ba594a6dbc4aa72eb7c1d864736f6c63430008090033",
  "linkReferences": {},
  "deployedLinkReferences": {}
}